{
  "contractName": "HONKMarketplace",
  "abi": [
    {
      "inputs": [],
      "stateMutability": "nonpayable",
      "type": "constructor"
    },
    {
      "inputs": [
        {
          "internalType": "address",
          "name": "target",
          "type": "address"
        }
      ],
      "name": "AddressEmptyCode",
      "type": "error"
    },
    {
      "inputs": [
        {
          "internalType": "address",
          "name": "account",
          "type": "address"
        }
      ],
      "name": "AddressInsufficientBalance",
      "type": "error"
    },
    {
      "inputs": [],
      "name": "EnforcedPause",
      "type": "error"
    },
    {
      "inputs": [],
      "name": "ExpectedPause",
      "type": "error"
    },
    {
      "inputs": [],
      "name": "FailedInnerCall",
      "type": "error"
    },
    {
      "inputs": [],
      "name": "InvalidInitialization",
      "type": "error"
    },
    {
      "inputs": [],
      "name": "NotInitializing",
      "type": "error"
    },
    {
      "inputs": [
        {
          "internalType": "address",
          "name": "owner",
          "type": "address"
        }
      ],
      "name": "OwnableInvalidOwner",
      "type": "error"
    },
    {
      "inputs": [
        {
          "internalType": "address",
          "name": "account",
          "type": "address"
        }
      ],
      "name": "OwnableUnauthorizedAccount",
      "type": "error"
    },
    {
      "inputs": [],
      "name": "ReentrancyGuardReentrantCall",
      "type": "error"
    },
    {
      "inputs": [
        {
          "internalType": "address",
          "name": "token",
          "type": "address"
        }
      ],
      "name": "SafeERC20FailedOperation",
      "type": "error"
    },
    {
      "anonymous": false,
      "inputs": [
        {
          "indexed": false,
          "internalType": "address",
          "name": "token",
          "type": "address"
        },
        {
          "indexed": false,
          "internalType": "uint256",
          "name": "tokenId",
          "type": "uint256"
        },
        {
          "indexed": false,
          "internalType": "address",
          "name": "recipient",
          "type": "address"
        }
      ],
      "name": "ERC721Withdrawn",
      "type": "event"
    },
    {
      "anonymous": false,
      "inputs": [
        {
          "indexed": false,
          "internalType": "uint256",
          "name": "oldPercentage",
          "type": "uint256"
        },
        {
          "indexed": false,
          "internalType": "uint256",
          "name": "newPercentage",
          "type": "uint256"
        }
      ],
      "name": "FeePercentageExecuted",
      "type": "event"
    },
    {
      "anonymous": false,
      "inputs": [
        {
          "indexed": false,
          "internalType": "uint256",
          "name": "proposedPercentage",
          "type": "uint256"
        },
        {
          "indexed": false,
          "internalType": "uint256",
          "name": "timestamp",
          "type": "uint256"
        }
      ],
      "name": "FeePercentageProposed",
      "type": "event"
    },
    {
      "anonymous": false,
      "inputs": [
        {
          "indexed": false,
          "internalType": "uint256",
          "name": "oldPercentage",
          "type": "uint256"
        },
        {
          "indexed": false,
          "internalType": "uint256",
          "name": "newPercentage",
          "type": "uint256"
        }
      ],
      "name": "FeePercentageUpdated",
      "type": "event"
    },
    {
      "anonymous": false,
      "inputs": [
        {
          "indexed": false,
          "internalType": "address",
          "name": "oldRecipient",
          "type": "address"
        },
        {
          "indexed": false,
          "internalType": "address",
          "name": "newRecipient",
          "type": "address"
        }
      ],
      "name": "FeeRecipientUpdated",
      "type": "event"
    },
    {
      "anonymous": false,
      "inputs": [
        {
          "indexed": false,
          "internalType": "address",
          "name": "recipient",
          "type": "address"
        },
        {
          "indexed": false,
          "internalType": "uint256",
          "name": "amount",
          "type": "uint256"
        }
      ],
      "name": "FundsWithdrawn",
      "type": "event"
    },
    {
      "anonymous": false,
      "inputs": [
        {
          "indexed": true,
          "internalType": "uint256",
          "name": "heroId",
          "type": "uint256"
        },
        {
          "indexed": true,
          "internalType": "address",
          "name": "seller",
          "type": "address"
        },
        {
          "indexed": false,
          "internalType": "uint256",
          "name": "price",
          "type": "uint256"
        }
      ],
      "name": "HeroListed",
      "type": "event"
    },
    {
      "anonymous": false,
      "inputs": [
        {
          "indexed": true,
          "internalType": "uint256",
          "name": "heroId",
          "type": "uint256"
        },
        {
          "indexed": true,
          "internalType": "address",
          "name": "seller",
          "type": "address"
        },
        {
          "indexed": false,
          "internalType": "uint256",
          "name": "newPrice",
          "type": "uint256"
        }
      ],
      "name": "HeroPriceUpdated",
      "type": "event"
    },
    {
      "anonymous": false,
      "inputs": [
        {
          "indexed": true,
          "internalType": "uint256",
          "name": "heroId",
          "type": "uint256"
        },
        {
          "indexed": true,
          "internalType": "address",
          "name": "buyer",
          "type": "address"
        },
        {
          "indexed": true,
          "internalType": "address",
          "name": "seller",
          "type": "address"
        },
        {
          "indexed": false,
          "internalType": "uint256",
          "name": "price",
          "type": "uint256"
        }
      ],
      "name": "HeroPurchased",
      "type": "event"
    },
    {
      "anonymous": false,
      "inputs": [
        {
          "indexed": true,
          "internalType": "uint256",
          "name": "heroId",
          "type": "uint256"
        },
        {
          "indexed": true,
          "internalType": "address",
          "name": "seller",
          "type": "address"
        }
      ],
      "name": "HeroUnlisted",
      "type": "event"
    },
    {
      "anonymous": false,
      "inputs": [
        {
          "indexed": false,
          "internalType": "uint64",
          "name": "version",
          "type": "uint64"
        }
      ],
      "name": "Initialized",
      "type": "event"
    },
    {
      "anonymous": false,
      "inputs": [
        {
          "indexed": true,
          "internalType": "address",
          "name": "by",
          "type": "address"
        }
      ],
      "name": "MarketplacePaused",
      "type": "event"
    },
    {
      "anonymous": false,
      "inputs": [
        {
          "indexed": true,
          "internalType": "address",
          "name": "by",
          "type": "address"
        }
      ],
      "name": "MarketplaceUnpaused",
      "type": "event"
    },
    {
      "anonymous": false,
      "inputs": [
        {
          "indexed": true,
          "internalType": "address",
          "name": "previousOwner",
          "type": "address"
        },
        {
          "indexed": true,
          "internalType": "address",
          "name": "newOwner",
          "type": "address"
        }
      ],
      "name": "OwnershipTransferred",
      "type": "event"
    },
    {
      "anonymous": false,
      "inputs": [
        {
          "indexed": false,
          "internalType": "address",
          "name": "account",
          "type": "address"
        }
      ],
      "name": "Paused",
      "type": "event"
    },
    {
      "anonymous": false,
      "inputs": [
        {
          "indexed": false,
          "internalType": "address",
          "name": "account",
          "type": "address"
        }
      ],
      "name": "Unpaused",
      "type": "event"
    },
    {
      "inputs": [],
      "name": "FEE_PERCENTAGE",
      "outputs": [
        {
          "internalType": "uint256",
          "name": "",
          "type": "uint256"
        }
      ],
      "stateMutability": "view",
      "type": "function",
      "constant": true
    },
    {
      "inputs": [],
      "name": "TIMELOCK_PERIOD",
      "outputs": [
        {
          "internalType": "uint256",
          "name": "",
          "type": "uint256"
        }
      ],
      "stateMutability": "view",
      "type": "function",
      "constant": true
    },
    {
      "inputs": [],
      "name": "dfkHeroContract",
      "outputs": [
        {
          "internalType": "contract IHeroCoreDiamond",
          "name": "",
          "type": "address"
        }
      ],
      "stateMutability": "view",
      "type": "function",
      "constant": true
    },
    {
      "inputs": [],
      "name": "feeRecipient",
      "outputs": [
        {
          "internalType": "address",
          "name": "",
          "type": "address"
        }
      ],
      "stateMutability": "view",
      "type": "function",
      "constant": true
    },
    {
      "inputs": [],
      "name": "heroCount",
      "outputs": [
        {
          "internalType": "uint256",
          "name": "",
          "type": "uint256"
        }
      ],
      "stateMutability": "view",
      "type": "function",
      "constant": true
    },
    {
      "inputs": [
        {
          "internalType": "uint256",
          "name": "",
          "type": "uint256"
        }
      ],
      "name": "heroIdToIndex",
      "outputs": [
        {
          "internalType": "uint256",
          "name": "",
          "type": "uint256"
        }
      ],
      "stateMutability": "view",
      "type": "function",
      "constant": true
    },
    {
      "inputs": [
        {
          "internalType": "uint256",
          "name": "",
          "type": "uint256"
        }
      ],
      "name": "heroes",
      "outputs": [
        {
          "internalType": "uint256",
          "name": "id",
          "type": "uint256"
        },
        {
          "internalType": "address",
          "name": "owner",
          "type": "address"
        },
        {
          "internalType": "uint256",
          "name": "price",
          "type": "uint256"
        },
        {
          "internalType": "bool",
          "name": "isForSale",
          "type": "bool"
        }
      ],
      "stateMutability": "view",
      "type": "function",
      "constant": true
    },
    {
      "inputs": [],
      "name": "honkToken",
      "outputs": [
        {
          "internalType": "contract IERC20",
          "name": "",
          "type": "address"
        }
      ],
      "stateMutability": "view",
      "type": "function",
      "constant": true
    },
    {
      "inputs": [
        {
          "internalType": "uint256",
          "name": "",
          "type": "uint256"
        }
      ],
      "name": "isHeroListed",
      "outputs": [
        {
          "internalType": "bool",
          "name": "",
          "type": "bool"
        }
      ],
      "stateMutability": "view",
      "type": "function",
      "constant": true
    },
    {
      "inputs": [],
      "name": "listedHeroCount",
      "outputs": [
        {
          "internalType": "uint256",
          "name": "",
          "type": "uint256"
        }
      ],
      "stateMutability": "view",
      "type": "function",
      "constant": true
    },
    {
      "inputs": [],
      "name": "owner",
      "outputs": [
        {
          "internalType": "address",
          "name": "",
          "type": "address"
        }
      ],
      "stateMutability": "view",
      "type": "function",
      "constant": true
    },
    {
      "inputs": [],
      "name": "proposedFeePercentage",
      "outputs": [
        {
          "internalType": "uint256",
          "name": "",
          "type": "uint256"
        }
      ],
      "stateMutability": "view",
      "type": "function",
      "constant": true
    },
    {
      "inputs": [],
      "name": "proposedFeePercentageTimestamp",
      "outputs": [
        {
          "internalType": "uint256",
          "name": "",
          "type": "uint256"
        }
      ],
      "stateMutability": "view",
      "type": "function",
      "constant": true
    },
    {
      "inputs": [],
      "name": "renounceOwnership",
      "outputs": [],
      "stateMutability": "nonpayable",
      "type": "function"
    },
    {
      "inputs": [
        {
          "internalType": "address",
          "name": "newOwner",
          "type": "address"
        }
      ],
      "name": "transferOwnership",
      "outputs": [],
      "stateMutability": "nonpayable",
      "type": "function"
    },
    {
      "inputs": [
        {
          "internalType": "address",
          "name": "_honkToken",
          "type": "address"
        },
        {
          "internalType": "address",
          "name": "_dfkHeroContract",
          "type": "address"
        },
        {
          "internalType": "address",
          "name": "_feeRecipient",
          "type": "address"
        }
      ],
      "name": "initialize",
      "outputs": [],
      "stateMutability": "nonpayable",
      "type": "function"
    },
    {
      "inputs": [
        {
          "internalType": "address",
          "name": "_newFeeRecipient",
          "type": "address"
        }
      ],
      "name": "setFeeRecipient",
      "outputs": [],
      "stateMutability": "nonpayable",
      "type": "function"
    },
    {
      "inputs": [],
      "name": "pause",
      "outputs": [],
      "stateMutability": "nonpayable",
      "type": "function"
    },
    {
      "inputs": [],
      "name": "unpause",
      "outputs": [],
      "stateMutability": "nonpayable",
      "type": "function"
    },
    {
      "inputs": [
        {
          "internalType": "uint256",
          "name": "_newFeePercentage",
          "type": "uint256"
        }
      ],
      "name": "proposeFeePercentage",
      "outputs": [],
      "stateMutability": "nonpayable",
      "type": "function"
    },
    {
      "inputs": [],
      "name": "executeFeePercentageUpdate",
      "outputs": [],
      "stateMutability": "nonpayable",
      "type": "function"
    },
    {
      "inputs": [
        {
          "internalType": "uint256",
          "name": "_amount",
          "type": "uint256"
        }
      ],
      "name": "withdrawFees",
      "outputs": [],
      "stateMutability": "nonpayable",
      "type": "function"
    },
    {
      "inputs": [
        {
          "internalType": "address",
          "name": "_token",
          "type": "address"
        },
        {
          "internalType": "uint256",
          "name": "_tokenId",
          "type": "uint256"
        },
        {
          "internalType": "address",
          "name": "_recipient",
          "type": "address"
        }
      ],
      "name": "withdrawERC721",
      "outputs": [],
      "stateMutability": "nonpayable",
      "type": "function"
    },
    {
      "inputs": [
        {
          "internalType": "uint256",
          "name": "_heroId",
          "type": "uint256"
        }
      ],
      "name": "checkIfHeroIsListed",
      "outputs": [
        {
          "internalType": "bool",
          "name": "",
          "type": "bool"
        }
      ],
      "stateMutability": "view",
      "type": "function",
      "constant": true
    },
    {
      "inputs": [
        {
          "internalType": "uint256",
          "name": "_heroId",
          "type": "uint256"
        },
        {
          "internalType": "uint256",
          "name": "_price",
          "type": "uint256"
        }
      ],
      "name": "listHero",
      "outputs": [],
      "stateMutability": "nonpayable",
      "type": "function"
    },
    {
      "inputs": [
        {
          "internalType": "uint256",
          "name": "_heroId",
          "type": "uint256"
        }
      ],
      "name": "cancelListing",
      "outputs": [],
      "stateMutability": "nonpayable",
      "type": "function"
    },
    {
      "inputs": [
        {
          "internalType": "uint256[]",
          "name": "_heroIds",
          "type": "uint256[]"
        }
      ],
      "name": "bulkCancelListings",
      "outputs": [],
      "stateMutability": "nonpayable",
      "type": "function"
    },
    {
      "inputs": [
        {
          "internalType": "uint256",
          "name": "_heroId",
          "type": "uint256"
        },
        {
          "internalType": "uint256",
          "name": "_newPrice",
          "type": "uint256"
        }
      ],
      "name": "updatePrice",
      "outputs": [],
      "stateMutability": "nonpayable",
      "type": "function"
    },
    {
      "inputs": [
        {
          "internalType": "uint256",
          "name": "heroId",
          "type": "uint256"
        }
      ],
      "name": "buyHero",
      "outputs": [],
      "stateMutability": "nonpayable",
      "type": "function"
    },
    {
      "inputs": [
        {
          "internalType": "uint256",
          "name": "_heroId",
          "type": "uint256"
        }
      ],
      "name": "getHero",
      "outputs": [
        {
          "components": [
            {
              "internalType": "uint256",
              "name": "id",
              "type": "uint256"
            },
            {
              "internalType": "address",
              "name": "owner",
              "type": "address"
            },
            {
              "internalType": "uint256",
              "name": "price",
              "type": "uint256"
            },
            {
              "internalType": "bool",
              "name": "isForSale",
              "type": "bool"
            }
          ],
          "internalType": "struct HONKMarketplace.Hero",
          "name": "",
          "type": "tuple"
        }
      ],
      "stateMutability": "view",
      "type": "function",
      "constant": true
    },
    {
      "inputs": [
        {
          "internalType": "uint256",
          "name": "_heroId",
          "type": "uint256"
        }
      ],
      "name": "getHeroIndex",
      "outputs": [
        {
          "internalType": "uint256",
          "name": "",
          "type": "uint256"
        }
      ],
      "stateMutability": "view",
      "type": "function",
      "constant": true
    },
    {
      "inputs": [],
      "name": "getListedHeroes",
      "outputs": [
        {
          "components": [
            {
              "internalType": "uint256",
              "name": "id",
              "type": "uint256"
            },
            {
              "internalType": "address",
              "name": "owner",
              "type": "address"
            },
            {
              "internalType": "uint256",
              "name": "price",
              "type": "uint256"
            },
            {
              "internalType": "bool",
              "name": "isForSale",
              "type": "bool"
            }
          ],
          "internalType": "struct HONKMarketplace.Hero[]",
          "name": "",
          "type": "tuple[]"
        },
        {
          "internalType": "uint256",
          "name": "",
          "type": "uint256"
        }
      ],
      "stateMutability": "view",
      "type": "function",
      "constant": true
    },
    {
      "inputs": [
        {
          "internalType": "uint256",
          "name": "_offset",
          "type": "uint256"
        },
        {
          "internalType": "uint256",
          "name": "_limit",
          "type": "uint256"
        }
      ],
      "name": "getListedHeroesPaginated",
      "outputs": [
        {
          "components": [
            {
              "internalType": "uint256",
              "name": "id",
              "type": "uint256"
            },
            {
              "internalType": "address",
              "name": "owner",
              "type": "address"
            },
            {
              "internalType": "uint256",
              "name": "price",
              "type": "uint256"
            },
            {
              "internalType": "bool",
              "name": "isForSale",
              "type": "bool"
            }
          ],
          "internalType": "struct HONKMarketplace.Hero[]",
          "name": "",
          "type": "tuple[]"
        }
      ],
      "stateMutability": "view",
      "type": "function",
      "constant": true
    },
    {
      "inputs": [
        {
          "internalType": "uint256[]",
          "name": "_heroIds",
          "type": "uint256[]"
        }
      ],
      "name": "getMultipleHeroes",
      "outputs": [
        {
          "components": [
            {
              "internalType": "uint256",
              "name": "id",
              "type": "uint256"
            },
            {
              "internalType": "address",
              "name": "owner",
              "type": "address"
            },
            {
              "internalType": "uint256",
              "name": "price",
              "type": "uint256"
            },
            {
              "internalType": "bool",
              "name": "isForSale",
              "type": "bool"
            }
          ],
          "internalType": "struct HONKMarketplace.Hero[]",
          "name": "",
          "type": "tuple[]"
        }
      ],
      "stateMutability": "view",
      "type": "function",
      "constant": true
    },
    {
      "inputs": [],
      "name": "getHONKTokenAddress",
      "outputs": [
        {
          "internalType": "address",
          "name": "",
          "type": "address"
        }
      ],
      "stateMutability": "view",
      "type": "function",
      "constant": true
    },
    {
      "inputs": [],
      "name": "getDFKHeroContractAddress",
      "outputs": [
        {
          "internalType": "address",
          "name": "",
          "type": "address"
        }
      ],
      "stateMutability": "view",
      "type": "function",
      "constant": true
    },
    {
      "inputs": [],
      "name": "paused",
      "outputs": [
        {
          "internalType": "bool",
          "name": "",
          "type": "bool"
        }
      ],
      "stateMutability": "view",
      "type": "function",
      "constant": true
    },
    {
      "inputs": [],
      "name": "getFeePercentage",
      "outputs": [
        {
          "internalType": "uint256",
          "name": "",
          "type": "uint256"
        }
      ],
      "stateMutability": "view",
      "type": "function",
      "constant": true
    }
  ],
  "bytecode": "0x608060405234801562000010575f80fd5b506200001b62000021565b620000d5565b7ff0c57e16840df040f15088dc2f81fe391c3923bec73e23a9662efc9c229c6a00805468010000000000000000900460ff1615620000725760405163f92ee8a960e01b815260040160405180910390fd5b80546001600160401b0390811614620000d25780546001600160401b0319166001600160401b0390811782556040519081527fc7f505b2f371ae2175ee4913f4499e1f2633a7b5936321eed1cdaeb6115181d29060200160405180910390a15b50565b6127fb80620000e35f395ff3fe608060405234801561000f575f80fd5b5060043610610228575f3560e01c8063715018a61161012a578063b0b0697b116100b4578063e74b981b11610079578063e74b981b1461050c578063e7f3a43f1461051f578063ecbfd3b91461052f578063f2fde38b14610538578063f850c85e1461054b575f80fd5b8063b0b0697b1461049c578063b3dc6238146104ae578063b6deca4e146104d0578063c0c53b8b146104e3578063e3577844146104f6575f80fd5b80638456cb59116100fa5780638456cb59146103f95780638da5cb5b146104015780638dc4e2f314610409578063a8d4a03b14610412578063a8d51cc61461047d575f80fd5b8063715018a6146103ac5780637b9f76b5146103b457806380f1a90c146103c757806382367b2d146103e6575f80fd5b80633d3f7f93116101b65780634b75e99e1161017b5780634b75e99e146103635780635069be101461036b5780635a1efd3b1461037e5780635c975abb146103915780635e318e0714610399575f80fd5b80633d3f7f93146103225780633f4ba83a14610335578063469048401461033d5780634a5bcbf8146103505780634a9a8f511461035a575f80fd5b806311efbf61116101fc57806311efbf61146102af57806321d80111146102b757806329a2677b146102d7578063305a67a8146102ea5780633446ddb6146102fd575f80fd5b80620b46f81461022c578063024edd7514610248578063060d7e171461025d5780630f6029191461028f575b5f80fd5b61023560035481565b6040519081526020015b60405180910390f35b61025b6102563660046121fc565b610554565b005b61027f61026b3660046121fc565b5f9081526009602052604090205460ff1690565b604051901515815260200161023f565b6102a261029d366004612213565b610b8c565b60405161023f919061229f565b600354610235565b6102ca6102c53660046121fc565b610d66565b60405161023f91906122b1565b61025b6102e5366004612213565b610dfd565b61025b6102f83660046121fc565b61101c565b6001546001600160a01b03165b6040516001600160a01b03909116815260200161023f565b60015461030a906001600160a01b031681565b61025b611105565b60025461030a906001600160a01b031681565b6102356202a30081565b61023560055481565b61025b611149565b61025b6103793660046121fc565b61125b565b61025b61038c3660046122e7565b6112ff565b61027f611429565b61025b6103a73660046121fc565b611447565b61025b6115b9565b61025b6103c236600461236a565b6115cc565b6102356103d53660046121fc565b5f9081526008602052604090205490565b61025b6103f4366004612213565b611681565b61025b6117a7565b61030a6117e3565b61023560045481565b6104536104203660046121fc565b60066020525f9081526040902080546001820154600283015460039093015491926001600160a01b039091169160ff1684565b604080519485526001600160a01b039093166020850152918301521515606082015260800161023f565b61023561048b3660046121fc565b60086020525f908152604090205481565b5f5461030a906001600160a01b031681565b61027f6104bc3660046121fc565b60096020525f908152604090205460ff1681565b6102a26104de3660046122e7565b611811565b61025b6104f13660046123a9565b611996565b6104fe611af7565b60405161023f9291906123e6565b61025b61051a366004612407565b611c2d565b5f546001600160a01b031661030a565b610235600a5481565b61025b610546366004612407565b611c9e565b61023560075481565b61055c611cd8565b610564611cfe565b5f81815260086020526040812054908190036105c75760405162461bcd60e51b815260206004820152601860248201527f4248313a204865726f20646f6573206e6f74206578697374000000000000000060448201526064015b60405180910390fd5b5f818152600660205260409020600381015460ff166106285760405162461bcd60e51b815260206004820152601960248201527f4248323a204865726f206973206e6f7420666f722073616c650000000000000060448201526064016105be565b60018101546001600160a01b031633036106845760405162461bcd60e51b815260206004820152601d60248201527f4248333a2043616e6e6f742062757920796f7572206f776e206865726f00000060448201526064016105be565b600281015460018201546003546001600160a01b03909116905f90612710906106ad9085612436565b6106b7919061244d565b90505f6106c4828561246c565b5f80546040516370a0823160e01b815233600482015292935090916001600160a01b03909116906370a0823190602401602060405180830381865afa15801561070f573d5f803e3d5ffd5b505050506040513d601f19601f82011682018060405250810190610733919061247f565b9050848110156107855760405162461bcd60e51b815260206004820152601e60248201527f4248343a20496e73756666696369656e7420484f4e4b2062616c616e6365000060448201526064016105be565b5f80546040516323b872dd60e01b81526001600160a01b03909116906323b872dd906107b990339089908890600401612496565b6020604051808303815f875af11580156107d5573d5f803e3d5ffd5b505050506040513d601f19601f820116820180604052508101906107f991906124ba565b9050806108575760405162461bcd60e51b815260206004820152602660248201527f4248363a204661696c656420746f207472616e7366657220484f4e4b20746f2060448201526539b2b63632b960d11b60648201526084016105be565b5f80546002546040516323b872dd60e01b81526001600160a01b03928316926323b872dd92610890923392909116908a90600401612496565b6020604051808303815f875af11580156108ac573d5f803e3d5ffd5b505050506040513d601f19601f820116820180604052508101906108d091906124ba565b90508061091f5760405162461bcd60e51b815260206004820152601b60248201527f4248373a204661696c656420746f207472616e7366657220666565000000000060448201526064016105be565b6001546040516331a9108f60e11b8152600481018c90525f916001600160a01b031690636352211e90602401602060405180830381865afa158015610966573d5f803e3d5ffd5b505050506040513d601f19601f8201168201806040525081019061098a91906124d9565b9050866001600160a01b0316816001600160a01b0316146109f95760405162461bcd60e51b815260206004820152602360248201527f4248383a2053656c6c6572206e6f206c6f6e676572206f776e7320746865206860448201526265726f60e81b60648201526084016105be565b60015f9054906101000a90046001600160a01b03166001600160a01b0316632374580f88338e6040518463ffffffff1660e01b8152600401610a3d93929190612496565b5f604051808303815f87803b158015610a54575f80fd5b505af1925050508015610a65575060015b610b1157610a716124f4565b806308c379a003610ac75750610a8561255a565b80610a905750610ac9565b80604051602001610aa19190612605565b60408051601f198184030181529082905262461bcd60e51b82526105be91600401612649565b505b60405162461bcd60e51b815260206004820152601a60248201527f424831303a204865726f207472616e73666572206661696c656400000000000060448201526064016105be565b610b1b8a8c611d35565b866001600160a01b0316336001600160a01b03168c7f3013dc6733adbe758a9409c4e37c338087f8fca873194173f3f05cc47dbd004b8b604051610b6191815260200190565b60405180910390a450505050505050505050610b8960015f805160206127a683398151915255565b50565b60606007548310610bd65760405162461bcd60e51b81526020600482015260146024820152734f6666736574206f7574206f6620626f756e647360601b60448201526064016105be565b5f80610be385600161267b565b90505b6007548111158015610bf757508382105b15610c35575f8181526006602052604090206003015460ff1615610c235781610c1f8161268e565b9250505b80610c2d8161268e565b915050610be6565b505f8167ffffffffffffffff811115610c5057610c5061250d565b604051908082528060200260200182016040528015610c8957816020015b610c766121cd565b815260200190600190039081610c6e5790505b5090505f80610c9987600161267b565b90505b6007548111158015610cad57508382105b15610d59575f8181526006602052604090206003015460ff1615610d47575f8181526006602090815260409182902082516080810184528154815260018201546001600160a01b03169281019290925260028101549282019290925260039091015460ff16151560608201528351849084908110610d2d57610d2d6126a6565b60200260200101819052508180610d439061268e565b9250505b80610d518161268e565b915050610c9c565b5090925050505b92915050565b610d6e6121cd565b5f8281526008602052604081205490819003610da9575050604080516080810182529182525f60208301819052908201819052606082015290565b5f9081526006602090815260409182902082516080810184528154815260018201546001600160a01b03169281019290925260028101549282019290925260039091015460ff161515606082015292915050565b610e05611cd8565b610e0d611cfe565b5f8111610e5c5760405162461bcd60e51b815260206004820152601f60248201527f5072696365206d7573742062652067726561746572207468616e207a65726f0060448201526064016105be565b6001546040516331a9108f60e11b81526004810184905233916001600160a01b031690636352211e90602401602060405180830381865afa158015610ea3573d5f803e3d5ffd5b505050506040513d601f19601f82011682018060405250810190610ec791906124d9565b6001600160a01b031614610eed5760405162461bcd60e51b81526004016105be906126ba565b5f8281526008602052604081205490819003610f2d5760078054905f610f128361268e565b90915550506007545f84815260086020526040902081905590505b604080516080810182528481523360208083019182528284018681526001606085018181525f8881526006855287812096518755945186830180546001600160a01b03929092166001600160a01b03199092169190911790559151600286015590516003909401805494151560ff19958616179055878352600990915292812080549092169092179055600a805491610fc58361268e565b9091555050604051828152339084907f27bae1fb91b142a2956e7482d5370a469a66deae9cc45d8b0ec35067a54a18ad9060200160405180910390a35061101860015f805160206127a683398151915255565b5050565b611024611cd8565b61102c611cfe565b5f818152600860205260408120549081900361105a5760405162461bcd60e51b81526004016105be906126f1565b5f81815260066020526040902060018101546001600160a01b031633146110935760405162461bcd60e51b81526004016105be906126ba565b600381015460ff166110b75760405162461bcd60e51b81526004016105be9061271e565b6110c18284611d35565b604051339084907f1469c95e6068560d203e991d0ed20ae615cc13b5ed0642628ff399a2f73db8ae905f90a35050610b8960015f805160206127a683398151915255565b61110d611dd1565b611115611e03565b61111d611e28565b60405133907f385a28cf4754bd62fde01bcce82b673bd45cb357f835cf679a756de5d8e93bcd905f90a2565b611151611dd1565b611159611cd8565b6005545f036111a35760405162461bcd60e51b8152602060048201526016602482015275139bc8199959481d5c19185d19481c1c9bdc1bdcd95960521b60448201526064016105be565b6202a3006005546111b4919061267b565b4210156112035760405162461bcd60e51b815260206004820152601c60248201527f54696d652d6c6f636b20706572696f64206e6f7420656c61707365640000000060448201526064016105be565b6003805460048054928390555f9081905560055560405190917f9cd93e7936e2206d443e2248d41bf1cd23257c6ed7599a39c7495ac35166e9529161125091848252602082015260400190565b60405180910390a150565b611263611dd1565b61126b611cd8565b6103e88111156112bd5760405162461bcd60e51b815260206004820181905260248201527f4665652070657263656e746167652063616e6e6f74206578636565642031302560448201526064016105be565b60048190554260058190556040805183815260208101929092527fb4ff980088459cdfa5175c4296e7f1ec737c111006bec9c166c3e99bcecb43c79101611250565b611307611cd8565b61130f611cfe565b5f5b81811015611412575f83838381811061132c5761132c6126a6565b9050602002013590505f60085f8381526020019081526020015f20549050805f036113695760405162461bcd60e51b81526004016105be906126f1565b5f81815260066020526040902060018101546001600160a01b031633146113a25760405162461bcd60e51b81526004016105be906126ba565b600381015460ff166113c65760405162461bcd60e51b81526004016105be9061271e565b6113d08284611d35565b604051339084907f1469c95e6068560d203e991d0ed20ae615cc13b5ed0642628ff399a2f73db8ae905f90a3505050808061140a9061268e565b915050611311565b5061101860015f805160206127a683398151915255565b5f6114425f805160206127868339815191525460ff1690565b905090565b61144f611dd1565b611457611cd8565b5f81116114a65760405162461bcd60e51b815260206004820181905260248201527f416d6f756e74206d7573742062652067726561746572207468616e207a65726f60448201526064016105be565b5f546040516370a0823160e01b81523060048201526001600160a01b03909116906370a0823190602401602060405180830381865afa1580156114eb573d5f803e3d5ffd5b505050506040513d601f19601f8201168201806040525081019061150f919061247f565b8111156115555760405162461bcd60e51b8152602060048201526014602482015273496e73756666696369656e742062616c616e636560601b60448201526064016105be565b6115726115606117e3565b5f546001600160a01b03169083611e81565b7feaff4b37086828766ad3268786972c0cd24259d4c87a80f9d3963a3c3d999b0d61159b6117e3565b604080516001600160a01b0390921682526020820184905201611250565b6115c1611dd1565b6115ca5f611ed8565b565b6115d4611dd1565b604051632142170760e11b81526001600160a01b038416906342842e0e9061160490309085908790600401612496565b5f604051808303815f87803b15801561161b575f80fd5b505af115801561162d573d5f803e3d5ffd5b5050604080516001600160a01b0387811682526020820187905285168183015290517f97ec6c660323ba25a6bceaeb7ce3c0cbf2fd077f7219746ea60497ec6e43f4fd9350908190036060019150a1505050565b611689611cd8565b5f82815260086020526040812054908190036116b75760405162461bcd60e51b81526004016105be906126f1565b5f81815260066020526040902060018101546001600160a01b031633146116f05760405162461bcd60e51b81526004016105be906126ba565b600381015460ff166117145760405162461bcd60e51b81526004016105be9061271e565b5f83116117635760405162461bcd60e51b815260206004820152601f60248201527f5072696365206d7573742062652067726561746572207468616e207a65726f0060448201526064016105be565b60028101839055604051838152339085907fbbb7facdaaf76bceacc911e979955e190cde2d26dcdbc7dd10a966d9728487ae9060200160405180910390a350505050565b6117af611dd1565b6117b7611f48565b60405133907f720419d686e04979382078792dce127b7417b1f1b934573e9ae7a7d40eb86e87905f90a2565b7f9016d09d72d40fdae2fd8ceac6b6234c7706214fd39c1cd1e609a0528c199300546001600160a01b031690565b60605f8267ffffffffffffffff81111561182d5761182d61250d565b60405190808252806020026020018201604052801561186657816020015b6118536121cd565b81526020019060019003908161184b5790505b5090505f5b8381101561198e575f60085f878785818110611889576118896126a6565b9050602002013581526020019081526020015f20549050805f14611919575f8181526006602090815260409182902082516080810184528154815260018201546001600160a01b03169281019290925260028101549282019290925260039091015460ff16151560608201528351849084908110611909576119096126a6565b602002602001018190525061197b565b6040518060800160405280878785818110611936576119366126a6565b9050602002013581526020015f6001600160a01b031681526020015f81526020015f151581525083838151811061196f5761196f6126a6565b60200260200101819052505b50806119868161268e565b91505061186b565b509392505050565b7ff0c57e16840df040f15088dc2f81fe391c3923bec73e23a9662efc9c229c6a008054600160401b810460ff16159067ffffffffffffffff165f811580156119db5750825b90505f8267ffffffffffffffff1660011480156119f75750303b155b905081158015611a05575080155b15611a235760405163f92ee8a960e01b815260040160405180910390fd5b845467ffffffffffffffff191660011785558315611a4d57845460ff60401b1916600160401b1785555b611a5633611f90565b611a5e611fa1565b611a66611fb1565b5f80546001600160a01b03808b166001600160a01b031992831617909255600180548a8416908316179055600280549289169290911691909117905560646003558315611aed57845460ff60401b19168555604051600181527fc7f505b2f371ae2175ee4913f4499e1f2633a7b5936321eed1cdaeb6115181d29060200160405180910390a15b5050505050505050565b60605f80600a5467ffffffffffffffff811115611b1657611b1661250d565b604051908082528060200260200182016040528015611b4f57816020015b611b3c6121cd565b815260200190600190039081611b345790505b5090505f60015b6007548111158015611b695750600a5482105b15611c1f575f818152600660209081526040808320548352600990915290205460ff1615611c0d575f8181526006602090815260409182902082516080810184528154815260018201546001600160a01b03169281019290925260028101549282019290925260039091015460ff16151560608201528351849084908110611bf357611bf36126a6565b60200260200101819052508180611c099061268e565b9250505b80611c178161268e565b915050611b56565b505060075490939092509050565b611c35611dd1565b611c3d611cd8565b600280546001600160a01b038381166001600160a01b031983168117909355604080519190921680825260208201939093527faaebcf1bfa00580e41d966056b48521fa9f202645c86d4ddf28113e617c1b1d3910160405180910390a15050565b611ca6611dd1565b6001600160a01b038116611ccf57604051631e4fbdf760e01b81525f60048201526024016105be565b610b8981611ed8565b611ce0611429565b156115ca5760405163d93c066560e01b815260040160405180910390fd5b5f805160206127a6833981519152805460011901611d2f57604051633ee5aeb560e01b815260040160405180910390fd5b60029055565b5f8281526006602090815260408083208381556001810180546001600160a01b031916905560028101849055600301805460ff19908116909155848452600883528184208490556009909252822080549091169055600a805491611d9883612755565b919050555060075482036110185760078054905f611db583612755565b91905055505050565b60015f805160206127a683398151915255565b33611dda6117e3565b6001600160a01b0316146115ca5760405163118cdaa760e01b81523360048201526024016105be565b611e0b611429565b6115ca57604051638dfc202b60e01b815260040160405180910390fd5b611e30611e03565b5f80516020612786833981519152805460ff191681557f5db9ee0a495bf2e6ff9c91a7834c1ba4fdd244a5e8aa4e537bd38aeae4b073aa335b6040516001600160a01b039091168152602001611250565b604080516001600160a01b038416602482015260448082018490528251808303909101815260649091019091526020810180516001600160e01b031663a9059cbb60e01b179052611ed3908490611fc1565b505050565b7f9016d09d72d40fdae2fd8ceac6b6234c7706214fd39c1cd1e609a0528c19930080546001600160a01b031981166001600160a01b03848116918217845560405192169182907f8be0079c531659141344cd1fd0a4f28419497f9722a3daafe3b4186f6b6457e0905f90a3505050565b611f50611cd8565b5f80516020612786833981519152805460ff191660011781557f62e78cea01bee320cd4e420270b5ea74000d11b0c9f74754ebdbfc544b05a25833611e69565b611f98612022565b610b898161206b565b611fa9612022565b6115ca612073565b611fb9612022565b6115ca61207b565b5f611fd56001600160a01b0384168361209b565b905080515f14158015611ff9575080806020019051810190611ff791906124ba565b155b15611ed357604051635274afe760e01b81526001600160a01b03841660048201526024016105be565b7ff0c57e16840df040f15088dc2f81fe391c3923bec73e23a9662efc9c229c6a0054600160401b900460ff166115ca57604051631afcd79f60e31b815260040160405180910390fd5b611ca6612022565b611dbe612022565b612083612022565b5f80516020612786833981519152805460ff19169055565b60606120a883835f6120af565b9392505050565b6060814710156120d45760405163cd78605960e01b81523060048201526024016105be565b5f80856001600160a01b031684866040516120ef919061276a565b5f6040518083038185875af1925050503d805f8114612129576040519150601f19603f3d011682016040523d82523d5f602084013e61212e565b606091505b509150915061213e868383612148565b9695505050505050565b60608261215d57612158826121a4565b6120a8565b815115801561217457506001600160a01b0384163b155b1561219d57604051639996b31560e01b81526001600160a01b03851660048201526024016105be565b50806120a8565b8051156121b45780518082602001fd5b604051630a12f52160e11b815260040160405180910390fd5b60405180608001604052805f81526020015f6001600160a01b031681526020015f81526020015f151581525090565b5f6020828403121561220c575f80fd5b5035919050565b5f8060408385031215612224575f80fd5b50508035926020909101359150565b5f8151808452602080850194508084015f5b8381101561229457612281878351805182526020808201516001600160a01b031690830152604080820151908301526060908101511515910152565b6080969096019590820190600101612245565b509495945050505050565b602081525f6120a86020830184612233565b815181526020808301516001600160a01b0316908201526040808301519082015260608083015115159082015260808101610d60565b5f80602083850312156122f8575f80fd5b823567ffffffffffffffff8082111561230f575f80fd5b818501915085601f830112612322575f80fd5b813581811115612330575f80fd5b8660208260051b8501011115612344575f80fd5b60209290920196919550909350505050565b6001600160a01b0381168114610b89575f80fd5b5f805f6060848603121561237c575f80fd5b833561238781612356565b925060208401359150604084013561239e81612356565b809150509250925092565b5f805f606084860312156123bb575f80fd5b83356123c681612356565b925060208401356123d681612356565b9150604084013561239e81612356565b604081525f6123f86040830185612233565b90508260208301529392505050565b5f60208284031215612417575f80fd5b81356120a881612356565b634e487b7160e01b5f52601160045260245ffd5b8082028115828204841417610d6057610d60612422565b5f8261246757634e487b7160e01b5f52601260045260245ffd5b500490565b81810381811115610d6057610d60612422565b5f6020828403121561248f575f80fd5b5051919050565b6001600160a01b039384168152919092166020820152604081019190915260600190565b5f602082840312156124ca575f80fd5b815180151581146120a8575f80fd5b5f602082840312156124e9575f80fd5b81516120a881612356565b5f60033d111561250a5760045f803e505f5160e01c5b90565b634e487b7160e01b5f52604160045260245ffd5b601f8201601f1916810167ffffffffffffffff8111828210171561255357634e487b7160e01b5f52604160045260245ffd5b6040525050565b5f60443d10156125675790565b6040516003193d81016004833e81513d67ffffffffffffffff816024840111818411171561259757505050505090565b82850191508151818111156125af5750505050505090565b843d87010160208285010111156125c95750505050505090565b6125d860208286010187612521565b509095945050505050565b5f5b838110156125fd5781810151838201526020016125e5565b50505f910152565b7f4248393a204865726f207472616e73666572206661696c65643a20000000000081525f825161263c81601b8501602087016125e3565b91909101601b0192915050565b602081525f82518060208401526126678160408501602087016125e3565b601f01601f19169190910160400192915050565b80820180821115610d6057610d60612422565b5f6001820161269f5761269f612422565b5060010190565b634e487b7160e01b5f52603260045260245ffd5b60208082526017908201527f596f7520646f6e2774206f776e2074686973206865726f000000000000000000604082015260600190565b60208082526013908201527212195c9bc8191bd95cc81b9bdd08195e1a5cdd606a1b604082015260600190565b6020808252601b908201527f4865726f206973206e6f74206c697374656420666f722073616c650000000000604082015260600190565b5f8161276357612763612422565b505f190190565b5f825161277b8184602087016125e3565b919091019291505056fecd5ed15c6e187e77e9aee88184c21f4f2182ab5827cb3b7e07fbedcd63f033009b779b17422d0df92223018b32b4d1fa46e071723d6817e2486d003becc55f00a264697066735822122033628ec57ca4fda51039971d28a4790e315eadddadcdabf11b34c79a193c09ca64736f6c63430008140033",
  "immutableReferences": {},
  "source": "// SPDX-License-Identifier: MIT\r\npragma solidity ^0.8.0;\r\n\r\nimport \"@openzeppelin/contracts/token/ERC20/IERC20.sol\";\r\nimport \"@openzeppelin/contracts/token/ERC20/utils/SafeERC20.sol\";\r\nimport \"@openzeppelin/contracts/token/ERC721/IERC721.sol\";\r\nimport \"@openzeppelin/contracts-upgradeable/access/OwnableUpgradeable.sol\";\r\nimport \"@openzeppelin/contracts-upgradeable/utils/ReentrancyGuardUpgradeable.sol\";\r\nimport \"@openzeppelin/contracts-upgradeable/proxy/utils/Initializable.sol\";\r\nimport \"@openzeppelin/contracts-upgradeable/utils/PausableUpgradeable.sol\";\r\n\r\n/// @title IHeroCoreDiamond\r\n/// @notice Interface for the DFK Hero Core Diamond contract\r\ninterface IHeroCoreDiamond is IERC721 {\r\n    function transferHeroAndEquipmentFrom(address _from, address _newOwner, uint256 _heroId) external;\r\n}\r\n\r\n/// @title HONKMarketplace\r\n/// @notice A marketplace contract for trading DFK Heroes using HONK tokens\r\ncontract HONKMarketplace is Initializable, OwnableUpgradeable, ReentrancyGuardUpgradeable, PausableUpgradeable {\r\n    using SafeERC20 for IERC20;\r\n\r\n    IERC20 public honkToken;\r\n    IHeroCoreDiamond public dfkHeroContract;\r\n\r\n    address public feeRecipient;\r\n    uint256 public FEE_PERCENTAGE;\r\n\r\n    // Time-lock related variables\r\n    uint256 public constant TIMELOCK_PERIOD = 2 days;\r\n    uint256 public proposedFeePercentage;\r\n    uint256 public proposedFeePercentageTimestamp;\r\n\r\n    /// @notice Structure to represent a hero in the marketplace\r\n    struct Hero {\r\n        uint256 id;\r\n        address owner;\r\n        uint256 price;\r\n        bool isForSale;\r\n    }\r\n\r\n    mapping(uint256 => Hero) public heroes;\r\n    uint256 public heroCount;\r\n    mapping(uint256 => uint256) public heroIdToIndex;\r\n    mapping(uint256 => bool) public isHeroListed;\r\n    uint256 public listedHeroCount;\r\n\r\n    /// @notice Emitted when a hero is listed for sale\r\n    event HeroListed(uint256 indexed heroId, address indexed seller, uint256 price);\r\n    /// @notice Emitted when a hero is purchased\r\n    event HeroPurchased(uint256 indexed heroId, address indexed buyer, address indexed seller, uint256 price);\r\n    /// @notice Emitted when a hero listing is cancelled\r\n    event HeroUnlisted(uint256 indexed heroId, address indexed seller);\r\n    /// @notice Emitted when a hero's price is updated\r\n    event HeroPriceUpdated(uint256 indexed heroId, address indexed seller, uint256 newPrice);\r\n    /// @notice Emitted when the marketplace is paused\r\n    event MarketplacePaused(address indexed by);\r\n    /// @notice Emitted when the marketplace is unpaused\r\n    event MarketplaceUnpaused(address indexed by);\r\n    /// @notice Emitted when the fee percentage is updated\r\n    event FeePercentageUpdated(uint256 oldPercentage, uint256 newPercentage);\r\n    /// @notice Emitted when the fee recipient is updated\r\n    event FeeRecipientUpdated(address oldRecipient, address newRecipient);\r\n    /// @notice Emitted when a new fee percentage is proposed\r\n    event FeePercentageProposed(uint256 proposedPercentage, uint256 timestamp);\r\n    /// @notice Emitted when a proposed fee percentage is executed\r\n    event FeePercentageExecuted(uint256 oldPercentage, uint256 newPercentage);\r\n    /// @notice Emitted when funds are withdrawn by the owner\r\n    event FundsWithdrawn(address recipient, uint256 amount);\r\n    /// @notice Emitted when an ERC721 token is withdrawn by the owner\r\n    event ERC721Withdrawn(address token, uint256 tokenId, address recipient);\r\n\r\n    /// @custom:oz-upgrades-unsafe-allow constructor\r\n    constructor() {\r\n        _disableInitializers();\r\n    }\r\n\r\n    /// @notice Initializes the marketplace\r\n    /// @param _honkToken The address of the HONK token contract\r\n    /// @param _dfkHeroContract The address of the DFK hero contract\r\n    /// @param _feeRecipient The address that will receive marketplace fees\r\n    function initialize(address _honkToken, address _dfkHeroContract, address _feeRecipient) public initializer {\r\n        __Ownable_init(msg.sender);\r\n        __ReentrancyGuard_init();\r\n        __Pausable_init();\r\n        \r\n        honkToken = IERC20(_honkToken);\r\n        dfkHeroContract = IHeroCoreDiamond(_dfkHeroContract);\r\n        feeRecipient = _feeRecipient;\r\n        FEE_PERCENTAGE = 100; // 1% fee (100 / 10000)\r\n    }\r\n\r\n    /// @notice Sets a new fee recipient address\r\n    /// @param _newFeeRecipient The new address to receive marketplace fees\r\n    function setFeeRecipient(address _newFeeRecipient) external onlyOwner whenNotPaused {\r\n        address oldRecipient = feeRecipient;\r\n        feeRecipient = _newFeeRecipient;\r\n        emit FeeRecipientUpdated(oldRecipient, _newFeeRecipient);\r\n    }\r\n\r\n    /// @notice Pauses the marketplace\r\n    function pause() external onlyOwner {\r\n        _pause();\r\n        emit MarketplacePaused(msg.sender);\r\n    }\r\n\r\n    /// @notice Unpauses the marketplace\r\n    function unpause() external onlyOwner whenPaused {\r\n        _unpause();\r\n        emit MarketplaceUnpaused(msg.sender);\r\n    }\r\n\r\n    /// @notice Proposes a new fee percentage\r\n    /// @param _newFeePercentage The proposed new fee percentage (in basis points, e.g., 100 = 1%)\r\n    function proposeFeePercentage(uint256 _newFeePercentage) external onlyOwner whenNotPaused {\r\n        require(_newFeePercentage <= 1000, \"Fee percentage cannot exceed 10%\");\r\n        proposedFeePercentage = _newFeePercentage;\r\n        proposedFeePercentageTimestamp = block.timestamp;\r\n        emit FeePercentageProposed(_newFeePercentage, block.timestamp);\r\n    }\r\n\r\n    /// @notice Executes the proposed fee percentage change after the time-lock period\r\n    function executeFeePercentageUpdate() external onlyOwner whenNotPaused {\r\n        require(proposedFeePercentageTimestamp != 0, \"No fee update proposed\");\r\n        require(block.timestamp >= proposedFeePercentageTimestamp + TIMELOCK_PERIOD, \"Time-lock period not elapsed\");\r\n        \r\n        uint256 oldFeePercentage = FEE_PERCENTAGE;\r\n        FEE_PERCENTAGE = proposedFeePercentage;\r\n        \r\n        // Reset the proposal\r\n        proposedFeePercentage = 0;\r\n        proposedFeePercentageTimestamp = 0;\r\n        \r\n        emit FeePercentageExecuted(oldFeePercentage, FEE_PERCENTAGE);\r\n    }\r\n\r\n    /// @notice Allows the owner to withdraw accumulated fees\r\n    /// @param _amount The amount of HONK tokens to withdraw\r\n    function withdrawFees(uint256 _amount) external onlyOwner whenNotPaused {\r\n        require(_amount > 0, \"Amount must be greater than zero\");\r\n        require(_amount <= honkToken.balanceOf(address(this)), \"Insufficient balance\");\r\n        \r\n        honkToken.safeTransfer(owner(), _amount);\r\n        emit FundsWithdrawn(owner(), _amount);\r\n    }\r\n\r\n    /// @notice Allows the owner to withdraw any ERC721 tokens accidentally sent to the contract\r\n    /// @param _token The address of the ERC721 token contract\r\n    /// @param _tokenId The ID of the token to withdraw\r\n    /// @param _recipient The address to send the token to\r\n    function withdrawERC721(address _token, uint256 _tokenId, address _recipient) external onlyOwner {\r\n        IERC721(_token).safeTransferFrom(address(this), _recipient, _tokenId);\r\n        emit ERC721Withdrawn(_token, _tokenId, _recipient);\r\n    }\r\n\r\n    /// @notice Checks if a hero is currently listed for sale\r\n    /// @param _heroId The ID of the hero to check\r\n    /// @return bool True if the hero is listed, false otherwise\r\n    function checkIfHeroIsListed(uint256 _heroId) public view returns (bool) {\r\n        return isHeroListed[_heroId];\r\n    }\r\n\r\n    /// @notice Lists a hero for sale in the marketplace\r\n    /// @param _heroId The ID of the hero to be listed\r\n    /// @param _price The price in HONK tokens for which the hero is being listed\r\n    /// @dev This function can only be called by the owner of the hero\r\n    function listHero(uint256 _heroId, uint256 _price) external whenNotPaused nonReentrant {\r\n        require(_price > 0, \"Price must be greater than zero\");\r\n        require(dfkHeroContract.ownerOf(_heroId) == msg.sender, \"You don't own this hero\");\r\n\r\n        uint256 index = heroIdToIndex[_heroId];\r\n        if (index == 0) {\r\n            heroCount++;\r\n            index = heroCount;\r\n            heroIdToIndex[_heroId] = index;\r\n        }\r\n\r\n        heroes[index] = Hero(_heroId, msg.sender, _price, true);\r\n        isHeroListed[_heroId] = true;\r\n        listedHeroCount++;\r\n\r\n        emit HeroListed(_heroId, msg.sender, _price);\r\n    }\r\n\r\n    /// @notice Cancels the listing of a hero\r\n    /// @param _heroId The ID of the hero to unlist\r\n    /// @dev This function can only be called by the owner of the hero\r\n    function cancelListing(uint256 _heroId) external whenNotPaused nonReentrant {\r\n        uint256 index = heroIdToIndex[_heroId];\r\n        require(index != 0, \"Hero does not exist\");\r\n        Hero storage hero = heroes[index];\r\n        require(hero.owner == msg.sender, \"You don't own this hero\");\r\n        require(hero.isForSale, \"Hero is not listed for sale\");\r\n\r\n        _removeHeroFromMarketplace(index, _heroId);\r\n\r\n        emit HeroUnlisted(_heroId, msg.sender);\r\n    }\r\n\r\n    /// @notice Bulk cancels the listings of multiple heroes\r\n    /// @param _heroIds An array of hero IDs to unlist\r\n    /// @dev This function can only be called by the owner of the heroes\r\n    function bulkCancelListings(uint256[] calldata _heroIds) external whenNotPaused nonReentrant {\r\n        for (uint256 i = 0; i < _heroIds.length; i++) {\r\n            uint256 heroId = _heroIds[i];\r\n            uint256 index = heroIdToIndex[heroId];\r\n            require(index != 0, \"Hero does not exist\");\r\n            Hero storage hero = heroes[index];\r\n            require(hero.owner == msg.sender, \"You don't own this hero\");\r\n            require(hero.isForSale, \"Hero is not listed for sale\");\r\n\r\n            _removeHeroFromMarketplace(index, heroId);\r\n\r\n            emit HeroUnlisted(heroId, msg.sender);\r\n        }\r\n    }\r\n\r\n    /// @notice Updates the price of a listed hero\r\n    /// @param _heroId The ID of the hero\r\n    /// @param _newPrice The new price in HONK tokens\r\n    /// @dev Only the owner of the hero can update its price\r\n    function updatePrice(uint256 _heroId, uint256 _newPrice) external whenNotPaused {\r\n        uint256 index = heroIdToIndex[_heroId];\r\n        require(index != 0, \"Hero does not exist\");\r\n        Hero storage hero = heroes[index];\r\n        require(hero.owner == msg.sender, \"You don't own this hero\");\r\n        require(hero.isForSale, \"Hero is not listed for sale\");\r\n        require(_newPrice > 0, \"Price must be greater than zero\");\r\n\r\n        hero.price = _newPrice;\r\n\r\n        emit HeroPriceUpdated(_heroId, msg.sender, _newPrice);\r\n    }\r\n\r\n    /// @notice Allows a user to purchase a listed hero\r\n    /// @param heroId The ID of the hero to be purchased\r\n    /// @dev This function handles the transfer of HONK tokens and the hero NFT\r\n    function buyHero(uint256 heroId) external whenNotPaused nonReentrant {\r\n        uint256 index = heroIdToIndex[heroId];\r\n        require(index != 0, \"BH1: Hero does not exist\");\r\n        Hero storage hero = heroes[index];\r\n        require(hero.isForSale, \"BH2: Hero is not for sale\");\r\n        require(msg.sender != hero.owner, \"BH3: Cannot buy your own hero\");\r\n\r\n        uint256 price = hero.price;\r\n        address seller = hero.owner;\r\n\r\n        uint256 fee = (price * FEE_PERCENTAGE) / 10000;\r\n        uint256 sellerAmount = price - fee;\r\n\r\n        uint256 buyerBalance = honkToken.balanceOf(msg.sender);\r\n        require(buyerBalance >= price, \"BH4: Insufficient HONK balance\");\r\n\r\n        // Transfer HONK tokens\r\n        bool transferToSellerSuccess = honkToken.transferFrom(msg.sender, seller, sellerAmount);\r\n        require(transferToSellerSuccess, \"BH6: Failed to transfer HONK to seller\");\r\n\r\n        bool transferFeeSuccess = honkToken.transferFrom(msg.sender, feeRecipient, fee);\r\n        require(transferFeeSuccess, \"BH7: Failed to transfer fee\");\r\n\r\n        // Transfer the hero\r\n        address currentOwner = dfkHeroContract.ownerOf(heroId);\r\n        require(currentOwner == seller, \"BH8: Seller no longer owns the hero\");\r\n        \r\n        try dfkHeroContract.transferHeroAndEquipmentFrom(seller, msg.sender, heroId) {\r\n        } catch Error(string memory reason) {\r\n            revert(string(abi.encodePacked(\"BH9: Hero transfer failed: \", reason)));\r\n        } catch {\r\n            revert(\"BH10: Hero transfer failed\");\r\n        }\r\n\r\n        _removeHeroFromMarketplace(index, heroId);\r\n\r\n        emit HeroPurchased(heroId, msg.sender, seller, price);\r\n    }\r\n\r\n    /// @notice Removes a hero from the marketplace\r\n    /// @dev This function should be called when a hero is sold or its listing is cancelled\r\n    /// @param index The index of the hero in the heroes mapping\r\n    /// @param heroId The ID of the hero to be removed\r\n    function _removeHeroFromMarketplace(uint256 index, uint256 heroId) private {\r\n        delete heroes[index];\r\n        delete heroIdToIndex[heroId];\r\n        isHeroListed[heroId] = false;\r\n        listedHeroCount--;\r\n        // If this was the last hero, reduce heroCount\r\n        if (index == heroCount) {\r\n            heroCount--;\r\n        }\r\n    }\r\n\r\n    /// @notice Retrieves the details of a specific hero\r\n    /// @param _heroId The ID of the hero\r\n    /// @return Hero The hero details\r\n    function getHero(uint256 _heroId) external view returns (Hero memory) {\r\n        uint256 index = heroIdToIndex[_heroId];\r\n        if (index == 0) {\r\n            return Hero(_heroId, address(0), 0, false);\r\n        }\r\n        return heroes[index];\r\n    }\r\n\r\n    /// @notice Gets the index of a hero in the heroes mapping\r\n    /// @param _heroId The ID of the hero\r\n    /// @return uint256 The index of the hero\r\n    function getHeroIndex(uint256 _heroId) external view returns (uint256) {\r\n        return heroIdToIndex[_heroId];\r\n    }\r\n\r\n    /// @notice Retrieves all listed heroes\r\n    /// @return Hero[] An array of all listed heroes\r\n    /// @return uint256 The total number of heroes in the marketplace\r\n    function getListedHeroes() external view returns (Hero[] memory, uint256) {\r\n        Hero[] memory listedHeroes = new Hero[](listedHeroCount);\r\n        uint256 index = 0;\r\n\r\n        for (uint256 i = 1; i <= heroCount && index < listedHeroCount; i++) {\r\n            if (isHeroListed[heroes[i].id]) {\r\n                listedHeroes[index] = heroes[i];\r\n                index++;\r\n            }\r\n        }\r\n\r\n        return (listedHeroes, heroCount);\r\n    }\r\n\r\n    /// @notice Retrieves a paginated list of listed heroes\r\n    /// @param _offset The starting index for pagination\r\n    /// @param _limit The maximum number of heroes to retrieve\r\n    /// @return Hero[] An array of listed heroes\r\n    function getListedHeroesPaginated(uint256 _offset, uint256 _limit) external view returns (Hero[] memory) {\r\n        require(_offset < heroCount, \"Offset out of bounds\");\r\n\r\n        uint256 resultCount = 0;\r\n        for (uint256 i = _offset + 1; i <= heroCount && resultCount < _limit; i++) {\r\n            if (heroes[i].isForSale) {\r\n                resultCount++;\r\n            }\r\n        }\r\n\r\n        Hero[] memory result = new Hero[](resultCount);\r\n        uint256 index = 0;\r\n        for (uint256 i = _offset + 1; i <= heroCount && index < resultCount; i++) {\r\n            if (heroes[i].isForSale) {\r\n                result[index] = heroes[i];\r\n                index++;\r\n            }\r\n        }\r\n\r\n        return result;\r\n    }\r\n\r\n    /// @notice Retrieves multiple heroes by their IDs\r\n    /// @param _heroIds An array of hero IDs\r\n    /// @return Hero[] An array of heroes corresponding to the provided IDs\r\n    function getMultipleHeroes(uint256[] calldata _heroIds) external view returns (Hero[] memory) {\r\n        Hero[] memory result = new Hero[](_heroIds.length);\r\n        for (uint256 i = 0; i < _heroIds.length; i++) {\r\n            uint256 index = heroIdToIndex[_heroIds[i]];\r\n            if (index != 0) {\r\n                result[i] = heroes[index];\r\n            } else {\r\n                result[i] = Hero(_heroIds[i], address(0), 0, false);\r\n            }\r\n        }\r\n        return result;\r\n    }\r\n\r\n    /// @notice Retrieves the address of the HONK token contract\r\n    /// @return address The address of the HONK token contract\r\n    function getHONKTokenAddress() public view returns (address) {\r\n        return address(honkToken);\r\n    }\r\n\r\n    /// @notice Retrieves the address of the DFK hero contract\r\n    /// @return address The address of the DFK hero contract\r\n    function getDFKHeroContractAddress() public view returns (address) {\r\n        return address(dfkHeroContract);\r\n    }\r\n\r\n    /// @notice Returns true if the contract is paused, and false otherwise\r\n    /// @return bool The current pause state of the contract\r\n    function paused() public view virtual override returns (bool) {\r\n        return super.paused();\r\n    }\r\n\r\n\r\n    /// @notice Gets the current fee percentage\r\n    /// @return The fee percentage in basis points (e.g., 100 = 1%)\r\n    function getFeePercentage() public view returns (uint256) {\r\n        return FEE_PERCENTAGE;\r\n    }\r\n}",
  "sourcePath": "C:\\Users\\Yin\\Documents\\vsprojects\\hero-marketplace-ui\\contracts\\HONKMarketplace.sol",
  "compiler": {
    "name": "solc",
    "version": "0.8.20+commit.a1b79de6.Emscripten.clang"
  },
  "schemaVersion": "3.4.16",
  "updatedAt": "2024-09-17T20:46:14.852Z",
  "networkType": "ethereum",
  "devdoc": {
    "errors": {
      "AddressEmptyCode(address)": [
        {
          "details": "There's no code at `target` (it is not a contract)."
        }
      ],
      "AddressInsufficientBalance(address)": [
        {
          "details": "The ETH balance of the account is not enough to perform the operation."
        }
      ],
      "EnforcedPause()": [
        {
          "details": "The operation failed because the contract is paused."
        }
      ],
      "ExpectedPause()": [
        {
          "details": "The operation failed because the contract is not paused."
        }
      ],
      "FailedInnerCall()": [
        {
          "details": "A call to an address target failed. The target may have reverted."
        }
      ],
      "InvalidInitialization()": [
        {
          "details": "The contract is already initialized."
        }
      ],
      "NotInitializing()": [
        {
          "details": "The contract is not initializing."
        }
      ],
      "OwnableInvalidOwner(address)": [
        {
          "details": "The owner is not a valid owner account. (eg. `address(0)`)"
        }
      ],
      "OwnableUnauthorizedAccount(address)": [
        {
          "details": "The caller account is not authorized to perform an operation."
        }
      ],
      "ReentrancyGuardReentrantCall()": [
        {
          "details": "Unauthorized reentrant call."
        }
      ],
      "SafeERC20FailedOperation(address)": [
        {
          "details": "An operation with an ERC20 token failed."
        }
      ]
    },
    "events": {
      "Initialized(uint64)": {
        "details": "Triggered when the contract has been initialized or reinitialized."
      },
      "Paused(address)": {
        "details": "Emitted when the pause is triggered by `account`."
      },
      "Unpaused(address)": {
        "details": "Emitted when the pause is lifted by `account`."
      }
    },
    "kind": "dev",
    "methods": {
      "bulkCancelListings(uint256[])": {
        "details": "This function can only be called by the owner of the heroes",
        "params": {
          "_heroIds": "An array of hero IDs to unlist"
        }
      },
      "buyHero(uint256)": {
        "details": "This function handles the transfer of HONK tokens and the hero NFT",
        "params": {
          "heroId": "The ID of the hero to be purchased"
        }
      },
      "cancelListing(uint256)": {
        "details": "This function can only be called by the owner of the hero",
        "params": {
          "_heroId": "The ID of the hero to unlist"
        }
      },
      "checkIfHeroIsListed(uint256)": {
        "params": {
          "_heroId": "The ID of the hero to check"
        },
        "returns": {
          "_0": "bool True if the hero is listed, false otherwise"
        }
      },
      "constructor": {
        "custom:oz-upgrades-unsafe-allow": "constructor"
      },
      "getDFKHeroContractAddress()": {
        "returns": {
          "_0": "address The address of the DFK hero contract"
        }
      },
      "getFeePercentage()": {
        "returns": {
          "_0": "The fee percentage in basis points (e.g., 100 = 1%)"
        }
      },
      "getHONKTokenAddress()": {
        "returns": {
          "_0": "address The address of the HONK token contract"
        }
      },
      "getHero(uint256)": {
        "params": {
          "_heroId": "The ID of the hero"
        },
        "returns": {
          "_0": "Hero The hero details"
        }
      },
      "getHeroIndex(uint256)": {
        "params": {
          "_heroId": "The ID of the hero"
        },
        "returns": {
          "_0": "uint256 The index of the hero"
        }
      },
      "getListedHeroes()": {
        "returns": {
          "_0": "Hero[] An array of all listed heroes",
          "_1": "uint256 The total number of heroes in the marketplace"
        }
      },
      "getListedHeroesPaginated(uint256,uint256)": {
        "params": {
          "_limit": "The maximum number of heroes to retrieve",
          "_offset": "The starting index for pagination"
        },
        "returns": {
          "_0": "Hero[] An array of listed heroes"
        }
      },
      "getMultipleHeroes(uint256[])": {
        "params": {
          "_heroIds": "An array of hero IDs"
        },
        "returns": {
          "_0": "Hero[] An array of heroes corresponding to the provided IDs"
        }
      },
      "initialize(address,address,address)": {
        "params": {
          "_dfkHeroContract": "The address of the DFK hero contract",
          "_feeRecipient": "The address that will receive marketplace fees",
          "_honkToken": "The address of the HONK token contract"
        }
      },
      "listHero(uint256,uint256)": {
        "details": "This function can only be called by the owner of the hero",
        "params": {
          "_heroId": "The ID of the hero to be listed",
          "_price": "The price in HONK tokens for which the hero is being listed"
        }
      },
      "owner()": {
        "details": "Returns the address of the current owner."
      },
      "paused()": {
        "returns": {
          "_0": "bool The current pause state of the contract"
        }
      },
      "proposeFeePercentage(uint256)": {
        "params": {
          "_newFeePercentage": "The proposed new fee percentage (in basis points, e.g., 100 = 1%)"
        }
      },
      "renounceOwnership()": {
        "details": "Leaves the contract without owner. It will not be possible to call `onlyOwner` functions. Can only be called by the current owner. NOTE: Renouncing ownership will leave the contract without an owner, thereby disabling any functionality that is only available to the owner."
      },
      "setFeeRecipient(address)": {
        "params": {
          "_newFeeRecipient": "The new address to receive marketplace fees"
        }
      },
      "transferOwnership(address)": {
        "details": "Transfers ownership of the contract to a new account (`newOwner`). Can only be called by the current owner."
      },
      "updatePrice(uint256,uint256)": {
        "details": "Only the owner of the hero can update its price",
        "params": {
          "_heroId": "The ID of the hero",
          "_newPrice": "The new price in HONK tokens"
        }
      },
      "withdrawERC721(address,uint256,address)": {
        "params": {
          "_recipient": "The address to send the token to",
          "_token": "The address of the ERC721 token contract",
          "_tokenId": "The ID of the token to withdraw"
        }
      },
      "withdrawFees(uint256)": {
        "params": {
          "_amount": "The amount of HONK tokens to withdraw"
        }
      }
    },
    "title": "HONKMarketplace",
    "version": 1
  },
  "userdoc": {
    "events": {
      "ERC721Withdrawn(address,uint256,address)": {
        "notice": "Emitted when an ERC721 token is withdrawn by the owner"
      },
      "FeePercentageExecuted(uint256,uint256)": {
        "notice": "Emitted when a proposed fee percentage is executed"
      },
      "FeePercentageProposed(uint256,uint256)": {
        "notice": "Emitted when a new fee percentage is proposed"
      },
      "FeePercentageUpdated(uint256,uint256)": {
        "notice": "Emitted when the fee percentage is updated"
      },
      "FeeRecipientUpdated(address,address)": {
        "notice": "Emitted when the fee recipient is updated"
      },
      "FundsWithdrawn(address,uint256)": {
        "notice": "Emitted when funds are withdrawn by the owner"
      },
      "HeroListed(uint256,address,uint256)": {
        "notice": "Emitted when a hero is listed for sale"
      },
      "HeroPriceUpdated(uint256,address,uint256)": {
        "notice": "Emitted when a hero's price is updated"
      },
      "HeroPurchased(uint256,address,address,uint256)": {
        "notice": "Emitted when a hero is purchased"
      },
      "HeroUnlisted(uint256,address)": {
        "notice": "Emitted when a hero listing is cancelled"
      },
      "MarketplacePaused(address)": {
        "notice": "Emitted when the marketplace is paused"
      },
      "MarketplaceUnpaused(address)": {
        "notice": "Emitted when the marketplace is unpaused"
      }
    },
    "kind": "user",
    "methods": {
      "bulkCancelListings(uint256[])": {
        "notice": "Bulk cancels the listings of multiple heroes"
      },
      "buyHero(uint256)": {
        "notice": "Allows a user to purchase a listed hero"
      },
      "cancelListing(uint256)": {
        "notice": "Cancels the listing of a hero"
      },
      "checkIfHeroIsListed(uint256)": {
        "notice": "Checks if a hero is currently listed for sale"
      },
      "executeFeePercentageUpdate()": {
        "notice": "Executes the proposed fee percentage change after the time-lock period"
      },
      "getDFKHeroContractAddress()": {
        "notice": "Retrieves the address of the DFK hero contract"
      },
      "getFeePercentage()": {
        "notice": "Gets the current fee percentage"
      },
      "getHONKTokenAddress()": {
        "notice": "Retrieves the address of the HONK token contract"
      },
      "getHero(uint256)": {
        "notice": "Retrieves the details of a specific hero"
      },
      "getHeroIndex(uint256)": {
        "notice": "Gets the index of a hero in the heroes mapping"
      },
      "getListedHeroes()": {
        "notice": "Retrieves all listed heroes"
      },
      "getListedHeroesPaginated(uint256,uint256)": {
        "notice": "Retrieves a paginated list of listed heroes"
      },
      "getMultipleHeroes(uint256[])": {
        "notice": "Retrieves multiple heroes by their IDs"
      },
      "initialize(address,address,address)": {
        "notice": "Initializes the marketplace"
      },
      "listHero(uint256,uint256)": {
        "notice": "Lists a hero for sale in the marketplace"
      },
      "pause()": {
        "notice": "Pauses the marketplace"
      },
      "paused()": {
        "notice": "Returns true if the contract is paused, and false otherwise"
      },
      "proposeFeePercentage(uint256)": {
        "notice": "Proposes a new fee percentage"
      },
      "setFeeRecipient(address)": {
        "notice": "Sets a new fee recipient address"
      },
      "unpause()": {
        "notice": "Unpauses the marketplace"
      },
      "updatePrice(uint256,uint256)": {
        "notice": "Updates the price of a listed hero"
      },
      "withdrawERC721(address,uint256,address)": {
        "notice": "Allows the owner to withdraw any ERC721 tokens accidentally sent to the contract"
      },
      "withdrawFees(uint256)": {
        "notice": "Allows the owner to withdraw accumulated fees"
      }
    },
    "notice": "A marketplace contract for trading DFK Heroes using HONK tokens",
    "version": 1
  }
}