{
  "contractName": "HONKMarketplace",
  "abi": [
    {
      "inputs": [],
      "stateMutability": "nonpayable",
      "type": "constructor"
    },
    {
      "inputs": [
        {
          "internalType": "address",
          "name": "target",
          "type": "address"
        }
      ],
      "name": "AddressEmptyCode",
      "type": "error"
    },
    {
      "inputs": [
        {
          "internalType": "address",
          "name": "account",
          "type": "address"
        }
      ],
      "name": "AddressInsufficientBalance",
      "type": "error"
    },
    {
      "inputs": [],
      "name": "FailedInnerCall",
      "type": "error"
    },
    {
      "inputs": [],
      "name": "InvalidInitialization",
      "type": "error"
    },
    {
      "inputs": [],
      "name": "NotInitializing",
      "type": "error"
    },
    {
      "inputs": [
        {
          "internalType": "address",
          "name": "owner",
          "type": "address"
        }
      ],
      "name": "OwnableInvalidOwner",
      "type": "error"
    },
    {
      "inputs": [
        {
          "internalType": "address",
          "name": "account",
          "type": "address"
        }
      ],
      "name": "OwnableUnauthorizedAccount",
      "type": "error"
    },
    {
      "inputs": [],
      "name": "ReentrancyGuardReentrantCall",
      "type": "error"
    },
    {
      "inputs": [
        {
          "internalType": "address",
          "name": "token",
          "type": "address"
        }
      ],
      "name": "SafeERC20FailedOperation",
      "type": "error"
    },
    {
      "anonymous": false,
      "inputs": [
        {
          "indexed": false,
          "internalType": "uint256",
          "name": "oldPercentage",
          "type": "uint256"
        },
        {
          "indexed": false,
          "internalType": "uint256",
          "name": "newPercentage",
          "type": "uint256"
        }
      ],
      "name": "FeePercentageExecuted",
      "type": "event"
    },
    {
      "anonymous": false,
      "inputs": [
        {
          "indexed": false,
          "internalType": "uint256",
          "name": "proposedPercentage",
          "type": "uint256"
        },
        {
          "indexed": false,
          "internalType": "uint256",
          "name": "timestamp",
          "type": "uint256"
        }
      ],
      "name": "FeePercentageProposed",
      "type": "event"
    },
    {
      "anonymous": false,
      "inputs": [
        {
          "indexed": false,
          "internalType": "uint256",
          "name": "oldPercentage",
          "type": "uint256"
        },
        {
          "indexed": false,
          "internalType": "uint256",
          "name": "newPercentage",
          "type": "uint256"
        }
      ],
      "name": "FeePercentageUpdated",
      "type": "event"
    },
    {
      "anonymous": false,
      "inputs": [
        {
          "indexed": false,
          "internalType": "address",
          "name": "oldRecipient",
          "type": "address"
        },
        {
          "indexed": false,
          "internalType": "address",
          "name": "newRecipient",
          "type": "address"
        }
      ],
      "name": "FeeRecipientUpdated",
      "type": "event"
    },
    {
      "anonymous": false,
      "inputs": [
        {
          "indexed": false,
          "internalType": "address",
          "name": "recipient",
          "type": "address"
        },
        {
          "indexed": false,
          "internalType": "uint256",
          "name": "amount",
          "type": "uint256"
        }
      ],
      "name": "FundsWithdrawn",
      "type": "event"
    },
    {
      "anonymous": false,
      "inputs": [
        {
          "indexed": true,
          "internalType": "uint256",
          "name": "heroId",
          "type": "uint256"
        },
        {
          "indexed": true,
          "internalType": "address",
          "name": "seller",
          "type": "address"
        },
        {
          "indexed": false,
          "internalType": "uint256",
          "name": "price",
          "type": "uint256"
        }
      ],
      "name": "HeroListed",
      "type": "event"
    },
    {
      "anonymous": false,
      "inputs": [
        {
          "indexed": true,
          "internalType": "uint256",
          "name": "heroId",
          "type": "uint256"
        },
        {
          "indexed": true,
          "internalType": "address",
          "name": "seller",
          "type": "address"
        },
        {
          "indexed": false,
          "internalType": "uint256",
          "name": "newPrice",
          "type": "uint256"
        }
      ],
      "name": "HeroPriceUpdated",
      "type": "event"
    },
    {
      "anonymous": false,
      "inputs": [
        {
          "indexed": true,
          "internalType": "uint256",
          "name": "heroId",
          "type": "uint256"
        },
        {
          "indexed": true,
          "internalType": "address",
          "name": "buyer",
          "type": "address"
        },
        {
          "indexed": true,
          "internalType": "address",
          "name": "seller",
          "type": "address"
        },
        {
          "indexed": false,
          "internalType": "uint256",
          "name": "price",
          "type": "uint256"
        }
      ],
      "name": "HeroPurchased",
      "type": "event"
    },
    {
      "anonymous": false,
      "inputs": [
        {
          "indexed": true,
          "internalType": "uint256",
          "name": "heroId",
          "type": "uint256"
        },
        {
          "indexed": true,
          "internalType": "address",
          "name": "seller",
          "type": "address"
        }
      ],
      "name": "HeroUnlisted",
      "type": "event"
    },
    {
      "anonymous": false,
      "inputs": [
        {
          "indexed": false,
          "internalType": "uint64",
          "name": "version",
          "type": "uint64"
        }
      ],
      "name": "Initialized",
      "type": "event"
    },
    {
      "anonymous": false,
      "inputs": [
        {
          "indexed": true,
          "internalType": "address",
          "name": "by",
          "type": "address"
        }
      ],
      "name": "MarketplacePaused",
      "type": "event"
    },
    {
      "anonymous": false,
      "inputs": [
        {
          "indexed": true,
          "internalType": "address",
          "name": "by",
          "type": "address"
        }
      ],
      "name": "MarketplaceUnpaused",
      "type": "event"
    },
    {
      "anonymous": false,
      "inputs": [
        {
          "indexed": true,
          "internalType": "address",
          "name": "previousOwner",
          "type": "address"
        },
        {
          "indexed": true,
          "internalType": "address",
          "name": "newOwner",
          "type": "address"
        }
      ],
      "name": "OwnershipTransferred",
      "type": "event"
    },
    {
      "inputs": [],
      "name": "FEE_PERCENTAGE",
      "outputs": [
        {
          "internalType": "uint256",
          "name": "",
          "type": "uint256"
        }
      ],
      "stateMutability": "view",
      "type": "function",
      "constant": true
    },
    {
      "inputs": [],
      "name": "TIMELOCK_PERIOD",
      "outputs": [
        {
          "internalType": "uint256",
          "name": "",
          "type": "uint256"
        }
      ],
      "stateMutability": "view",
      "type": "function",
      "constant": true
    },
    {
      "inputs": [],
      "name": "dfkHeroContract",
      "outputs": [
        {
          "internalType": "contract IHeroCoreDiamond",
          "name": "",
          "type": "address"
        }
      ],
      "stateMutability": "view",
      "type": "function",
      "constant": true
    },
    {
      "inputs": [],
      "name": "feeRecipient",
      "outputs": [
        {
          "internalType": "address",
          "name": "",
          "type": "address"
        }
      ],
      "stateMutability": "view",
      "type": "function",
      "constant": true
    },
    {
      "inputs": [],
      "name": "heroCount",
      "outputs": [
        {
          "internalType": "uint256",
          "name": "",
          "type": "uint256"
        }
      ],
      "stateMutability": "view",
      "type": "function",
      "constant": true
    },
    {
      "inputs": [
        {
          "internalType": "uint256",
          "name": "",
          "type": "uint256"
        }
      ],
      "name": "heroIdToIndex",
      "outputs": [
        {
          "internalType": "uint256",
          "name": "",
          "type": "uint256"
        }
      ],
      "stateMutability": "view",
      "type": "function",
      "constant": true
    },
    {
      "inputs": [
        {
          "internalType": "uint256",
          "name": "",
          "type": "uint256"
        }
      ],
      "name": "heroes",
      "outputs": [
        {
          "internalType": "uint256",
          "name": "id",
          "type": "uint256"
        },
        {
          "internalType": "address",
          "name": "owner",
          "type": "address"
        },
        {
          "internalType": "uint256",
          "name": "price",
          "type": "uint256"
        },
        {
          "internalType": "bool",
          "name": "isForSale",
          "type": "bool"
        }
      ],
      "stateMutability": "view",
      "type": "function",
      "constant": true
    },
    {
      "inputs": [],
      "name": "honkToken",
      "outputs": [
        {
          "internalType": "contract IERC20",
          "name": "",
          "type": "address"
        }
      ],
      "stateMutability": "view",
      "type": "function",
      "constant": true
    },
    {
      "inputs": [
        {
          "internalType": "uint256",
          "name": "",
          "type": "uint256"
        }
      ],
      "name": "isHeroListed",
      "outputs": [
        {
          "internalType": "bool",
          "name": "",
          "type": "bool"
        }
      ],
      "stateMutability": "view",
      "type": "function",
      "constant": true
    },
    {
      "inputs": [],
      "name": "listedHeroCount",
      "outputs": [
        {
          "internalType": "uint256",
          "name": "",
          "type": "uint256"
        }
      ],
      "stateMutability": "view",
      "type": "function",
      "constant": true
    },
    {
      "inputs": [],
      "name": "owner",
      "outputs": [
        {
          "internalType": "address",
          "name": "",
          "type": "address"
        }
      ],
      "stateMutability": "view",
      "type": "function",
      "constant": true
    },
    {
      "inputs": [],
      "name": "paused",
      "outputs": [
        {
          "internalType": "bool",
          "name": "",
          "type": "bool"
        }
      ],
      "stateMutability": "view",
      "type": "function",
      "constant": true
    },
    {
      "inputs": [],
      "name": "proposedFeePercentage",
      "outputs": [
        {
          "internalType": "uint256",
          "name": "",
          "type": "uint256"
        }
      ],
      "stateMutability": "view",
      "type": "function",
      "constant": true
    },
    {
      "inputs": [],
      "name": "proposedFeePercentageTimestamp",
      "outputs": [
        {
          "internalType": "uint256",
          "name": "",
          "type": "uint256"
        }
      ],
      "stateMutability": "view",
      "type": "function",
      "constant": true
    },
    {
      "inputs": [],
      "name": "renounceOwnership",
      "outputs": [],
      "stateMutability": "nonpayable",
      "type": "function"
    },
    {
      "inputs": [
        {
          "internalType": "address",
          "name": "newOwner",
          "type": "address"
        }
      ],
      "name": "transferOwnership",
      "outputs": [],
      "stateMutability": "nonpayable",
      "type": "function"
    },
    {
      "inputs": [
        {
          "internalType": "address",
          "name": "_honkToken",
          "type": "address"
        },
        {
          "internalType": "address",
          "name": "_dfkHeroContract",
          "type": "address"
        },
        {
          "internalType": "address",
          "name": "_feeRecipient",
          "type": "address"
        }
      ],
      "name": "initialize",
      "outputs": [],
      "stateMutability": "nonpayable",
      "type": "function"
    },
    {
      "inputs": [
        {
          "internalType": "address",
          "name": "_newFeeRecipient",
          "type": "address"
        }
      ],
      "name": "setFeeRecipient",
      "outputs": [],
      "stateMutability": "nonpayable",
      "type": "function"
    },
    {
      "inputs": [],
      "name": "pauseMarketplace",
      "outputs": [],
      "stateMutability": "nonpayable",
      "type": "function"
    },
    {
      "inputs": [],
      "name": "unpauseMarketplace",
      "outputs": [],
      "stateMutability": "nonpayable",
      "type": "function"
    },
    {
      "inputs": [
        {
          "internalType": "uint256",
          "name": "_newFeePercentage",
          "type": "uint256"
        }
      ],
      "name": "proposeFeePercentage",
      "outputs": [],
      "stateMutability": "nonpayable",
      "type": "function"
    },
    {
      "inputs": [],
      "name": "executeFeePercentageUpdate",
      "outputs": [],
      "stateMutability": "nonpayable",
      "type": "function"
    },
    {
      "inputs": [
        {
          "internalType": "uint256",
          "name": "_amount",
          "type": "uint256"
        }
      ],
      "name": "withdrawFees",
      "outputs": [],
      "stateMutability": "nonpayable",
      "type": "function"
    },
    {
      "inputs": [
        {
          "internalType": "uint256",
          "name": "_heroId",
          "type": "uint256"
        }
      ],
      "name": "checkIfHeroIsListed",
      "outputs": [
        {
          "internalType": "bool",
          "name": "",
          "type": "bool"
        }
      ],
      "stateMutability": "view",
      "type": "function",
      "constant": true
    },
    {
      "inputs": [
        {
          "internalType": "uint256",
          "name": "_heroId",
          "type": "uint256"
        },
        {
          "internalType": "uint256",
          "name": "_price",
          "type": "uint256"
        }
      ],
      "name": "listHero",
      "outputs": [],
      "stateMutability": "nonpayable",
      "type": "function"
    },
    {
      "inputs": [
        {
          "internalType": "uint256",
          "name": "_heroId",
          "type": "uint256"
        }
      ],
      "name": "cancelListing",
      "outputs": [],
      "stateMutability": "nonpayable",
      "type": "function"
    },
    {
      "inputs": [
        {
          "internalType": "uint256[]",
          "name": "_heroIds",
          "type": "uint256[]"
        }
      ],
      "name": "bulkCancelListings",
      "outputs": [],
      "stateMutability": "nonpayable",
      "type": "function"
    },
    {
      "inputs": [
        {
          "internalType": "uint256",
          "name": "_heroId",
          "type": "uint256"
        },
        {
          "internalType": "uint256",
          "name": "_newPrice",
          "type": "uint256"
        }
      ],
      "name": "updatePrice",
      "outputs": [],
      "stateMutability": "nonpayable",
      "type": "function"
    },
    {
      "inputs": [
        {
          "internalType": "uint256",
          "name": "heroId",
          "type": "uint256"
        }
      ],
      "name": "buyHero",
      "outputs": [],
      "stateMutability": "nonpayable",
      "type": "function"
    },
    {
      "inputs": [
        {
          "internalType": "uint256",
          "name": "_heroId",
          "type": "uint256"
        }
      ],
      "name": "getHero",
      "outputs": [
        {
          "components": [
            {
              "internalType": "uint256",
              "name": "id",
              "type": "uint256"
            },
            {
              "internalType": "address",
              "name": "owner",
              "type": "address"
            },
            {
              "internalType": "uint256",
              "name": "price",
              "type": "uint256"
            },
            {
              "internalType": "bool",
              "name": "isForSale",
              "type": "bool"
            }
          ],
          "internalType": "struct HONKMarketplace.Hero",
          "name": "",
          "type": "tuple"
        }
      ],
      "stateMutability": "view",
      "type": "function",
      "constant": true
    },
    {
      "inputs": [
        {
          "internalType": "uint256",
          "name": "_heroId",
          "type": "uint256"
        }
      ],
      "name": "getHeroIndex",
      "outputs": [
        {
          "internalType": "uint256",
          "name": "",
          "type": "uint256"
        }
      ],
      "stateMutability": "view",
      "type": "function",
      "constant": true
    },
    {
      "inputs": [],
      "name": "getListedHeroes",
      "outputs": [
        {
          "components": [
            {
              "internalType": "uint256",
              "name": "id",
              "type": "uint256"
            },
            {
              "internalType": "address",
              "name": "owner",
              "type": "address"
            },
            {
              "internalType": "uint256",
              "name": "price",
              "type": "uint256"
            },
            {
              "internalType": "bool",
              "name": "isForSale",
              "type": "bool"
            }
          ],
          "internalType": "struct HONKMarketplace.Hero[]",
          "name": "",
          "type": "tuple[]"
        },
        {
          "internalType": "uint256",
          "name": "",
          "type": "uint256"
        }
      ],
      "stateMutability": "view",
      "type": "function",
      "constant": true
    },
    {
      "inputs": [],
      "name": "getDetailedDebugInfo",
      "outputs": [
        {
          "components": [
            {
              "internalType": "uint256",
              "name": "heroCount",
              "type": "uint256"
            },
            {
              "internalType": "uint256",
              "name": "listedCount",
              "type": "uint256"
            },
            {
              "components": [
                {
                  "internalType": "uint256",
                  "name": "id",
                  "type": "uint256"
                },
                {
                  "internalType": "address",
                  "name": "owner",
                  "type": "address"
                },
                {
                  "internalType": "uint256",
                  "name": "price",
                  "type": "uint256"
                },
                {
                  "internalType": "bool",
                  "name": "isForSale",
                  "type": "bool"
                }
              ],
              "internalType": "struct HONKMarketplace.HeroDebugInfo[]",
              "name": "heroDetails",
              "type": "tuple[]"
            }
          ],
          "internalType": "struct HONKMarketplace.DetailedDebugInfo",
          "name": "",
          "type": "tuple"
        }
      ],
      "stateMutability": "view",
      "type": "function",
      "constant": true
    },
    {
      "inputs": [
        {
          "internalType": "address",
          "name": "_owner",
          "type": "address"
        }
      ],
      "name": "getHeroesByOwner",
      "outputs": [
        {
          "components": [
            {
              "internalType": "uint256",
              "name": "id",
              "type": "uint256"
            },
            {
              "internalType": "address",
              "name": "owner",
              "type": "address"
            },
            {
              "internalType": "uint256",
              "name": "price",
              "type": "uint256"
            },
            {
              "internalType": "bool",
              "name": "isForSale",
              "type": "bool"
            }
          ],
          "internalType": "struct HONKMarketplace.Hero[]",
          "name": "",
          "type": "tuple[]"
        }
      ],
      "stateMutability": "view",
      "type": "function",
      "constant": true
    },
    {
      "inputs": [
        {
          "internalType": "uint256",
          "name": "_offset",
          "type": "uint256"
        },
        {
          "internalType": "uint256",
          "name": "_limit",
          "type": "uint256"
        }
      ],
      "name": "getListedHeroesPaginated",
      "outputs": [
        {
          "components": [
            {
              "internalType": "uint256",
              "name": "id",
              "type": "uint256"
            },
            {
              "internalType": "address",
              "name": "owner",
              "type": "address"
            },
            {
              "internalType": "uint256",
              "name": "price",
              "type": "uint256"
            },
            {
              "internalType": "bool",
              "name": "isForSale",
              "type": "bool"
            }
          ],
          "internalType": "struct HONKMarketplace.Hero[]",
          "name": "",
          "type": "tuple[]"
        }
      ],
      "stateMutability": "view",
      "type": "function",
      "constant": true
    },
    {
      "inputs": [
        {
          "internalType": "uint256[]",
          "name": "_heroIds",
          "type": "uint256[]"
        }
      ],
      "name": "getMultipleHeroes",
      "outputs": [
        {
          "components": [
            {
              "internalType": "uint256",
              "name": "id",
              "type": "uint256"
            },
            {
              "internalType": "address",
              "name": "owner",
              "type": "address"
            },
            {
              "internalType": "uint256",
              "name": "price",
              "type": "uint256"
            },
            {
              "internalType": "bool",
              "name": "isForSale",
              "type": "bool"
            }
          ],
          "internalType": "struct HONKMarketplace.Hero[]",
          "name": "",
          "type": "tuple[]"
        }
      ],
      "stateMutability": "view",
      "type": "function",
      "constant": true
    },
    {
      "inputs": [],
      "name": "getHONKTokenAddress",
      "outputs": [
        {
          "internalType": "address",
          "name": "",
          "type": "address"
        }
      ],
      "stateMutability": "view",
      "type": "function",
      "constant": true
    },
    {
      "inputs": [],
      "name": "getDFKHeroContractAddress",
      "outputs": [
        {
          "internalType": "address",
          "name": "",
          "type": "address"
        }
      ],
      "stateMutability": "view",
      "type": "function",
      "constant": true
    },
    {
      "inputs": [],
      "name": "getFeeRecipient",
      "outputs": [
        {
          "internalType": "address",
          "name": "",
          "type": "address"
        }
      ],
      "stateMutability": "view",
      "type": "function",
      "constant": true
    },
    {
      "inputs": [],
      "name": "getProposedFeePercentage",
      "outputs": [
        {
          "internalType": "uint256",
          "name": "proposedPercentage",
          "type": "uint256"
        },
        {
          "internalType": "uint256",
          "name": "timestamp",
          "type": "uint256"
        }
      ],
      "stateMutability": "view",
      "type": "function",
      "constant": true
    }
  ],
  "bytecode": "0x608060405234801562000010575f80fd5b506200001b62000021565b620000d5565b7ff0c57e16840df040f15088dc2f81fe391c3923bec73e23a9662efc9c229c6a00805468010000000000000000900460ff1615620000725760405163f92ee8a960e01b815260040160405180910390fd5b80546001600160401b0390811614620000d25780546001600160401b0319166001600160401b0390811782556040519081527fc7f505b2f371ae2175ee4913f4499e1f2633a7b5936321eed1cdaeb6115181d29060200160405180910390a15b50565b612bfe80620000e35f395ff3fe608060405234801561000f575f80fd5b506004361061023e575f3560e01c80635e318e0711610135578063b0b0697b116100b4578063e74b981b11610079578063e74b981b14610560578063e7f3a43f14610573578063ecbfd3b914610583578063f2fde38b1461058c578063f850c85e1461059f575f80fd5b8063b0b0697b146104f0578063b3dc623814610502578063b6deca4e14610524578063c0c53b8b14610537578063e35778441461054a575f80fd5b80638ce8bb8c116100fa5780638ce8bb8c1461043a5780638da5cb5b146104555780638dc4e2f31461045d578063a8d4a03b14610466578063a8d51cc6146104d1575f80fd5b80635e318e07146103d8578063715018a6146103eb57806380f1a90c146103f357806382367b2d14610412578063862445cb14610425575f80fd5b80633d3f7f93116101c15780634b75e99e116101865780634b75e99e1461038c5780634ccb20c0146103945780635069be10146103a55780635a1efd3b146103b85780635c975abb146103cb575f80fd5b80633d3f7f931461034b5780633ec622791461035e57806346904840146103665780634a5bcbf8146103795780634a9a8f5114610383575f80fd5b806321d801111161020757806321d80111146102d857806321f67fbb146102f857806329a2677b14610300578063305a67a8146103135780633446ddb614610326575f80fd5b80620b46f814610242578063024edd751461025e578063060d7e171461027357806307c99f4e146102a55780630f602919146102c5575b5f80fd5b61024b60035481565b6040519081526020015b60405180910390f35b61027161026c3660046125fe565b6105a8565b005b6102956102813660046125fe565b5f908152600a602052604090205460ff1690565b6040519015158152602001610255565b6102b86102b3366004612629565b610ce6565b60405161025591906126b5565b6102b86102d33660046126c7565b610e57565b6102eb6102e63660046125fe565b611031565b60405161025591906126e7565b6102716110c8565b61027161030e3660046126c7565b611106565b6102716103213660046125fe565b611486565b6001546001600160a01b03165b6040516001600160a01b039091168152602001610255565b600154610333906001600160a01b031681565b6102716115be565b600254610333906001600160a01b031681565b61024b6202a30081565b61024b60065481565b6102716115ff565b6002546001600160a01b0316610333565b6102716103b33660046125fe565b611709565b6102716103c63660046126f5565b6117a5565b6004546102959060ff1681565b6102716103e63660046125fe565b61191e565b610271611a88565b61024b6104013660046125fe565b5f9081526009602052604090205490565b6102716104203660046126c7565b611a9b565b61042d611bdc565b6040516102559190612764565b60055460065460408051928352602083019190915201610255565b610333611d44565b61024b60055481565b6104a76104743660046125fe565b60076020525f9081526040902080546001820154600283015460039093015491926001600160a01b039091169160ff1684565b604080519485526001600160a01b0390931660208501529183015215156060820152608001610255565b61024b6104df3660046125fe565b60096020525f908152604090205481565b5f54610333906001600160a01b031681565b6102956105103660046125fe565b600a6020525f908152604090205460ff1681565b6102b86105323660046126f5565b611d72565b6102716105453660046127d1565b611ef7565b61055261205a565b604051610255929190612819565b61027161056e366004612629565b612190565b5f546001600160a01b0316610333565b61024b600b5481565b61027161059a366004612629565b6121f9565b61024b60085481565b60045460ff16156105d45760405162461bcd60e51b81526004016105cb9061283a565b60405180910390fd5b6105dc612233565b5f818152600960205260408120549081900361064a5760405162461bcd60e51b815260206004820152602760248201527f4248313a204865726f20646f6573206e6f7420657869737420696e206d61726b6044820152666574706c61636560c81b60648201526084016105cb565b5f818152600760205260409020600381015460ff166106ab5760405162461bcd60e51b815260206004820152601960248201527f4248323a204865726f206973206e6f7420666f722073616c650000000000000060448201526064016105cb565b60018101546001600160a01b031633036107075760405162461bcd60e51b815260206004820152601d60248201527f4248333a2043616e6e6f742062757920796f7572206f776e206865726f00000060448201526064016105cb565b600281015460018201546003546001600160a01b03909116905f9061271090610730908561287d565b61073a9190612894565b90505f61074782856128b3565b5f546040516370a0823160e01b815233600482015291925085916001600160a01b03909116906370a0823190602401602060405180830381865afa158015610791573d5f803e3d5ffd5b505050506040513d601f19601f820116820180604052508101906107b591906128c6565b10156108035760405162461bcd60e51b815260206004820152601e60248201527f4248343a20496e73756666696369656e7420484f4e4b2062616c616e6365000060448201526064016105cb565b5f54604051636eb1769f60e11b815233600482015230602482015285916001600160a01b03169063dd62ed3e90604401602060405180830381865afa15801561084e573d5f803e3d5ffd5b505050506040513d601f19601f8201168201806040525081019061087291906128c6565b10156108c05760405162461bcd60e51b815260206004820181905260248201527f4248353a20496e73756666696369656e7420484f4e4b20616c6c6f77616e636560448201526064016105cb565b5f546108d7906001600160a01b031633858461226a565b6002545f546108f5916001600160a01b03918216913391168561226a565b6001546040516331a9108f60e11b8152600481018990526001600160a01b03858116921690636352211e90602401602060405180830381865afa15801561093e573d5f803e3d5ffd5b505050506040513d601f19601f8201168201806040525081019061096291906128dd565b6001600160a01b0316146109c45760405162461bcd60e51b815260206004820152602360248201527f4248383a2053656c6c6572206e6f206c6f6e676572206f776e7320746865206860448201526265726f60e81b60648201526084016105cb565b60015460405163e985e9c560e01b81526001600160a01b0385811660048301523060248301529091169063e985e9c590604401602060405180830381865afa158015610a12573d5f803e3d5ffd5b505050506040513d601f19601f82011682018060405250810190610a3691906128f8565b80610ab2575060015460405163020604bf60e21b81526004810189905230916001600160a01b03169063081812fc90602401602060405180830381865afa158015610a83573d5f803e3d5ffd5b505050506040513d601f19601f82011682018060405250810190610aa791906128dd565b6001600160a01b0316145b610b195760405162461bcd60e51b815260206004820152603260248201527f4248393a20484f4e4b4d61726b6574706c616365206e6f7420617070726f76656044820152716420746f207472616e73666572206865726f60701b60648201526084016105cb565b826001600160a01b0316336001600160a01b0316887f3013dc6733adbe758a9409c4e37c338087f8fca873194173f3f05cc47dbd004b87604051610b5f91815260200190565b60405180910390a4600154604051632374580f60e01b81526001600160a01b038581166004830152336024830152604482018a905290911690632374580f906064015f604051808303815f87803b158015610bb8575f80fd5b505af1925050508015610bc9575060015b610c7557610bd5612917565b806308c379a003610c2b5750610be961297d565b80610bf45750610c2d565b80604051602001610c059190612a28565b60408051601f198184030181529082905262461bcd60e51b82526105cb91600401612a6c565b505b60405162461bcd60e51b815260206004820152601a60248201527f424831303a204865726f207472616e73666572206661696c656400000000000060448201526064016105cb565b60038501805460ff199081169091556001860180546001600160a01b031916331790555f60028701819055888152600a602052604081208054909216909155600b805491610cc283612a9e565b9190505550505050505050610ce360015f80516020612ba983398151915255565b50565b60605f60015b6008548111610d38575f818152600760205260409020600101546001600160a01b03808616911603610d265781610d2281612ab3565b9250505b80610d3081612ab3565b915050610cec565b505f8167ffffffffffffffff811115610d5357610d53612930565b604051908082528060200260200182016040528015610d8c57816020015b610d796125cf565b815260200190600190039081610d715790505b5090505f60015b6008548111610e4d575f818152600760205260409020600101546001600160a01b03808816911603610e3b575f8181526007602090815260409182902082516080810184528154815260018201546001600160a01b03169281019290925260028101549282019290925260039091015460ff16151560608201528351849084908110610e2157610e21612acb565b60200260200101819052508180610e3790612ab3565b9250505b80610e4581612ab3565b915050610d93565b5090949350505050565b60606008548310610ea15760405162461bcd60e51b81526020600482015260146024820152734f6666736574206f7574206f6620626f756e647360601b60448201526064016105cb565b5f80610eae856001612adf565b90505b6008548111158015610ec257508382105b15610f00575f8181526007602052604090206003015460ff1615610eee5781610eea81612ab3565b9250505b80610ef881612ab3565b915050610eb1565b505f8167ffffffffffffffff811115610f1b57610f1b612930565b604051908082528060200260200182016040528015610f5457816020015b610f416125cf565b815260200190600190039081610f395790505b5090505f80610f64876001612adf565b90505b6008548111158015610f7857508382105b15611024575f8181526007602052604090206003015460ff1615611012575f8181526007602090815260409182902082516080810184528154815260018201546001600160a01b03169281019290925260028101549282019290925260039091015460ff16151560608201528351849084908110610ff857610ff8612acb565b6020026020010181905250818061100e90612ab3565b9250505b8061101c81612ab3565b915050610f67565b5090925050505b92915050565b6110396125cf565b5f8281526009602052604081205490819003611074575050604080516080810182529182525f60208301819052908201819052606082015290565b5f9081526007602090815260409182902082516080810184528154815260018201546001600160a01b03169281019290925260028101549282019290925260039091015460ff161515606082015292915050565b6110d06122ea565b6004805460ff1916905560405133907f385a28cf4754bd62fde01bcce82b673bd45cb357f835cf679a756de5d8e93bcd905f90a2565b60045460ff16156111295760405162461bcd60e51b81526004016105cb9061283a565b611131612233565b5f81116111805760405162461bcd60e51b815260206004820152601f60248201527f5072696365206d7573742062652067726561746572207468616e207a65726f0060448201526064016105cb565b6001546040516331a9108f60e11b81526004810184905233916001600160a01b031690636352211e90602401602060405180830381865afa1580156111c7573d5f803e3d5ffd5b505050506040513d601f19601f820116820180604052508101906111eb91906128dd565b6001600160a01b0316146112115760405162461bcd60e51b81526004016105cb90612af2565b60015460405163020604bf60e21b81526004810184905230916001600160a01b03169063081812fc90602401602060405180830381865afa158015611258573d5f803e3d5ffd5b505050506040513d601f19601f8201168201806040525081019061127c91906128dd565b6001600160a01b031614806112fc575060015460405163e985e9c560e01b81523360048201523060248201526001600160a01b039091169063e985e9c590604401602060405180830381865afa1580156112d8573d5f803e3d5ffd5b505050506040513d601f19601f820116820180604052508101906112fc91906128f8565b6113575760405162461bcd60e51b815260206004820152602660248201527f436f6e7472616374206e6f7420617070726f76656420746f207472616e73666560448201526572206865726f60d01b60648201526084016105cb565b5f82815260096020526040812054908190036113975760088054905f61137c83612ab3565b90915550506008545f84815260096020526040902081905590505b604080516080810182528481523360208083019182528284018681526001606085018181525f8881526007855287812096518755945186830180546001600160a01b03929092166001600160a01b03199092169190911790559151600286015590516003909401805494151560ff19958616179055878352600a90915292812080549092169092179055600b80549161142f83612ab3565b9091555050604051828152339084907f27bae1fb91b142a2956e7482d5370a469a66deae9cc45d8b0ec35067a54a18ad9060200160405180910390a35061148260015f80516020612ba983398151915255565b5050565b60045460ff16156114a95760405162461bcd60e51b81526004016105cb9061283a565b6114b1612233565b5f81815260096020526040812054908190036114df5760405162461bcd60e51b81526004016105cb90612b29565b5f81815260076020526040902060018101546001600160a01b031633146115185760405162461bcd60e51b81526004016105cb90612af2565b600381015460ff1661153c5760405162461bcd60e51b81526004016105cb90612b56565b60038101805460ff199081169091555f60028301819055848152600a602052604081208054909216909155600b80549161157583612a9e565b9091555050604051339084907f1469c95e6068560d203e991d0ed20ae615cc13b5ed0642628ff399a2f73db8ae905f90a35050610ce360015f80516020612ba983398151915255565b6115c66122ea565b6004805460ff1916600117905560405133907f720419d686e04979382078792dce127b7417b1f1b934573e9ae7a7d40eb86e87905f90a2565b6116076122ea565b6006545f036116515760405162461bcd60e51b8152602060048201526016602482015275139bc8199959481d5c19185d19481c1c9bdc1bdcd95960521b60448201526064016105cb565b6202a3006006546116629190612adf565b4210156116b15760405162461bcd60e51b815260206004820152601c60248201527f54696d652d6c6f636b20706572696f64206e6f7420656c61707365640000000060448201526064016105cb565b6003805460058054928390555f9081905560065560405190917f9cd93e7936e2206d443e2248d41bf1cd23257c6ed7599a39c7495ac35166e952916116fe91848252602082015260400190565b60405180910390a150565b6117116122ea565b6103e88111156117635760405162461bcd60e51b815260206004820181905260248201527f4665652070657263656e746167652063616e6e6f74206578636565642031302560448201526064016105cb565b60058190554260068190556040805183815260208101929092527fb4ff980088459cdfa5175c4296e7f1ec737c111006bec9c166c3e99bcecb43c791016116fe565b60045460ff16156117c85760405162461bcd60e51b81526004016105cb9061283a565b6117d0612233565b5f5b81811015611907575f8383838181106117ed576117ed612acb565b9050602002013590505f60095f8381526020019081526020015f20549050805f0361182a5760405162461bcd60e51b81526004016105cb90612b29565b5f81815260076020526040902060018101546001600160a01b031633146118635760405162461bcd60e51b81526004016105cb90612af2565b600381015460ff166118875760405162461bcd60e51b81526004016105cb90612b56565b60038101805460ff199081169091555f60028301819055848152600a602052604081208054909216909155600b8054916118c083612a9e565b9091555050604051339084907f1469c95e6068560d203e991d0ed20ae615cc13b5ed0642628ff399a2f73db8ae905f90a350505080806118ff90612ab3565b9150506117d2565b5061148260015f80516020612ba983398151915255565b6119266122ea565b5f81116119755760405162461bcd60e51b815260206004820181905260248201527f416d6f756e74206d7573742062652067726561746572207468616e207a65726f60448201526064016105cb565b5f546040516370a0823160e01b81523060048201526001600160a01b03909116906370a0823190602401602060405180830381865afa1580156119ba573d5f803e3d5ffd5b505050506040513d601f19601f820116820180604052508101906119de91906128c6565b811115611a245760405162461bcd60e51b8152602060048201526014602482015273496e73756666696369656e742062616c616e636560601b60448201526064016105cb565b611a41611a2f611d44565b5f546001600160a01b0316908361231c565b7feaff4b37086828766ad3268786972c0cd24259d4c87a80f9d3963a3c3d999b0d611a6a611d44565b604080516001600160a01b03909216825260208201849052016116fe565b611a906122ea565b611a995f612352565b565b60045460ff1615611abe5760405162461bcd60e51b81526004016105cb9061283a565b5f8281526009602052604081205490819003611aec5760405162461bcd60e51b81526004016105cb90612b29565b5f81815260076020526040902060018101546001600160a01b03163314611b255760405162461bcd60e51b81526004016105cb90612af2565b600381015460ff16611b495760405162461bcd60e51b81526004016105cb90612b56565b5f8311611b985760405162461bcd60e51b815260206004820152601f60248201527f5072696365206d7573742062652067726561746572207468616e207a65726f0060448201526064016105cb565b60028101839055604051838152339085907fbbb7facdaaf76bceacc911e979955e190cde2d26dcdbc7dd10a966d9728487ae9060200160405180910390a350505050565b611bfe60405180606001604052805f81526020015f8152602001606081525090565b5f60085467ffffffffffffffff811115611c1a57611c1a612930565b604051908082528060200260200182016040528015611c6a57816020015b604080516080810182525f8082526020808301829052928201819052606082015282525f19909201910181611c385790505b5090505f60015b6008548111611d1f575f818152600760209081526040918290208251608081018452815481526001808301546001600160a01b031693820193909352600282015493810193909352600381015460ff161515606084015291908590611cd690856128b3565b81518110611ce657611ce6612acb565b6020908102919091010152600381015460ff1615611d0c5782611d0881612ab3565b9350505b5080611d1781612ab3565b915050611c71565b5060405180606001604052806008548152602001828152602001838152509250505090565b7f9016d09d72d40fdae2fd8ceac6b6234c7706214fd39c1cd1e609a0528c199300546001600160a01b031690565b60605f8267ffffffffffffffff811115611d8e57611d8e612930565b604051908082528060200260200182016040528015611dc757816020015b611db46125cf565b815260200190600190039081611dac5790505b5090505f5b83811015611eef575f60095f878785818110611dea57611dea612acb565b9050602002013581526020019081526020015f20549050805f14611e7a575f8181526007602090815260409182902082516080810184528154815260018201546001600160a01b03169281019290925260028101549282019290925260039091015460ff16151560608201528351849084908110611e6a57611e6a612acb565b6020026020010181905250611edc565b6040518060800160405280878785818110611e9757611e97612acb565b9050602002013581526020015f6001600160a01b031681526020015f81526020015f1515815250838381518110611ed057611ed0612acb565b60200260200101819052505b5080611ee781612ab3565b915050611dcc565b509392505050565b7ff0c57e16840df040f15088dc2f81fe391c3923bec73e23a9662efc9c229c6a008054600160401b810460ff16159067ffffffffffffffff165f81158015611f3c5750825b90505f8267ffffffffffffffff166001148015611f585750303b155b905081158015611f66575080155b15611f845760405163f92ee8a960e01b815260040160405180910390fd5b845467ffffffffffffffff191660011785558315611fae57845460ff60401b1916600160401b1785555b611fb7336123c2565b611fbf6123d3565b5f80546001600160a01b03808b166001600160a01b031992831617909255600180548a8416908316179055600280549289169290911691909117905560646003556004805460ff19169055831561205057845460ff60401b19168555604051600181527fc7f505b2f371ae2175ee4913f4499e1f2633a7b5936321eed1cdaeb6115181d29060200160405180910390a15b5050505050505050565b60605f80600b5467ffffffffffffffff81111561207957612079612930565b6040519080825280602002602001820160405280156120b257816020015b61209f6125cf565b8152602001906001900390816120975790505b5090505f60015b60085481111580156120cc5750600b5482105b15612182575f818152600760209081526040808320548352600a90915290205460ff1615612170575f8181526007602090815260409182902082516080810184528154815260018201546001600160a01b03169281019290925260028101549282019290925260039091015460ff1615156060820152835184908490811061215657612156612acb565b6020026020010181905250818061216c90612ab3565b9250505b8061217a81612ab3565b9150506120b9565b505060085490939092509050565b6121986122ea565b600280546001600160a01b038381166001600160a01b031983168117909355604080519190921680825260208201939093527faaebcf1bfa00580e41d966056b48521fa9f202645c86d4ddf28113e617c1b1d3910160405180910390a15050565b6122016122ea565b6001600160a01b03811661222a57604051631e4fbdf760e01b81525f60048201526024016105cb565b610ce381612352565b5f80516020612ba983398151915280546001190161226457604051633ee5aeb560e01b815260040160405180910390fd5b60029055565b6040516001600160a01b0384811660248301528381166044830152606482018390526122d19186918216906323b872dd906084015b604051602081830303815290604052915060e01b6020820180516001600160e01b0383818316178352505050506123e3565b50505050565b60015f80516020612ba983398151915255565b336122f3611d44565b6001600160a01b031614611a995760405163118cdaa760e01b81523360048201526024016105cb565b6040516001600160a01b0383811660248301526044820183905261234d91859182169063a9059cbb9060640161229f565b505050565b7f9016d09d72d40fdae2fd8ceac6b6234c7706214fd39c1cd1e609a0528c19930080546001600160a01b031981166001600160a01b03848116918217845560405192169182907f8be0079c531659141344cd1fd0a4f28419497f9722a3daafe3b4186f6b6457e0905f90a3505050565b6123ca612444565b610ce38161248d565b6123db612444565b611a99612495565b5f6123f76001600160a01b0384168361249d565b905080515f1415801561241b57508080602001905181019061241991906128f8565b155b1561234d57604051635274afe760e01b81526001600160a01b03841660048201526024016105cb565b7ff0c57e16840df040f15088dc2f81fe391c3923bec73e23a9662efc9c229c6a0054600160401b900460ff16611a9957604051631afcd79f60e31b815260040160405180910390fd5b612201612444565b6122d7612444565b60606124aa83835f6124b1565b9392505050565b6060814710156124d65760405163cd78605960e01b81523060048201526024016105cb565b5f80856001600160a01b031684866040516124f19190612b8d565b5f6040518083038185875af1925050503d805f811461252b576040519150601f19603f3d011682016040523d82523d5f602084013e612530565b606091505b509150915061254086838361254a565b9695505050505050565b60608261255f5761255a826125a6565b6124aa565b815115801561257657506001600160a01b0384163b155b1561259f57604051639996b31560e01b81526001600160a01b03851660048201526024016105cb565b50806124aa565b8051156125b65780518082602001fd5b604051630a12f52160e11b815260040160405180910390fd5b60405180608001604052805f81526020015f6001600160a01b031681526020015f81526020015f151581525090565b5f6020828403121561260e575f80fd5b5035919050565b6001600160a01b0381168114610ce3575f80fd5b5f60208284031215612639575f80fd5b81356124aa81612615565b805182526020808201516001600160a01b031690830152604080820151908301526060908101511515910152565b5f8151808452602080850194508084015f5b838110156126aa57612697878351612644565b6080969096019590820190600101612684565b509495945050505050565b602081525f6124aa6020830184612672565b5f80604083850312156126d8575f80fd5b50508035926020909101359150565b6080810161102b8284612644565b5f8060208385031215612706575f80fd5b823567ffffffffffffffff8082111561271d575f80fd5b818501915085601f830112612730575f80fd5b81358181111561273e575f80fd5b8660208260051b8501011115612752575f80fd5b60209290920196919550909350505050565b5f60208083526080808401855183860152828601516040860152604086015160608087015281815180845260a08801915085830193505f92505b808310156127c5576127b1828551612644565b92850192600192909201919084019061279e565b50979650505050505050565b5f805f606084860312156127e3575f80fd5b83356127ee81612615565b925060208401356127fe81612615565b9150604084013561280e81612615565b809150509250925092565b604081525f61282b6040830185612672565b90508260208301529392505050565b60208082526015908201527413585c9ad95d1c1b1858d9481a5cc81c185d5cd959605a1b604082015260600190565b634e487b7160e01b5f52601160045260245ffd5b808202811582820484141761102b5761102b612869565b5f826128ae57634e487b7160e01b5f52601260045260245ffd5b500490565b8181038181111561102b5761102b612869565b5f602082840312156128d6575f80fd5b5051919050565b5f602082840312156128ed575f80fd5b81516124aa81612615565b5f60208284031215612908575f80fd5b815180151581146124aa575f80fd5b5f60033d111561292d5760045f803e505f5160e01c5b90565b634e487b7160e01b5f52604160045260245ffd5b601f8201601f1916810167ffffffffffffffff8111828210171561297657634e487b7160e01b5f52604160045260245ffd5b6040525050565b5f60443d101561298a5790565b6040516003193d81016004833e81513d67ffffffffffffffff81602484011181841117156129ba57505050505090565b82850191508151818111156129d25750505050505090565b843d87010160208285010111156129ec5750505050505090565b6129fb60208286010187612944565b509095945050505050565b5f5b83811015612a20578181015183820152602001612a08565b50505f910152565b7f424831303a204865726f207472616e73666572206661696c65643a200000000081525f8251612a5f81601c850160208701612a06565b91909101601c0192915050565b602081525f8251806020840152612a8a816040850160208701612a06565b601f01601f19169190910160400192915050565b5f81612aac57612aac612869565b505f190190565b5f60018201612ac457612ac4612869565b5060010190565b634e487b7160e01b5f52603260045260245ffd5b8082018082111561102b5761102b612869565b60208082526017908201527f596f7520646f6e2774206f776e2074686973206865726f000000000000000000604082015260600190565b60208082526013908201527212195c9bc8191bd95cc81b9bdd08195e1a5cdd606a1b604082015260600190565b6020808252601b908201527f4865726f206973206e6f74206c697374656420666f722073616c650000000000604082015260600190565b5f8251612b9e818460208701612a06565b919091019291505056fe9b779b17422d0df92223018b32b4d1fa46e071723d6817e2486d003becc55f00a26469706673582212203d8f4320279a25d1ccc5ae91bc24280e32d2df3bb619614c0948473f4af9244764736f6c63430008140033",
  "immutableReferences": {},
  "source": "// SPDX-License-Identifier: MIT\r\npragma solidity ^0.8.0;\r\n\r\nimport \"@openzeppelin/contracts/token/ERC20/IERC20.sol\";\r\nimport \"@openzeppelin/contracts/token/ERC20/utils/SafeERC20.sol\";\r\nimport \"@openzeppelin/contracts/token/ERC721/IERC721.sol\";\r\nimport \"@openzeppelin/contracts-upgradeable/access/OwnableUpgradeable.sol\";\r\nimport \"@openzeppelin/contracts-upgradeable/utils/ReentrancyGuardUpgradeable.sol\";\r\nimport \"@openzeppelin/contracts-upgradeable/proxy/utils/Initializable.sol\";\r\n\r\ninterface IHeroCoreDiamond is IERC721 {\r\n    function transferHeroAndEquipmentFrom(address _from, address _newOwner, uint256 _heroId) external;\r\n}\r\n\r\ncontract HONKMarketplace is Initializable, OwnableUpgradeable, ReentrancyGuardUpgradeable {\r\n    using SafeERC20 for IERC20;\r\n\r\n    IERC20 public honkToken;\r\n    IHeroCoreDiamond public dfkHeroContract;\r\n\r\n    address public feeRecipient;\r\n    uint256 public FEE_PERCENTAGE;\r\n    bool public paused;\r\n\r\n    // Time-lock related variables\r\n    uint256 public constant TIMELOCK_PERIOD = 2 days;\r\n    uint256 public proposedFeePercentage;\r\n    uint256 public proposedFeePercentageTimestamp;\r\n\r\n    /// @notice Structure to represent a hero in the marketplace\r\n    struct Hero {\r\n        uint256 id;\r\n        address owner;\r\n        uint256 price;\r\n        bool isForSale;\r\n    }\r\n\r\n    /// @notice Structure for debug information about a hero\r\n    struct HeroDebugInfo {\r\n        uint256 id;\r\n        address owner;\r\n        uint256 price;\r\n        bool isForSale;\r\n    }\r\n\r\n    /// @notice Structure for detailed debug information about the marketplace\r\n    struct DetailedDebugInfo {\r\n        uint256 heroCount;\r\n        uint256 listedCount;\r\n        HeroDebugInfo[] heroDetails;\r\n    }\r\n\r\n    mapping(uint256 => Hero) public heroes;\r\n    uint256 public heroCount;\r\n    mapping(uint256 => uint256) public heroIdToIndex;\r\n    mapping(uint256 => bool) public isHeroListed;\r\n    uint256 public listedHeroCount;\r\n\r\n    /// @notice Emitted when a hero is listed for sale\r\n    event HeroListed(uint256 indexed heroId, address indexed seller, uint256 price);\r\n    /// @notice Emitted when a hero is purchased\r\n    event HeroPurchased(uint256 indexed heroId, address indexed buyer, address indexed seller, uint256 price);\r\n    /// @notice Emitted when a hero listing is cancelled\r\n    event HeroUnlisted(uint256 indexed heroId, address indexed seller);\r\n    /// @notice Emitted when a hero's price is updated\r\n    event HeroPriceUpdated(uint256 indexed heroId, address indexed seller, uint256 newPrice);\r\n    /// @notice Emitted when the marketplace is paused\r\n    event MarketplacePaused(address indexed by);\r\n    /// @notice Emitted when the marketplace is unpaused\r\n    event MarketplaceUnpaused(address indexed by);\r\n    /// @notice Emitted when the fee percentage is updated\r\n    event FeePercentageUpdated(uint256 oldPercentage, uint256 newPercentage);\r\n    /// @notice Emitted when the fee recipient is updated\r\n    event FeeRecipientUpdated(address oldRecipient, address newRecipient);\r\n    /// @notice Emitted when a new fee percentage is proposed\r\n    event FeePercentageProposed(uint256 proposedPercentage, uint256 timestamp);\r\n    /// @notice Emitted when a proposed fee percentage is executed\r\n    event FeePercentageExecuted(uint256 oldPercentage, uint256 newPercentage);\r\n    /// @notice Emitted when funds are withdrawn by the owner\r\n    event FundsWithdrawn(address recipient, uint256 amount);\r\n\r\n    /// @custom:oz-upgrades-unsafe-allow constructor\r\n    constructor() {\r\n        _disableInitializers();\r\n    }\r\n\r\n    /// @notice Initializes the marketplace\r\n    /// @param _honkToken The address of the HONK token contract\r\n    /// @param _dfkHeroContract The address of the DFK hero contract\r\n    /// @param _feeRecipient The address that will receive marketplace fees\r\n    function initialize(address _honkToken, address _dfkHeroContract, address _feeRecipient) public initializer {\r\n        __Ownable_init(msg.sender);\r\n        __ReentrancyGuard_init();\r\n        \r\n        honkToken = IERC20(_honkToken);\r\n        dfkHeroContract = IHeroCoreDiamond(_dfkHeroContract);\r\n        feeRecipient = _feeRecipient;\r\n        FEE_PERCENTAGE = 100; // 1% fee (100 / 10000)\r\n        paused = false;\r\n    }\r\n\r\n    /// @notice Modifier to ensure function can only be called when the marketplace is not paused\r\n    modifier whenNotPaused() {\r\n        require(!paused, \"Marketplace is paused\");\r\n        _;\r\n    }\r\n\r\n    /// @notice Sets a new fee recipient address\r\n    /// @param _newFeeRecipient The new address to receive marketplace fees\r\n    function setFeeRecipient(address _newFeeRecipient) external onlyOwner {\r\n        address oldRecipient = feeRecipient;\r\n        feeRecipient = _newFeeRecipient;\r\n        emit FeeRecipientUpdated(oldRecipient, _newFeeRecipient);\r\n    }\r\n\r\n    /// @notice Pauses the marketplace\r\n    function pauseMarketplace() external onlyOwner {\r\n        paused = true;\r\n        emit MarketplacePaused(msg.sender);\r\n    }\r\n\r\n    /// @notice Unpauses the marketplace\r\n    function unpauseMarketplace() external onlyOwner {\r\n        paused = false;\r\n        emit MarketplaceUnpaused(msg.sender);\r\n    }\r\n\r\n    /// @notice Proposes a new fee percentage\r\n    /// @param _newFeePercentage The proposed new fee percentage (in basis points, e.g., 100 = 1%)\r\n    function proposeFeePercentage(uint256 _newFeePercentage) external onlyOwner {\r\n        require(_newFeePercentage <= 1000, \"Fee percentage cannot exceed 10%\");\r\n        proposedFeePercentage = _newFeePercentage;\r\n        proposedFeePercentageTimestamp = block.timestamp;\r\n        emit FeePercentageProposed(_newFeePercentage, block.timestamp);\r\n    }\r\n\r\n    /// @notice Executes the proposed fee percentage change after the time-lock period\r\n    function executeFeePercentageUpdate() external onlyOwner {\r\n        require(proposedFeePercentageTimestamp != 0, \"No fee update proposed\");\r\n        require(block.timestamp >= proposedFeePercentageTimestamp + TIMELOCK_PERIOD, \"Time-lock period not elapsed\");\r\n        \r\n        uint256 oldFeePercentage = FEE_PERCENTAGE;\r\n        FEE_PERCENTAGE = proposedFeePercentage;\r\n        \r\n        // Reset the proposal\r\n        proposedFeePercentage = 0;\r\n        proposedFeePercentageTimestamp = 0;\r\n        \r\n        emit FeePercentageExecuted(oldFeePercentage, FEE_PERCENTAGE);\r\n    }\r\n\r\n    /// @notice Allows the owner to withdraw accumulated fees\r\n    /// @param _amount The amount of HONK tokens to withdraw\r\n    function withdrawFees(uint256 _amount) external onlyOwner {\r\n        require(_amount > 0, \"Amount must be greater than zero\");\r\n        require(_amount <= honkToken.balanceOf(address(this)), \"Insufficient balance\");\r\n        \r\n        honkToken.safeTransfer(owner(), _amount);\r\n        emit FundsWithdrawn(owner(), _amount);\r\n    }\r\n\r\n    /// @notice Checks if a hero is currently listed for sale\r\n    /// @param _heroId The ID of the hero to check\r\n    /// @return bool True if the hero is listed, false otherwise\r\n    function checkIfHeroIsListed(uint256 _heroId) public view returns (bool) {\r\n        return isHeroListed[_heroId];\r\n    }\r\n\r\n    /// @notice Lists a hero for sale in the marketplace\r\n    /// @param _heroId The ID of the hero to be listed\r\n    /// @param _price The price in HONK tokens for which the hero is being listed\r\n    function listHero(uint256 _heroId, uint256 _price) external whenNotPaused nonReentrant {\r\n        require(_price > 0, \"Price must be greater than zero\");\r\n        require(dfkHeroContract.ownerOf(_heroId) == msg.sender, \"You don't own this hero\");\r\n        require(dfkHeroContract.getApproved(_heroId) == address(this) || \r\n                dfkHeroContract.isApprovedForAll(msg.sender, address(this)), \r\n                \"Contract not approved to transfer hero\");\r\n\r\n        uint256 index = heroIdToIndex[_heroId];\r\n        if (index == 0) {\r\n            heroCount++;\r\n            index = heroCount;\r\n            heroIdToIndex[_heroId] = index;\r\n        }\r\n\r\n        heroes[index] = Hero(_heroId, msg.sender, _price, true);\r\n        isHeroListed[_heroId] = true;\r\n        listedHeroCount++;\r\n\r\n        emit HeroListed(_heroId, msg.sender, _price);\r\n    }\r\n\r\n    /// @notice Cancels the listing of a hero\r\n    /// @param _heroId The ID of the hero to unlist\r\n    function cancelListing(uint256 _heroId) external whenNotPaused nonReentrant {\r\n        uint256 index = heroIdToIndex[_heroId];\r\n        require(index != 0, \"Hero does not exist\");\r\n        Hero storage hero = heroes[index];\r\n        require(hero.owner == msg.sender, \"You don't own this hero\");\r\n        require(hero.isForSale, \"Hero is not listed for sale\");\r\n\r\n        hero.isForSale = false;\r\n        hero.price = 0;\r\n        isHeroListed[_heroId] = false;\r\n        listedHeroCount--;\r\n\r\n        emit HeroUnlisted(_heroId, msg.sender);\r\n    }\r\n\r\n    /// @notice Bulk cancels the listings of multiple heroes\r\n    /// @param _heroIds An array of hero IDs to unlist\r\n    function bulkCancelListings(uint256[] calldata _heroIds) external whenNotPaused nonReentrant {\r\n        for (uint256 i = 0; i < _heroIds.length; i++) {\r\n            uint256 heroId = _heroIds[i];\r\n            uint256 index = heroIdToIndex[heroId];\r\n            require(index != 0, \"Hero does not exist\");\r\n            Hero storage hero = heroes[index];\r\n            require(hero.owner == msg.sender, \"You don't own this hero\");\r\n            require(hero.isForSale, \"Hero is not listed for sale\");\r\n\r\n            hero.isForSale = false;\r\n            hero.price = 0;\r\n            isHeroListed[heroId] = false;\r\n            listedHeroCount--;\r\n\r\n            emit HeroUnlisted(heroId, msg.sender);\r\n        }\r\n    }\r\n\r\n    /// @notice Updates the price of a listed hero\r\n    /// @param _heroId The ID of the hero\r\n    /// @param _newPrice The new price in HONK tokens\r\n    function updatePrice(uint256 _heroId, uint256 _newPrice) external whenNotPaused {\r\n        uint256 index = heroIdToIndex[_heroId];\r\n        require(index != 0, \"Hero does not exist\");\r\n        Hero storage hero = heroes[index];\r\n        require(hero.owner == msg.sender, \"You don't own this hero\");\r\n        require(hero.isForSale, \"Hero is not listed for sale\");\r\n        require(_newPrice > 0, \"Price must be greater than zero\");\r\n\r\n        hero.price = _newPrice;\r\n\r\n        emit HeroPriceUpdated(_heroId, msg.sender, _newPrice);\r\n    }\r\n\r\n    /// @notice Allows a user to purchase a listed hero\r\n    /// @param heroId The ID of the hero to be purchased\r\n    function buyHero(uint256 heroId) external whenNotPaused nonReentrant {\r\n        uint256 index = heroIdToIndex[heroId];\r\n        require(index != 0, \"BH1: Hero does not exist in marketplace\");\r\n        Hero storage hero = heroes[index];\r\n\r\n        require(hero.isForSale, \"BH2: Hero is not for sale\");\r\n        require(msg.sender != hero.owner, \"BH3: Cannot buy your own hero\");\r\n\r\n        uint256 price = hero.price;\r\n        address seller = hero.owner;\r\n\r\n        uint256 fee = (price * FEE_PERCENTAGE) / 10000;\r\n        uint256 sellerAmount = price - fee;\r\n\r\n        require(honkToken.balanceOf(msg.sender) >= price, \"BH4: Insufficient HONK balance\");\r\n        require(honkToken.allowance(msg.sender, address(this)) >= price, \"BH5: Insufficient HONK allowance\");\r\n\r\n        honkToken.safeTransferFrom(msg.sender, seller, sellerAmount);\r\n        honkToken.safeTransferFrom(msg.sender, feeRecipient, fee);\r\n\r\n        require(dfkHeroContract.ownerOf(heroId) == seller, \"BH8: Seller no longer owns the hero\");\r\n        \r\n        require(dfkHeroContract.isApprovedForAll(seller, address(this)) || \r\n                dfkHeroContract.getApproved(heroId) == address(this),\r\n                \"BH9: HONKMarketplace not approved to transfer hero\");\r\n\r\n        emit HeroPurchased(heroId, msg.sender, seller, price);\r\n\r\n        try dfkHeroContract.transferHeroAndEquipmentFrom(seller, msg.sender, heroId) {\r\n            // Transfer successful\r\n        } catch Error(string memory reason) {\r\n            // Revert with the reason\r\n            revert(string(abi.encodePacked(\"BH10: Hero transfer failed: \", reason)));\r\n        } catch {\r\n            // Revert with a generic error message if no reason was provided\r\n            revert(\"BH10: Hero transfer failed\");\r\n        }\r\n\r\n        hero.isForSale = false;\r\n        hero.owner = msg.sender;\r\n        hero.price = 0;\r\n        isHeroListed[heroId] = false;\r\n        listedHeroCount--;\r\n    }\r\n\r\n    /// @notice Retrieves the details of a specific hero\r\n    /// @param _heroId The ID of the hero\r\n    /// @return Hero The hero details\r\n    function getHero(uint256 _heroId) external view returns (Hero memory) {\r\n        uint256 index = heroIdToIndex[_heroId];\r\n        if (index == 0) {\r\n            return Hero(_heroId, address(0), 0, false);\r\n        }\r\n        return heroes[index];\r\n    }\r\n\r\n    /// @notice Gets the index of a hero in the heroes mapping\r\n    /// @param _heroId The ID of the hero\r\n    /// @return uint256 The index of the hero\r\n    function getHeroIndex(uint256 _heroId) external view returns (uint256) {\r\n        return heroIdToIndex[_heroId];\r\n    }\r\n\r\n    /// @notice Retrieves all listed heroes\r\n    /// @return Hero[] An array of all listed heroes\r\n    /// @return uint256 The total number of heroes in the marketplace\r\n    function getListedHeroes() external view returns (Hero[] memory, uint256) {\r\n        Hero[] memory listedHeroes = new Hero[](listedHeroCount);\r\n        uint256 index = 0;\r\n\r\n        for (uint256 i = 1; i <= heroCount && index < listedHeroCount; i++) {\r\n            if (isHeroListed[heroes[i].id]) {\r\n                listedHeroes[index] = heroes[i];\r\n                index++;\r\n            }\r\n        }\r\n\r\n        return (listedHeroes, heroCount);\r\n    }\r\n    \r\n    /// @notice Retrieves detailed debug information about all heroes\r\n    /// @return DetailedDebugInfo Struct containing debug information\r\n    function getDetailedDebugInfo() external view returns (DetailedDebugInfo memory) {\r\n        HeroDebugInfo[] memory heroDetails = new HeroDebugInfo[](heroCount);\r\n        uint256 listedCount = 0;\r\n\r\n        for (uint256 i = 1; i <= heroCount; i++) {\r\n            Hero storage hero = heroes[i];\r\n            heroDetails[i-1] = HeroDebugInfo(hero.id, hero.owner, hero.price, hero.isForSale);\r\n            if (hero.isForSale) {\r\n                listedCount++;\r\n            }\r\n        }\r\n\r\n        return DetailedDebugInfo(heroCount, listedCount, heroDetails);\r\n    }\r\n\r\n    /// @notice Retrieves all heroes owned by a specific address\r\n    /// @param _owner The address of the owner\r\n    /// @return Hero[] An array of heroes owned by the specified address\r\n    function getHeroesByOwner(address _owner) external view returns (Hero[] memory) {\r\n        uint256 ownerHeroCount = 0;\r\n        for (uint256 i = 1; i <= heroCount; i++) {\r\n            if (heroes[i].owner == _owner) {\r\n                ownerHeroCount++;\r\n            }\r\n        }\r\n\r\n        Hero[] memory result = new Hero[](ownerHeroCount);\r\n        uint256 index = 0;\r\n        for (uint256 i = 1; i <= heroCount; i++) {\r\n            if (heroes[i].owner == _owner) {\r\n                result[index] = heroes[i];\r\n                index++;\r\n            }\r\n        }\r\n\r\n        return result;\r\n    }\r\n\r\n    /// @notice Retrieves a paginated list of listed heroes\r\n    /// @param _offset The starting index for pagination\r\n    /// @param _limit The maximum number of heroes to retrieve\r\n    /// @return Hero[] An array of listed heroes\r\n    function getListedHeroesPaginated(uint256 _offset, uint256 _limit) external view returns (Hero[] memory) {\r\n        require(_offset < heroCount, \"Offset out of bounds\");\r\n\r\n        uint256 resultCount = 0;\r\n        for (uint256 i = _offset + 1; i <= heroCount && resultCount < _limit; i++) {\r\n            if (heroes[i].isForSale) {\r\n                resultCount++;\r\n            }\r\n        }\r\n\r\n        Hero[] memory result = new Hero[](resultCount);\r\n        uint256 index = 0;\r\n        for (uint256 i = _offset + 1; i <= heroCount && index < resultCount; i++) {\r\n            if (heroes[i].isForSale) {\r\n                result[index] = heroes[i];\r\n                index++;\r\n            }\r\n        }\r\n\r\n        return result;\r\n    }\r\n\r\n    /// @notice Retrieves multiple heroes by their IDs\r\n    /// @param _heroIds An array of hero IDs\r\n    /// @return Hero[] An array of heroes corresponding to the provided IDs\r\n    function getMultipleHeroes(uint256[] calldata _heroIds) external view returns (Hero[] memory) {\r\n        Hero[] memory result = new Hero[](_heroIds.length);\r\n        for (uint256 i = 0; i < _heroIds.length; i++) {\r\n            uint256 index = heroIdToIndex[_heroIds[i]];\r\n            if (index != 0) {\r\n                result[i] = heroes[index];\r\n            } else {\r\n                result[i] = Hero(_heroIds[i], address(0), 0, false);\r\n            }\r\n        }\r\n        return result;\r\n    }\r\n\r\n    /// @notice Retrieves the address of the HONK token contract\r\n    /// @return address The address of the HONK token contract\r\n    function getHONKTokenAddress() public view returns (address) {\r\n        return address(honkToken);\r\n    }\r\n\r\n    /// @notice Retrieves the address of the DFK hero contract\r\n    /// @return address The address of the DFK hero contract\r\n    function getDFKHeroContractAddress() public view returns (address) {\r\n        return address(dfkHeroContract);\r\n    }\r\n\r\n    /// @notice Retrieves the address of the fee recipient\r\n    /// @return address The address of the fee recipient\r\n    function getFeeRecipient() public view returns (address) {\r\n        return feeRecipient;\r\n    }\r\n\r\n    /// @notice Retrieves the current proposed fee percentage and its timestamp\r\n    /// @return proposedPercentage The proposed fee percentage\r\n    /// @return timestamp The timestamp when the fee percentage was proposed\r\n    function getProposedFeePercentage() external view returns (uint256 proposedPercentage, uint256 timestamp) {\r\n        return (proposedFeePercentage, proposedFeePercentageTimestamp);\r\n    }\r\n}",
  "sourcePath": "C:\\Users\\Yin\\Documents\\vsprojects\\hero-marketplace-ui\\contracts\\HONKMarketplace.sol",
  "compiler": {
    "name": "solc",
    "version": "0.8.20+commit.a1b79de6.Emscripten.clang"
  },
  "schemaVersion": "3.4.16",
  "updatedAt": "2024-09-03T08:51:25.885Z",
  "networkType": "ethereum",
  "devdoc": {
    "errors": {
      "AddressEmptyCode(address)": [
        {
          "details": "There's no code at `target` (it is not a contract)."
        }
      ],
      "AddressInsufficientBalance(address)": [
        {
          "details": "The ETH balance of the account is not enough to perform the operation."
        }
      ],
      "FailedInnerCall()": [
        {
          "details": "A call to an address target failed. The target may have reverted."
        }
      ],
      "InvalidInitialization()": [
        {
          "details": "The contract is already initialized."
        }
      ],
      "NotInitializing()": [
        {
          "details": "The contract is not initializing."
        }
      ],
      "OwnableInvalidOwner(address)": [
        {
          "details": "The owner is not a valid owner account. (eg. `address(0)`)"
        }
      ],
      "OwnableUnauthorizedAccount(address)": [
        {
          "details": "The caller account is not authorized to perform an operation."
        }
      ],
      "ReentrancyGuardReentrantCall()": [
        {
          "details": "Unauthorized reentrant call."
        }
      ],
      "SafeERC20FailedOperation(address)": [
        {
          "details": "An operation with an ERC20 token failed."
        }
      ]
    },
    "events": {
      "Initialized(uint64)": {
        "details": "Triggered when the contract has been initialized or reinitialized."
      }
    },
    "kind": "dev",
    "methods": {
      "bulkCancelListings(uint256[])": {
        "params": {
          "_heroIds": "An array of hero IDs to unlist"
        }
      },
      "buyHero(uint256)": {
        "params": {
          "heroId": "The ID of the hero to be purchased"
        }
      },
      "cancelListing(uint256)": {
        "params": {
          "_heroId": "The ID of the hero to unlist"
        }
      },
      "checkIfHeroIsListed(uint256)": {
        "params": {
          "_heroId": "The ID of the hero to check"
        },
        "returns": {
          "_0": "bool True if the hero is listed, false otherwise"
        }
      },
      "constructor": {
        "custom:oz-upgrades-unsafe-allow": "constructor"
      },
      "getDFKHeroContractAddress()": {
        "returns": {
          "_0": "address The address of the DFK hero contract"
        }
      },
      "getDetailedDebugInfo()": {
        "returns": {
          "_0": "DetailedDebugInfo Struct containing debug information"
        }
      },
      "getFeeRecipient()": {
        "returns": {
          "_0": "address The address of the fee recipient"
        }
      },
      "getHONKTokenAddress()": {
        "returns": {
          "_0": "address The address of the HONK token contract"
        }
      },
      "getHero(uint256)": {
        "params": {
          "_heroId": "The ID of the hero"
        },
        "returns": {
          "_0": "Hero The hero details"
        }
      },
      "getHeroIndex(uint256)": {
        "params": {
          "_heroId": "The ID of the hero"
        },
        "returns": {
          "_0": "uint256 The index of the hero"
        }
      },
      "getHeroesByOwner(address)": {
        "params": {
          "_owner": "The address of the owner"
        },
        "returns": {
          "_0": "Hero[] An array of heroes owned by the specified address"
        }
      },
      "getListedHeroes()": {
        "returns": {
          "_0": "Hero[] An array of all listed heroes",
          "_1": "uint256 The total number of heroes in the marketplace"
        }
      },
      "getListedHeroesPaginated(uint256,uint256)": {
        "params": {
          "_limit": "The maximum number of heroes to retrieve",
          "_offset": "The starting index for pagination"
        },
        "returns": {
          "_0": "Hero[] An array of listed heroes"
        }
      },
      "getMultipleHeroes(uint256[])": {
        "params": {
          "_heroIds": "An array of hero IDs"
        },
        "returns": {
          "_0": "Hero[] An array of heroes corresponding to the provided IDs"
        }
      },
      "getProposedFeePercentage()": {
        "returns": {
          "proposedPercentage": "The proposed fee percentage",
          "timestamp": "The timestamp when the fee percentage was proposed"
        }
      },
      "initialize(address,address,address)": {
        "params": {
          "_dfkHeroContract": "The address of the DFK hero contract",
          "_feeRecipient": "The address that will receive marketplace fees",
          "_honkToken": "The address of the HONK token contract"
        }
      },
      "listHero(uint256,uint256)": {
        "params": {
          "_heroId": "The ID of the hero to be listed",
          "_price": "The price in HONK tokens for which the hero is being listed"
        }
      },
      "owner()": {
        "details": "Returns the address of the current owner."
      },
      "proposeFeePercentage(uint256)": {
        "params": {
          "_newFeePercentage": "The proposed new fee percentage (in basis points, e.g., 100 = 1%)"
        }
      },
      "renounceOwnership()": {
        "details": "Leaves the contract without owner. It will not be possible to call `onlyOwner` functions. Can only be called by the current owner. NOTE: Renouncing ownership will leave the contract without an owner, thereby disabling any functionality that is only available to the owner."
      },
      "setFeeRecipient(address)": {
        "params": {
          "_newFeeRecipient": "The new address to receive marketplace fees"
        }
      },
      "transferOwnership(address)": {
        "details": "Transfers ownership of the contract to a new account (`newOwner`). Can only be called by the current owner."
      },
      "updatePrice(uint256,uint256)": {
        "params": {
          "_heroId": "The ID of the hero",
          "_newPrice": "The new price in HONK tokens"
        }
      },
      "withdrawFees(uint256)": {
        "params": {
          "_amount": "The amount of HONK tokens to withdraw"
        }
      }
    },
    "version": 1
  },
  "userdoc": {
    "events": {
      "FeePercentageExecuted(uint256,uint256)": {
        "notice": "Emitted when a proposed fee percentage is executed"
      },
      "FeePercentageProposed(uint256,uint256)": {
        "notice": "Emitted when a new fee percentage is proposed"
      },
      "FeePercentageUpdated(uint256,uint256)": {
        "notice": "Emitted when the fee percentage is updated"
      },
      "FeeRecipientUpdated(address,address)": {
        "notice": "Emitted when the fee recipient is updated"
      },
      "FundsWithdrawn(address,uint256)": {
        "notice": "Emitted when funds are withdrawn by the owner"
      },
      "HeroListed(uint256,address,uint256)": {
        "notice": "Emitted when a hero is listed for sale"
      },
      "HeroPriceUpdated(uint256,address,uint256)": {
        "notice": "Emitted when a hero's price is updated"
      },
      "HeroPurchased(uint256,address,address,uint256)": {
        "notice": "Emitted when a hero is purchased"
      },
      "HeroUnlisted(uint256,address)": {
        "notice": "Emitted when a hero listing is cancelled"
      },
      "MarketplacePaused(address)": {
        "notice": "Emitted when the marketplace is paused"
      },
      "MarketplaceUnpaused(address)": {
        "notice": "Emitted when the marketplace is unpaused"
      }
    },
    "kind": "user",
    "methods": {
      "bulkCancelListings(uint256[])": {
        "notice": "Bulk cancels the listings of multiple heroes"
      },
      "buyHero(uint256)": {
        "notice": "Allows a user to purchase a listed hero"
      },
      "cancelListing(uint256)": {
        "notice": "Cancels the listing of a hero"
      },
      "checkIfHeroIsListed(uint256)": {
        "notice": "Checks if a hero is currently listed for sale"
      },
      "executeFeePercentageUpdate()": {
        "notice": "Executes the proposed fee percentage change after the time-lock period"
      },
      "getDFKHeroContractAddress()": {
        "notice": "Retrieves the address of the DFK hero contract"
      },
      "getDetailedDebugInfo()": {
        "notice": "Retrieves detailed debug information about all heroes"
      },
      "getFeeRecipient()": {
        "notice": "Retrieves the address of the fee recipient"
      },
      "getHONKTokenAddress()": {
        "notice": "Retrieves the address of the HONK token contract"
      },
      "getHero(uint256)": {
        "notice": "Retrieves the details of a specific hero"
      },
      "getHeroIndex(uint256)": {
        "notice": "Gets the index of a hero in the heroes mapping"
      },
      "getHeroesByOwner(address)": {
        "notice": "Retrieves all heroes owned by a specific address"
      },
      "getListedHeroes()": {
        "notice": "Retrieves all listed heroes"
      },
      "getListedHeroesPaginated(uint256,uint256)": {
        "notice": "Retrieves a paginated list of listed heroes"
      },
      "getMultipleHeroes(uint256[])": {
        "notice": "Retrieves multiple heroes by their IDs"
      },
      "getProposedFeePercentage()": {
        "notice": "Retrieves the current proposed fee percentage and its timestamp"
      },
      "initialize(address,address,address)": {
        "notice": "Initializes the marketplace"
      },
      "listHero(uint256,uint256)": {
        "notice": "Lists a hero for sale in the marketplace"
      },
      "pauseMarketplace()": {
        "notice": "Pauses the marketplace"
      },
      "proposeFeePercentage(uint256)": {
        "notice": "Proposes a new fee percentage"
      },
      "setFeeRecipient(address)": {
        "notice": "Sets a new fee recipient address"
      },
      "unpauseMarketplace()": {
        "notice": "Unpauses the marketplace"
      },
      "updatePrice(uint256,uint256)": {
        "notice": "Updates the price of a listed hero"
      },
      "withdrawFees(uint256)": {
        "notice": "Allows the owner to withdraw accumulated fees"
      }
    },
    "version": 1
  }
}