{
  "contractName": "HONKMarketplace",
  "abi": [
    {
      "inputs": [],
      "stateMutability": "nonpayable",
      "type": "constructor"
    },
    {
      "inputs": [
        {
          "internalType": "address",
          "name": "target",
          "type": "address"
        }
      ],
      "name": "AddressEmptyCode",
      "type": "error"
    },
    {
      "inputs": [
        {
          "internalType": "address",
          "name": "account",
          "type": "address"
        }
      ],
      "name": "AddressInsufficientBalance",
      "type": "error"
    },
    {
      "inputs": [],
      "name": "EnforcedPause",
      "type": "error"
    },
    {
      "inputs": [],
      "name": "ExpectedPause",
      "type": "error"
    },
    {
      "inputs": [],
      "name": "FailedInnerCall",
      "type": "error"
    },
    {
      "inputs": [],
      "name": "InvalidInitialization",
      "type": "error"
    },
    {
      "inputs": [],
      "name": "NotInitializing",
      "type": "error"
    },
    {
      "inputs": [
        {
          "internalType": "address",
          "name": "owner",
          "type": "address"
        }
      ],
      "name": "OwnableInvalidOwner",
      "type": "error"
    },
    {
      "inputs": [
        {
          "internalType": "address",
          "name": "account",
          "type": "address"
        }
      ],
      "name": "OwnableUnauthorizedAccount",
      "type": "error"
    },
    {
      "inputs": [],
      "name": "ReentrancyGuardReentrantCall",
      "type": "error"
    },
    {
      "inputs": [
        {
          "internalType": "address",
          "name": "token",
          "type": "address"
        }
      ],
      "name": "SafeERC20FailedOperation",
      "type": "error"
    },
    {
      "anonymous": false,
      "inputs": [
        {
          "indexed": false,
          "internalType": "string",
          "name": "message",
          "type": "string"
        },
        {
          "indexed": false,
          "internalType": "uint256",
          "name": "value",
          "type": "uint256"
        }
      ],
      "name": "DebugLog",
      "type": "event"
    },
    {
      "anonymous": false,
      "inputs": [
        {
          "indexed": false,
          "internalType": "address",
          "name": "token",
          "type": "address"
        },
        {
          "indexed": false,
          "internalType": "uint256",
          "name": "tokenId",
          "type": "uint256"
        },
        {
          "indexed": false,
          "internalType": "address",
          "name": "recipient",
          "type": "address"
        }
      ],
      "name": "ERC721Withdrawn",
      "type": "event"
    },
    {
      "anonymous": false,
      "inputs": [
        {
          "indexed": false,
          "internalType": "uint256",
          "name": "oldPercentage",
          "type": "uint256"
        },
        {
          "indexed": false,
          "internalType": "uint256",
          "name": "newPercentage",
          "type": "uint256"
        }
      ],
      "name": "FeePercentageExecuted",
      "type": "event"
    },
    {
      "anonymous": false,
      "inputs": [
        {
          "indexed": false,
          "internalType": "uint256",
          "name": "proposedPercentage",
          "type": "uint256"
        },
        {
          "indexed": false,
          "internalType": "uint256",
          "name": "timestamp",
          "type": "uint256"
        }
      ],
      "name": "FeePercentageProposed",
      "type": "event"
    },
    {
      "anonymous": false,
      "inputs": [
        {
          "indexed": false,
          "internalType": "uint256",
          "name": "oldPercentage",
          "type": "uint256"
        },
        {
          "indexed": false,
          "internalType": "uint256",
          "name": "newPercentage",
          "type": "uint256"
        }
      ],
      "name": "FeePercentageUpdated",
      "type": "event"
    },
    {
      "anonymous": false,
      "inputs": [
        {
          "indexed": false,
          "internalType": "address",
          "name": "oldRecipient",
          "type": "address"
        },
        {
          "indexed": false,
          "internalType": "address",
          "name": "newRecipient",
          "type": "address"
        }
      ],
      "name": "FeeRecipientUpdated",
      "type": "event"
    },
    {
      "anonymous": false,
      "inputs": [
        {
          "indexed": false,
          "internalType": "address",
          "name": "recipient",
          "type": "address"
        },
        {
          "indexed": false,
          "internalType": "uint256",
          "name": "amount",
          "type": "uint256"
        }
      ],
      "name": "FundsWithdrawn",
      "type": "event"
    },
    {
      "anonymous": false,
      "inputs": [
        {
          "indexed": true,
          "internalType": "uint256",
          "name": "heroId",
          "type": "uint256"
        },
        {
          "indexed": true,
          "internalType": "address",
          "name": "seller",
          "type": "address"
        },
        {
          "indexed": false,
          "internalType": "uint256",
          "name": "price",
          "type": "uint256"
        }
      ],
      "name": "HeroListed",
      "type": "event"
    },
    {
      "anonymous": false,
      "inputs": [
        {
          "indexed": true,
          "internalType": "uint256",
          "name": "heroId",
          "type": "uint256"
        },
        {
          "indexed": true,
          "internalType": "address",
          "name": "seller",
          "type": "address"
        },
        {
          "indexed": false,
          "internalType": "uint256",
          "name": "newPrice",
          "type": "uint256"
        }
      ],
      "name": "HeroPriceUpdated",
      "type": "event"
    },
    {
      "anonymous": false,
      "inputs": [
        {
          "indexed": true,
          "internalType": "uint256",
          "name": "heroId",
          "type": "uint256"
        },
        {
          "indexed": true,
          "internalType": "address",
          "name": "buyer",
          "type": "address"
        },
        {
          "indexed": true,
          "internalType": "address",
          "name": "seller",
          "type": "address"
        },
        {
          "indexed": false,
          "internalType": "uint256",
          "name": "price",
          "type": "uint256"
        }
      ],
      "name": "HeroPurchased",
      "type": "event"
    },
    {
      "anonymous": false,
      "inputs": [
        {
          "indexed": true,
          "internalType": "uint256",
          "name": "heroId",
          "type": "uint256"
        },
        {
          "indexed": true,
          "internalType": "address",
          "name": "seller",
          "type": "address"
        }
      ],
      "name": "HeroUnlisted",
      "type": "event"
    },
    {
      "anonymous": false,
      "inputs": [
        {
          "indexed": false,
          "internalType": "uint64",
          "name": "version",
          "type": "uint64"
        }
      ],
      "name": "Initialized",
      "type": "event"
    },
    {
      "anonymous": false,
      "inputs": [
        {
          "indexed": true,
          "internalType": "address",
          "name": "by",
          "type": "address"
        }
      ],
      "name": "MarketplacePaused",
      "type": "event"
    },
    {
      "anonymous": false,
      "inputs": [
        {
          "indexed": true,
          "internalType": "address",
          "name": "by",
          "type": "address"
        }
      ],
      "name": "MarketplaceUnpaused",
      "type": "event"
    },
    {
      "anonymous": false,
      "inputs": [
        {
          "indexed": true,
          "internalType": "address",
          "name": "previousOwner",
          "type": "address"
        },
        {
          "indexed": true,
          "internalType": "address",
          "name": "newOwner",
          "type": "address"
        }
      ],
      "name": "OwnershipTransferred",
      "type": "event"
    },
    {
      "anonymous": false,
      "inputs": [
        {
          "indexed": false,
          "internalType": "address",
          "name": "account",
          "type": "address"
        }
      ],
      "name": "Paused",
      "type": "event"
    },
    {
      "anonymous": false,
      "inputs": [
        {
          "indexed": false,
          "internalType": "address",
          "name": "account",
          "type": "address"
        }
      ],
      "name": "Unpaused",
      "type": "event"
    },
    {
      "inputs": [],
      "name": "FEE_PERCENTAGE",
      "outputs": [
        {
          "internalType": "uint256",
          "name": "",
          "type": "uint256"
        }
      ],
      "stateMutability": "view",
      "type": "function",
      "constant": true
    },
    {
      "inputs": [],
      "name": "TIMELOCK_PERIOD",
      "outputs": [
        {
          "internalType": "uint256",
          "name": "",
          "type": "uint256"
        }
      ],
      "stateMutability": "view",
      "type": "function",
      "constant": true
    },
    {
      "inputs": [],
      "name": "dfkHeroContract",
      "outputs": [
        {
          "internalType": "contract IHeroCoreDiamond",
          "name": "",
          "type": "address"
        }
      ],
      "stateMutability": "view",
      "type": "function",
      "constant": true
    },
    {
      "inputs": [],
      "name": "feeRecipient",
      "outputs": [
        {
          "internalType": "address",
          "name": "",
          "type": "address"
        }
      ],
      "stateMutability": "view",
      "type": "function",
      "constant": true
    },
    {
      "inputs": [],
      "name": "heroCount",
      "outputs": [
        {
          "internalType": "uint256",
          "name": "",
          "type": "uint256"
        }
      ],
      "stateMutability": "view",
      "type": "function",
      "constant": true
    },
    {
      "inputs": [
        {
          "internalType": "uint256",
          "name": "",
          "type": "uint256"
        }
      ],
      "name": "heroIdToIndex",
      "outputs": [
        {
          "internalType": "uint256",
          "name": "",
          "type": "uint256"
        }
      ],
      "stateMutability": "view",
      "type": "function",
      "constant": true
    },
    {
      "inputs": [
        {
          "internalType": "uint256",
          "name": "",
          "type": "uint256"
        }
      ],
      "name": "heroes",
      "outputs": [
        {
          "internalType": "uint256",
          "name": "id",
          "type": "uint256"
        },
        {
          "internalType": "address",
          "name": "owner",
          "type": "address"
        },
        {
          "internalType": "uint256",
          "name": "price",
          "type": "uint256"
        },
        {
          "internalType": "bool",
          "name": "isForSale",
          "type": "bool"
        }
      ],
      "stateMutability": "view",
      "type": "function",
      "constant": true
    },
    {
      "inputs": [],
      "name": "honkToken",
      "outputs": [
        {
          "internalType": "contract IERC20",
          "name": "",
          "type": "address"
        }
      ],
      "stateMutability": "view",
      "type": "function",
      "constant": true
    },
    {
      "inputs": [
        {
          "internalType": "uint256",
          "name": "",
          "type": "uint256"
        }
      ],
      "name": "isHeroListed",
      "outputs": [
        {
          "internalType": "bool",
          "name": "",
          "type": "bool"
        }
      ],
      "stateMutability": "view",
      "type": "function",
      "constant": true
    },
    {
      "inputs": [],
      "name": "listedHeroCount",
      "outputs": [
        {
          "internalType": "uint256",
          "name": "",
          "type": "uint256"
        }
      ],
      "stateMutability": "view",
      "type": "function",
      "constant": true
    },
    {
      "inputs": [],
      "name": "owner",
      "outputs": [
        {
          "internalType": "address",
          "name": "",
          "type": "address"
        }
      ],
      "stateMutability": "view",
      "type": "function",
      "constant": true
    },
    {
      "inputs": [],
      "name": "proposedFeePercentage",
      "outputs": [
        {
          "internalType": "uint256",
          "name": "",
          "type": "uint256"
        }
      ],
      "stateMutability": "view",
      "type": "function",
      "constant": true
    },
    {
      "inputs": [],
      "name": "proposedFeePercentageTimestamp",
      "outputs": [
        {
          "internalType": "uint256",
          "name": "",
          "type": "uint256"
        }
      ],
      "stateMutability": "view",
      "type": "function",
      "constant": true
    },
    {
      "inputs": [],
      "name": "renounceOwnership",
      "outputs": [],
      "stateMutability": "nonpayable",
      "type": "function"
    },
    {
      "inputs": [
        {
          "internalType": "address",
          "name": "newOwner",
          "type": "address"
        }
      ],
      "name": "transferOwnership",
      "outputs": [],
      "stateMutability": "nonpayable",
      "type": "function"
    },
    {
      "inputs": [
        {
          "internalType": "address",
          "name": "_honkToken",
          "type": "address"
        },
        {
          "internalType": "address",
          "name": "_dfkHeroContract",
          "type": "address"
        },
        {
          "internalType": "address",
          "name": "_feeRecipient",
          "type": "address"
        }
      ],
      "name": "initialize",
      "outputs": [],
      "stateMutability": "nonpayable",
      "type": "function"
    },
    {
      "inputs": [
        {
          "internalType": "address",
          "name": "_newFeeRecipient",
          "type": "address"
        }
      ],
      "name": "setFeeRecipient",
      "outputs": [],
      "stateMutability": "nonpayable",
      "type": "function"
    },
    {
      "inputs": [],
      "name": "pause",
      "outputs": [],
      "stateMutability": "nonpayable",
      "type": "function"
    },
    {
      "inputs": [],
      "name": "unpause",
      "outputs": [],
      "stateMutability": "nonpayable",
      "type": "function"
    },
    {
      "inputs": [
        {
          "internalType": "uint256",
          "name": "_newFeePercentage",
          "type": "uint256"
        }
      ],
      "name": "proposeFeePercentage",
      "outputs": [],
      "stateMutability": "nonpayable",
      "type": "function"
    },
    {
      "inputs": [],
      "name": "executeFeePercentageUpdate",
      "outputs": [],
      "stateMutability": "nonpayable",
      "type": "function"
    },
    {
      "inputs": [
        {
          "internalType": "uint256",
          "name": "_amount",
          "type": "uint256"
        }
      ],
      "name": "withdrawFees",
      "outputs": [],
      "stateMutability": "nonpayable",
      "type": "function"
    },
    {
      "inputs": [
        {
          "internalType": "address",
          "name": "_token",
          "type": "address"
        },
        {
          "internalType": "uint256",
          "name": "_tokenId",
          "type": "uint256"
        },
        {
          "internalType": "address",
          "name": "_recipient",
          "type": "address"
        }
      ],
      "name": "withdrawERC721",
      "outputs": [],
      "stateMutability": "nonpayable",
      "type": "function"
    },
    {
      "inputs": [
        {
          "internalType": "uint256",
          "name": "_heroId",
          "type": "uint256"
        }
      ],
      "name": "checkIfHeroIsListed",
      "outputs": [
        {
          "internalType": "bool",
          "name": "",
          "type": "bool"
        }
      ],
      "stateMutability": "view",
      "type": "function",
      "constant": true
    },
    {
      "inputs": [
        {
          "internalType": "uint256",
          "name": "_heroId",
          "type": "uint256"
        },
        {
          "internalType": "uint256",
          "name": "_price",
          "type": "uint256"
        }
      ],
      "name": "listHero",
      "outputs": [],
      "stateMutability": "nonpayable",
      "type": "function"
    },
    {
      "inputs": [
        {
          "internalType": "uint256",
          "name": "_heroId",
          "type": "uint256"
        }
      ],
      "name": "cancelListing",
      "outputs": [],
      "stateMutability": "nonpayable",
      "type": "function"
    },
    {
      "inputs": [
        {
          "internalType": "uint256[]",
          "name": "_heroIds",
          "type": "uint256[]"
        }
      ],
      "name": "bulkCancelListings",
      "outputs": [],
      "stateMutability": "nonpayable",
      "type": "function"
    },
    {
      "inputs": [
        {
          "internalType": "uint256",
          "name": "_heroId",
          "type": "uint256"
        },
        {
          "internalType": "uint256",
          "name": "_newPrice",
          "type": "uint256"
        }
      ],
      "name": "updatePrice",
      "outputs": [],
      "stateMutability": "nonpayable",
      "type": "function"
    },
    {
      "inputs": [
        {
          "internalType": "uint256",
          "name": "heroId",
          "type": "uint256"
        }
      ],
      "name": "buyHero",
      "outputs": [],
      "stateMutability": "nonpayable",
      "type": "function"
    },
    {
      "inputs": [
        {
          "internalType": "uint256",
          "name": "_heroId",
          "type": "uint256"
        }
      ],
      "name": "getHero",
      "outputs": [
        {
          "components": [
            {
              "internalType": "uint256",
              "name": "id",
              "type": "uint256"
            },
            {
              "internalType": "address",
              "name": "owner",
              "type": "address"
            },
            {
              "internalType": "uint256",
              "name": "price",
              "type": "uint256"
            },
            {
              "internalType": "bool",
              "name": "isForSale",
              "type": "bool"
            }
          ],
          "internalType": "struct HONKMarketplace.Hero",
          "name": "",
          "type": "tuple"
        }
      ],
      "stateMutability": "view",
      "type": "function",
      "constant": true
    },
    {
      "inputs": [
        {
          "internalType": "uint256",
          "name": "_heroId",
          "type": "uint256"
        }
      ],
      "name": "getHeroIndex",
      "outputs": [
        {
          "internalType": "uint256",
          "name": "",
          "type": "uint256"
        }
      ],
      "stateMutability": "view",
      "type": "function",
      "constant": true
    },
    {
      "inputs": [],
      "name": "getListedHeroes",
      "outputs": [
        {
          "components": [
            {
              "internalType": "uint256",
              "name": "id",
              "type": "uint256"
            },
            {
              "internalType": "address",
              "name": "owner",
              "type": "address"
            },
            {
              "internalType": "uint256",
              "name": "price",
              "type": "uint256"
            },
            {
              "internalType": "bool",
              "name": "isForSale",
              "type": "bool"
            }
          ],
          "internalType": "struct HONKMarketplace.Hero[]",
          "name": "",
          "type": "tuple[]"
        },
        {
          "internalType": "uint256",
          "name": "",
          "type": "uint256"
        }
      ],
      "stateMutability": "view",
      "type": "function",
      "constant": true
    },
    {
      "inputs": [],
      "name": "getDetailedDebugInfo",
      "outputs": [
        {
          "components": [
            {
              "internalType": "uint256",
              "name": "heroCount",
              "type": "uint256"
            },
            {
              "internalType": "uint256",
              "name": "listedCount",
              "type": "uint256"
            },
            {
              "components": [
                {
                  "internalType": "uint256",
                  "name": "id",
                  "type": "uint256"
                },
                {
                  "internalType": "address",
                  "name": "owner",
                  "type": "address"
                },
                {
                  "internalType": "uint256",
                  "name": "price",
                  "type": "uint256"
                },
                {
                  "internalType": "bool",
                  "name": "isForSale",
                  "type": "bool"
                }
              ],
              "internalType": "struct HONKMarketplace.HeroDebugInfo[]",
              "name": "heroDetails",
              "type": "tuple[]"
            }
          ],
          "internalType": "struct HONKMarketplace.DetailedDebugInfo",
          "name": "",
          "type": "tuple"
        }
      ],
      "stateMutability": "view",
      "type": "function",
      "constant": true
    },
    {
      "inputs": [
        {
          "internalType": "address",
          "name": "_owner",
          "type": "address"
        }
      ],
      "name": "getHeroesByOwner",
      "outputs": [
        {
          "components": [
            {
              "internalType": "uint256",
              "name": "id",
              "type": "uint256"
            },
            {
              "internalType": "address",
              "name": "owner",
              "type": "address"
            },
            {
              "internalType": "uint256",
              "name": "price",
              "type": "uint256"
            },
            {
              "internalType": "bool",
              "name": "isForSale",
              "type": "bool"
            }
          ],
          "internalType": "struct HONKMarketplace.Hero[]",
          "name": "",
          "type": "tuple[]"
        }
      ],
      "stateMutability": "view",
      "type": "function",
      "constant": true
    },
    {
      "inputs": [
        {
          "internalType": "uint256",
          "name": "_offset",
          "type": "uint256"
        },
        {
          "internalType": "uint256",
          "name": "_limit",
          "type": "uint256"
        }
      ],
      "name": "getListedHeroesPaginated",
      "outputs": [
        {
          "components": [
            {
              "internalType": "uint256",
              "name": "id",
              "type": "uint256"
            },
            {
              "internalType": "address",
              "name": "owner",
              "type": "address"
            },
            {
              "internalType": "uint256",
              "name": "price",
              "type": "uint256"
            },
            {
              "internalType": "bool",
              "name": "isForSale",
              "type": "bool"
            }
          ],
          "internalType": "struct HONKMarketplace.Hero[]",
          "name": "",
          "type": "tuple[]"
        }
      ],
      "stateMutability": "view",
      "type": "function",
      "constant": true
    },
    {
      "inputs": [
        {
          "internalType": "uint256[]",
          "name": "_heroIds",
          "type": "uint256[]"
        }
      ],
      "name": "getMultipleHeroes",
      "outputs": [
        {
          "components": [
            {
              "internalType": "uint256",
              "name": "id",
              "type": "uint256"
            },
            {
              "internalType": "address",
              "name": "owner",
              "type": "address"
            },
            {
              "internalType": "uint256",
              "name": "price",
              "type": "uint256"
            },
            {
              "internalType": "bool",
              "name": "isForSale",
              "type": "bool"
            }
          ],
          "internalType": "struct HONKMarketplace.Hero[]",
          "name": "",
          "type": "tuple[]"
        }
      ],
      "stateMutability": "view",
      "type": "function",
      "constant": true
    },
    {
      "inputs": [],
      "name": "getHONKTokenAddress",
      "outputs": [
        {
          "internalType": "address",
          "name": "",
          "type": "address"
        }
      ],
      "stateMutability": "view",
      "type": "function",
      "constant": true
    },
    {
      "inputs": [],
      "name": "getDFKHeroContractAddress",
      "outputs": [
        {
          "internalType": "address",
          "name": "",
          "type": "address"
        }
      ],
      "stateMutability": "view",
      "type": "function",
      "constant": true
    },
    {
      "inputs": [],
      "name": "paused",
      "outputs": [
        {
          "internalType": "bool",
          "name": "",
          "type": "bool"
        }
      ],
      "stateMutability": "view",
      "type": "function",
      "constant": true
    },
    {
      "inputs": [],
      "name": "getFeePercentage",
      "outputs": [
        {
          "internalType": "uint256",
          "name": "",
          "type": "uint256"
        }
      ],
      "stateMutability": "view",
      "type": "function",
      "constant": true
    },
    {
      "inputs": [
        {
          "internalType": "address",
          "name": "owner",
          "type": "address"
        },
        {
          "internalType": "address",
          "name": "spender",
          "type": "address"
        }
      ],
      "name": "checkAllowance",
      "outputs": [
        {
          "internalType": "uint256",
          "name": "",
          "type": "uint256"
        }
      ],
      "stateMutability": "view",
      "type": "function",
      "constant": true
    }
  ],
  "bytecode": "0x608060405234801562000010575f80fd5b506200001b62000021565b620000d5565b7ff0c57e16840df040f15088dc2f81fe391c3923bec73e23a9662efc9c229c6a00805468010000000000000000900460ff1615620000725760405163f92ee8a960e01b815260040160405180910390fd5b80546001600160401b0390811614620000d25780546001600160401b0319166001600160401b0390811782556040519081527fc7f505b2f371ae2175ee4913f4499e1f2633a7b5936321eed1cdaeb6115181d29060200160405180910390a15b50565b61312080620000e35f395ff3fe608060405234801561000f575f80fd5b5060043610610249575f3560e01c8063715018a611610140578063a8d51cc6116100bf578063e357784411610084578063e357784414610552578063e74b981b14610568578063e7f3a43f1461057b578063ecbfd3b91461058b578063f2fde38b14610594578063f850c85e146105a7575f80fd5b8063a8d51cc6146104d9578063b0b0697b146104f8578063b3dc62381461050a578063b6deca4e1461052c578063c0c53b8b1461053f575f80fd5b8063862445cb11610105578063862445cb146104355780638b099b231461044a5780638da5cb5b1461045d5780638dc4e2f314610465578063a8d4a03b1461046e575f80fd5b8063715018a6146103e05780637b9f76b5146103e857806380f1a90c146103fb57806382367b2d1461041a5780638456cb591461042d575f80fd5b80633d3f7f93116101cc5780634b75e99e116101915780634b75e99e146103975780635069be101461039f5780635a1efd3b146103b25780635c975abb146103c55780635e318e07146103cd575f80fd5b80633d3f7f93146103565780633f4ba83a1461036957806346904840146103715780634a5bcbf8146103845780634a9a8f511461038e575f80fd5b806311efbf611161021257806311efbf61146102e357806321d80111146102eb57806329a2677b1461030b578063305a67a81461031e5780633446ddb614610331575f80fd5b80620b46f81461024d578063024edd7514610269578063060d7e171461027e57806307c99f4e146102b05780630f602919146102d0575b5f80fd5b61025660035481565b6040519081526020015b60405180910390f35b61027c610277366004612a80565b6105b0565b005b6102a061028c366004612a80565b5f9081526009602052604090205460ff1690565b6040519015158152602001610260565b6102c36102be366004612aab565b610f57565b6040516102609190612b37565b6102c36102de366004612b49565b6110c8565b600354610256565b6102fe6102f9366004612a80565b6112a2565b6040516102609190612b69565b61027c610319366004612b49565b611339565b61027c61032c366004612a80565b61169e565b6001546001600160a01b03165b6040516001600160a01b039091168152602001610260565b60015461033e906001600160a01b031681565b61027c6117bb565b60025461033e906001600160a01b031681565b6102566202a30081565b61025660055481565b61027c6117ff565b61027c6103ad366004612a80565b611911565b61027c6103c0366004612b77565b6119b5565b6102a0611b13565b61027c6103db366004612a80565b611b31565b61027c611ca3565b61027c6103f6366004612be6565b611cb6565b610256610409366004612a80565b5f9081526008602052604090205490565b61027c610428366004612b49565b611d6b565b61027c611e91565b61043d611ecd565b6040516102609190612c25565b610256610458366004612c92565b612035565b61033e6120b0565b61025660045481565b6104af61047c366004612a80565b60066020525f9081526040902080546001820154600283015460039093015491926001600160a01b039091169160ff1684565b604080519485526001600160a01b0390931660208501529183015215156060820152608001610260565b6102566104e7366004612a80565b60086020525f908152604090205481565b5f5461033e906001600160a01b031681565b6102a0610518366004612a80565b60096020525f908152604090205460ff1681565b6102c361053a366004612b77565b6120de565b61027c61054d366004612cc9565b612263565b61055a6123c4565b604051610260929190612d06565b61027c610576366004612aab565b6124fa565b5f546001600160a01b031661033e565b610256600a5481565b61027c6105a2366004612aab565b61256b565b61025660075481565b6105b86125a5565b6105c06125cb565b5f81815260086020526040812054908190036106235760405162461bcd60e51b815260206004820152601860248201527f4248313a204865726f20646f6573206e6f74206578697374000000000000000060448201526064015b60405180910390fd5b5f818152600660205260409020600381015460ff166106845760405162461bcd60e51b815260206004820152601960248201527f4248323a204865726f206973206e6f7420666f722073616c6500000000000000604482015260640161061a565b60018101546001600160a01b031633036106e05760405162461bcd60e51b815260206004820152601d60248201527f4248333a2043616e6e6f742062757920796f7572206f776e206865726f000000604482015260640161061a565b600281015460018201546003546001600160a01b03909116905f90612710906107099085612d3b565b6107139190612d52565b90505f6107208285612d71565b5f80546040516370a0823160e01b815233600482015292935090916001600160a01b03909116906370a0823190602401602060405180830381865afa15801561076b573d5f803e3d5ffd5b505050506040513d601f19601f8201168201806040525081019061078f9190612d84565b90505f8051602061308b833981519152816040516107d791906040808252600d908201526c42757965722062616c616e636560981b6060820152602081019190915260800190565b60405180910390a18481101561082f5760405162461bcd60e51b815260206004820152601e60248201527f4248343a20496e73756666696369656e7420484f4e4b2062616c616e63650000604482015260640161061a565b5f8054604051636eb1769f60e11b81523360048201523060248201526001600160a01b039091169063dd62ed3e90604401602060405180830381865afa15801561087b573d5f803e3d5ffd5b505050506040513d601f19601f8201168201806040525081019061089f9190612d84565b90505f8051602061308b833981519152816040516108e991906040808252600f908201526e427579657220616c6c6f77616e636560881b6060820152602081019190915260800190565b60405180910390a1858110156109415760405162461bcd60e51b815260206004820181905260248201527f4248353a20496e73756666696369656e7420484f4e4b20616c6c6f77616e6365604482015260640161061a565b5f80546040516323b872dd60e01b81526001600160a01b03909116906323b872dd906109759033908a908990600401612d9b565b6020604051808303815f875af1158015610991573d5f803e3d5ffd5b505050506040513d601f19601f820116820180604052508101906109b59190612dbf565b90505f8051602061308b833981519152816109d0575f6109d3565b60015b60408051818152601a818301527f5472616e7366657220746f2073656c6c65722073756363657373000000000000606082015260ff929092166020830152519081900360800190a180610a775760405162461bcd60e51b815260206004820152602660248201527f4248363a204661696c656420746f207472616e7366657220484f4e4b20746f2060448201526539b2b63632b960d11b606482015260840161061a565b5f80546002546040516323b872dd60e01b81526001600160a01b03928316926323b872dd92610ab0923392909116908b90600401612d9b565b6020604051808303815f875af1158015610acc573d5f803e3d5ffd5b505050506040513d601f19601f82011682018060405250810190610af09190612dbf565b90505f8051602061308b83398151915281610b0b575f610b0e565b60015b60408051818152601481830152735472616e7366657220666565207375636365737360601b606082015260ff929092166020830152519081900360800190a180610b9a5760405162461bcd60e51b815260206004820152601b60248201527f4248373a204661696c656420746f207472616e73666572206665650000000000604482015260640161061a565b6001546040516331a9108f60e11b8152600481018d90525f916001600160a01b031690636352211e90602401602060405180830381865afa158015610be1573d5f803e3d5ffd5b505050506040513d601f19601f82011682018060405250810190610c059190612dde565b604080518181526012818301527121bab93932b73a103432b9379037bbb732b960711b60608201526001600160a01b038316602082015290519192505f8051602061308b833981519152919081900360800190a1876001600160a01b0316816001600160a01b031614610cc65760405162461bcd60e51b815260206004820152602360248201527f4248383a2053656c6c6572206e6f206c6f6e676572206f776e7320746865206860448201526265726f60e81b606482015260840161061a565b60015f9054906101000a90046001600160a01b03166001600160a01b0316632374580f89338f6040518463ffffffff1660e01b8152600401610d0a93929190612d9b565b5f604051808303815f87803b158015610d21575f80fd5b505af1925050508015610d32575060015b610e8f57610d3e612df9565b806308c379a003610de75750610d52612e5f565b80610d5d5750610de9565b6040805181815260208183018190527f4865726f207472616e73666572206661696c6564207769746820726561736f6e60608301525f9082015290515f8051602061308b8339815191529181900360800190a180604051602001610dc19190612f0a565b60408051601f198184030181529082905262461bcd60e51b825261061a91600401612f4e565b505b604080518181526023818301527f4865726f207472616e73666572206661696c656420776974686f75742072656160608201526239b7b760e91b60808201525f602082015290515f8051602061308b8339815191529181900360a00190a160405162461bcd60e51b815260206004820152601a60248201527f424831303a204865726f207472616e73666572206661696c6564000000000000604482015260640161061a565b60408051818152601581830152744865726f207472616e73666572207375636365737360581b60608201526001602082015290515f8051602061308b8339815191529181900360800190a1610ee58b8d33612602565b876001600160a01b0316336001600160a01b03168d7f3013dc6733adbe758a9409c4e37c338087f8fca873194173f3f05cc47dbd004b8c604051610f2b91815260200190565b60405180910390a45050505050505050505050610f5460015f805160206130cb83398151915255565b50565b60605f60015b6007548111610fa9575f818152600660205260409020600101546001600160a01b03808616911603610f975781610f9381612f80565b9250505b80610fa181612f80565b915050610f5d565b505f8167ffffffffffffffff811115610fc457610fc4612e12565b604051908082528060200260200182016040528015610ffd57816020015b610fea612a51565b815260200190600190039081610fe25790505b5090505f60015b60075481116110be575f818152600660205260409020600101546001600160a01b038088169116036110ac575f8181526006602090815260409182902082516080810184528154815260018201546001600160a01b03169281019290925260028101549282019290925260039091015460ff1615156060820152835184908490811061109257611092612f98565b602002602001018190525081806110a890612f80565b9250505b806110b681612f80565b915050611004565b5090949350505050565b606060075483106111125760405162461bcd60e51b81526020600482015260146024820152734f6666736574206f7574206f6620626f756e647360601b604482015260640161061a565b5f8061111f856001612fac565b90505b600754811115801561113357508382105b15611171575f8181526006602052604090206003015460ff161561115f578161115b81612f80565b9250505b8061116981612f80565b915050611122565b505f8167ffffffffffffffff81111561118c5761118c612e12565b6040519080825280602002602001820160405280156111c557816020015b6111b2612a51565b8152602001906001900390816111aa5790505b5090505f806111d5876001612fac565b90505b60075481111580156111e957508382105b15611295575f8181526006602052604090206003015460ff1615611283575f8181526006602090815260409182902082516080810184528154815260018201546001600160a01b03169281019290925260028101549282019290925260039091015460ff1615156060820152835184908490811061126957611269612f98565b6020026020010181905250818061127f90612f80565b9250505b8061128d81612f80565b9150506111d8565b5090925050505b92915050565b6112aa612a51565b5f82815260086020526040812054908190036112e5575050604080516080810182529182525f60208301819052908201819052606082015290565b5f9081526006602090815260409182902082516080810184528154815260018201546001600160a01b03169281019290925260028101549282019290925260039091015460ff161515606082015292915050565b6113416125a5565b6113496125cb565b5f81116113985760405162461bcd60e51b815260206004820152601f60248201527f5072696365206d7573742062652067726561746572207468616e207a65726f00604482015260640161061a565b6001546040516331a9108f60e11b81526004810184905233916001600160a01b031690636352211e90602401602060405180830381865afa1580156113df573d5f803e3d5ffd5b505050506040513d601f19601f820116820180604052508101906114039190612dde565b6001600160a01b0316146114295760405162461bcd60e51b815260040161061a90612fbf565b60015460405163020604bf60e21b81526004810184905230916001600160a01b03169063081812fc90602401602060405180830381865afa158015611470573d5f803e3d5ffd5b505050506040513d601f19601f820116820180604052508101906114949190612dde565b6001600160a01b03161480611514575060015460405163e985e9c560e01b81523360048201523060248201526001600160a01b039091169063e985e9c590604401602060405180830381865afa1580156114f0573d5f803e3d5ffd5b505050506040513d601f19601f820116820180604052508101906115149190612dbf565b61156f5760405162461bcd60e51b815260206004820152602660248201527f436f6e7472616374206e6f7420617070726f76656420746f207472616e73666560448201526572206865726f60d01b606482015260840161061a565b5f82815260086020526040812054908190036115af5760078054905f61159483612f80565b90915550506007545f84815260086020526040902081905590505b604080516080810182528481523360208083019182528284018681526001606085018181525f8881526006855287812096518755945186830180546001600160a01b03929092166001600160a01b03199092169190911790559151600286015590516003909401805494151560ff19958616179055878352600990915292812080549092169092179055600a80549161164783612f80565b9091555050604051828152339084907f27bae1fb91b142a2956e7482d5370a469a66deae9cc45d8b0ec35067a54a18ad9060200160405180910390a35061169a60015f805160206130cb83398151915255565b5050565b6116a66125a5565b6116ae6125cb565b5f81815260086020526040812054908190036116dc5760405162461bcd60e51b815260040161061a90612ff6565b5f81815260066020526040902060018101546001600160a01b031633146117155760405162461bcd60e51b815260040161061a90612fbf565b600381015460ff166117395760405162461bcd60e51b815260040161061a90613023565b60038101805460ff199081169091555f600283018190558481526009602052604081208054909216909155600a8054916117728361305a565b9091555050604051339084907f1469c95e6068560d203e991d0ed20ae615cc13b5ed0642628ff399a2f73db8ae905f90a35050610f5460015f805160206130cb83398151915255565b6117c3612685565b6117cb6126b7565b6117d36126dc565b60405133907f385a28cf4754bd62fde01bcce82b673bd45cb357f835cf679a756de5d8e93bcd905f90a2565b611807612685565b61180f6125a5565b6005545f036118595760405162461bcd60e51b8152602060048201526016602482015275139bc8199959481d5c19185d19481c1c9bdc1bdcd95960521b604482015260640161061a565b6202a30060055461186a9190612fac565b4210156118b95760405162461bcd60e51b815260206004820152601c60248201527f54696d652d6c6f636b20706572696f64206e6f7420656c617073656400000000604482015260640161061a565b6003805460048054928390555f9081905560055560405190917f9cd93e7936e2206d443e2248d41bf1cd23257c6ed7599a39c7495ac35166e9529161190691848252602082015260400190565b60405180910390a150565b611919612685565b6119216125a5565b6103e88111156119735760405162461bcd60e51b815260206004820181905260248201527f4665652070657263656e746167652063616e6e6f742065786365656420313025604482015260640161061a565b60048190554260058190556040805183815260208101929092527fb4ff980088459cdfa5175c4296e7f1ec737c111006bec9c166c3e99bcecb43c79101611906565b6119bd6125a5565b6119c56125cb565b5f5b81811015611afc575f8383838181106119e2576119e2612f98565b9050602002013590505f60085f8381526020019081526020015f20549050805f03611a1f5760405162461bcd60e51b815260040161061a90612ff6565b5f81815260066020526040902060018101546001600160a01b03163314611a585760405162461bcd60e51b815260040161061a90612fbf565b600381015460ff16611a7c5760405162461bcd60e51b815260040161061a90613023565b60038101805460ff199081169091555f600283018190558481526009602052604081208054909216909155600a805491611ab58361305a565b9091555050604051339084907f1469c95e6068560d203e991d0ed20ae615cc13b5ed0642628ff399a2f73db8ae905f90a35050508080611af490612f80565b9150506119c7565b5061169a60015f805160206130cb83398151915255565b5f611b2c5f805160206130ab8339815191525460ff1690565b905090565b611b39612685565b611b416125a5565b5f8111611b905760405162461bcd60e51b815260206004820181905260248201527f416d6f756e74206d7573742062652067726561746572207468616e207a65726f604482015260640161061a565b5f546040516370a0823160e01b81523060048201526001600160a01b03909116906370a0823190602401602060405180830381865afa158015611bd5573d5f803e3d5ffd5b505050506040513d601f19601f82011682018060405250810190611bf99190612d84565b811115611c3f5760405162461bcd60e51b8152602060048201526014602482015273496e73756666696369656e742062616c616e636560601b604482015260640161061a565b611c5c611c4a6120b0565b5f546001600160a01b03169083612735565b7feaff4b37086828766ad3268786972c0cd24259d4c87a80f9d3963a3c3d999b0d611c856120b0565b604080516001600160a01b0390921682526020820184905201611906565b611cab612685565b611cb45f61278c565b565b611cbe612685565b604051632142170760e11b81526001600160a01b038416906342842e0e90611cee90309085908790600401612d9b565b5f604051808303815f87803b158015611d05575f80fd5b505af1158015611d17573d5f803e3d5ffd5b5050604080516001600160a01b0387811682526020820187905285168183015290517f97ec6c660323ba25a6bceaeb7ce3c0cbf2fd077f7219746ea60497ec6e43f4fd9350908190036060019150a1505050565b611d736125a5565b5f8281526008602052604081205490819003611da15760405162461bcd60e51b815260040161061a90612ff6565b5f81815260066020526040902060018101546001600160a01b03163314611dda5760405162461bcd60e51b815260040161061a90612fbf565b600381015460ff16611dfe5760405162461bcd60e51b815260040161061a90613023565b5f8311611e4d5760405162461bcd60e51b815260206004820152601f60248201527f5072696365206d7573742062652067726561746572207468616e207a65726f00604482015260640161061a565b60028101839055604051838152339085907fbbb7facdaaf76bceacc911e979955e190cde2d26dcdbc7dd10a966d9728487ae9060200160405180910390a350505050565b611e99612685565b611ea16127fc565b60405133907f720419d686e04979382078792dce127b7417b1f1b934573e9ae7a7d40eb86e87905f90a2565b611eef60405180606001604052805f81526020015f8152602001606081525090565b5f60075467ffffffffffffffff811115611f0b57611f0b612e12565b604051908082528060200260200182016040528015611f5b57816020015b604080516080810182525f8082526020808301829052928201819052606082015282525f19909201910181611f295790505b5090505f60015b6007548111612010575f818152600660209081526040918290208251608081018452815481526001808301546001600160a01b031693820193909352600282015493810193909352600381015460ff161515606084015291908590611fc79085612d71565b81518110611fd757611fd7612f98565b6020908102919091010152600381015460ff1615611ffd5782611ff981612f80565b9350505b508061200881612f80565b915050611f62565b5060405180606001604052806007548152602001828152602001838152509250505090565b5f8054604051636eb1769f60e11b81526001600160a01b03858116600483015284811660248301529091169063dd62ed3e90604401602060405180830381865afa158015612085573d5f803e3d5ffd5b505050506040513d601f19601f820116820180604052508101906120a99190612d84565b9392505050565b7f9016d09d72d40fdae2fd8ceac6b6234c7706214fd39c1cd1e609a0528c199300546001600160a01b031690565b60605f8267ffffffffffffffff8111156120fa576120fa612e12565b60405190808252806020026020018201604052801561213357816020015b612120612a51565b8152602001906001900390816121185790505b5090505f5b8381101561225b575f60085f87878581811061215657612156612f98565b9050602002013581526020019081526020015f20549050805f146121e6575f8181526006602090815260409182902082516080810184528154815260018201546001600160a01b03169281019290925260028101549282019290925260039091015460ff161515606082015283518490849081106121d6576121d6612f98565b6020026020010181905250612248565b604051806080016040528087878581811061220357612203612f98565b9050602002013581526020015f6001600160a01b031681526020015f81526020015f151581525083838151811061223c5761223c612f98565b60200260200101819052505b508061225381612f80565b915050612138565b509392505050565b7ff0c57e16840df040f15088dc2f81fe391c3923bec73e23a9662efc9c229c6a008054600160401b810460ff16159067ffffffffffffffff165f811580156122a85750825b90505f8267ffffffffffffffff1660011480156122c45750303b155b9050811580156122d2575080155b156122f05760405163f92ee8a960e01b815260040160405180910390fd5b845467ffffffffffffffff19166001178555831561231a57845460ff60401b1916600160401b1785555b61232333612844565b61232b612855565b612333612865565b5f80546001600160a01b03808b166001600160a01b031992831617909255600180548a84169083161790556002805492891692909116919091179055606460035583156123ba57845460ff60401b19168555604051600181527fc7f505b2f371ae2175ee4913f4499e1f2633a7b5936321eed1cdaeb6115181d29060200160405180910390a15b5050505050505050565b60605f80600a5467ffffffffffffffff8111156123e3576123e3612e12565b60405190808252806020026020018201604052801561241c57816020015b612409612a51565b8152602001906001900390816124015790505b5090505f60015b60075481111580156124365750600a5482105b156124ec575f818152600660209081526040808320548352600990915290205460ff16156124da575f8181526006602090815260409182902082516080810184528154815260018201546001600160a01b03169281019290925260028101549282019290925260039091015460ff161515606082015283518490849081106124c0576124c0612f98565b602002602001018190525081806124d690612f80565b9250505b806124e481612f80565b915050612423565b505060075490939092509050565b612502612685565b61250a6125a5565b600280546001600160a01b038381166001600160a01b031983168117909355604080519190921680825260208201939093527faaebcf1bfa00580e41d966056b48521fa9f202645c86d4ddf28113e617c1b1d3910160405180910390a15050565b612573612685565b6001600160a01b03811661259c57604051631e4fbdf760e01b81525f600482015260240161061a565b610f548161278c565b6125ad611b13565b15611cb45760405163d93c066560e01b815260040160405180910390fd5b5f805160206130cb8339815191528054600119016125fc57604051633ee5aeb560e01b815260040160405180910390fd5b60029055565b5f83815260066020908152604080832060038101805460ff199081169091556001820180546001600160a01b0319166001600160a01b0388161790556002820185905586855260099093529083208054909216909155600a805491926126678361305a565b919050555050505050565b60015f805160206130cb83398151915255565b3361268e6120b0565b6001600160a01b031614611cb45760405163118cdaa760e01b815233600482015260240161061a565b6126bf611b13565b611cb457604051638dfc202b60e01b815260040160405180910390fd5b6126e46126b7565b5f805160206130ab833981519152805460ff191681557f5db9ee0a495bf2e6ff9c91a7834c1ba4fdd244a5e8aa4e537bd38aeae4b073aa335b6040516001600160a01b039091168152602001611906565b604080516001600160a01b038416602482015260448082018490528251808303909101815260649091019091526020810180516001600160e01b031663a9059cbb60e01b179052612787908490612875565b505050565b7f9016d09d72d40fdae2fd8ceac6b6234c7706214fd39c1cd1e609a0528c19930080546001600160a01b031981166001600160a01b03848116918217845560405192169182907f8be0079c531659141344cd1fd0a4f28419497f9722a3daafe3b4186f6b6457e0905f90a3505050565b6128046125a5565b5f805160206130ab833981519152805460ff191660011781557f62e78cea01bee320cd4e420270b5ea74000d11b0c9f74754ebdbfc544b05a2583361271d565b61284c6128d6565b610f548161291f565b61285d6128d6565b611cb4612927565b61286d6128d6565b611cb461292f565b5f6128896001600160a01b0384168361294f565b905080515f141580156128ad5750808060200190518101906128ab9190612dbf565b155b1561278757604051635274afe760e01b81526001600160a01b038416600482015260240161061a565b7ff0c57e16840df040f15088dc2f81fe391c3923bec73e23a9662efc9c229c6a0054600160401b900460ff16611cb457604051631afcd79f60e31b815260040160405180910390fd5b6125736128d6565b6126726128d6565b6129376128d6565b5f805160206130ab833981519152805460ff19169055565b60606120a983835f845f80856001600160a01b03168486604051612973919061306f565b5f6040518083038185875af1925050503d805f81146129ad576040519150601f19603f3d011682016040523d82523d5f602084013e6129b2565b606091505b50915091506129c28683836129cc565b9695505050505050565b6060826129e1576129dc82612a28565b6120a9565b81511580156129f857506001600160a01b0384163b155b15612a2157604051639996b31560e01b81526001600160a01b038516600482015260240161061a565b50806120a9565b805115612a385780518082602001fd5b604051630a12f52160e11b815260040160405180910390fd5b60405180608001604052805f81526020015f6001600160a01b031681526020015f81526020015f151581525090565b5f60208284031215612a90575f80fd5b5035919050565b6001600160a01b0381168114610f54575f80fd5b5f60208284031215612abb575f80fd5b81356120a981612a97565b805182526020808201516001600160a01b031690830152604080820151908301526060908101511515910152565b5f8151808452602080850194508084015f5b83811015612b2c57612b19878351612ac6565b6080969096019590820190600101612b06565b509495945050505050565b602081525f6120a96020830184612af4565b5f8060408385031215612b5a575f80fd5b50508035926020909101359150565b6080810161129c8284612ac6565b5f8060208385031215612b88575f80fd5b823567ffffffffffffffff80821115612b9f575f80fd5b818501915085601f830112612bb2575f80fd5b813581811115612bc0575f80fd5b8660208260051b8501011115612bd4575f80fd5b60209290920196919550909350505050565b5f805f60608486031215612bf8575f80fd5b8335612c0381612a97565b9250602084013591506040840135612c1a81612a97565b809150509250925092565b5f60208083526080808401855183860152828601516040860152604086015160608087015281815180845260a08801915085830193505f92505b80831015612c8657612c72828551612ac6565b928501926001929092019190840190612c5f565b50979650505050505050565b5f8060408385031215612ca3575f80fd5b8235612cae81612a97565b91506020830135612cbe81612a97565b809150509250929050565b5f805f60608486031215612cdb575f80fd5b8335612ce681612a97565b92506020840135612cf681612a97565b91506040840135612c1a81612a97565b604081525f612d186040830185612af4565b90508260208301529392505050565b634e487b7160e01b5f52601160045260245ffd5b808202811582820484141761129c5761129c612d27565b5f82612d6c57634e487b7160e01b5f52601260045260245ffd5b500490565b8181038181111561129c5761129c612d27565b5f60208284031215612d94575f80fd5b5051919050565b6001600160a01b039384168152919092166020820152604081019190915260600190565b5f60208284031215612dcf575f80fd5b815180151581146120a9575f80fd5b5f60208284031215612dee575f80fd5b81516120a981612a97565b5f60033d1115612e0f5760045f803e505f5160e01c5b90565b634e487b7160e01b5f52604160045260245ffd5b601f8201601f1916810167ffffffffffffffff81118282101715612e5857634e487b7160e01b5f52604160045260245ffd5b6040525050565b5f60443d1015612e6c5790565b6040516003193d81016004833e81513d67ffffffffffffffff8160248401118184111715612e9c57505050505090565b8285019150815181811115612eb45750505050505090565b843d8701016020828501011115612ece5750505050505090565b612edd60208286010187612e26565b509095945050505050565b5f5b83811015612f02578181015183820152602001612eea565b50505f910152565b7f4248393a204865726f207472616e73666572206661696c65643a20000000000081525f8251612f4181601b850160208701612ee8565b91909101601b0192915050565b602081525f8251806020840152612f6c816040850160208701612ee8565b601f01601f19169190910160400192915050565b5f60018201612f9157612f91612d27565b5060010190565b634e487b7160e01b5f52603260045260245ffd5b8082018082111561129c5761129c612d27565b60208082526017908201527f596f7520646f6e2774206f776e2074686973206865726f000000000000000000604082015260600190565b60208082526013908201527212195c9bc8191bd95cc81b9bdd08195e1a5cdd606a1b604082015260600190565b6020808252601b908201527f4865726f206973206e6f74206c697374656420666f722073616c650000000000604082015260600190565b5f8161306857613068612d27565b505f190190565b5f8251613080818460208701612ee8565b919091019291505056fef6ff2ad7fc16bda2a7d32462729431bce3ebe9b75cc7c9b35a0adfbf7e7bb9e6cd5ed15c6e187e77e9aee88184c21f4f2182ab5827cb3b7e07fbedcd63f033009b779b17422d0df92223018b32b4d1fa46e071723d6817e2486d003becc55f00a26469706673582212208fced2e3a5b3776c2915f4bd701c35d66f9b846ea2b4147786c15e25a4c0383164736f6c63430008140033",
  "immutableReferences": {},
  "source": "// SPDX-License-Identifier: MIT\r\npragma solidity ^0.8.0;\r\n\r\nimport \"@openzeppelin/contracts/token/ERC20/IERC20.sol\";\r\nimport \"@openzeppelin/contracts/token/ERC20/utils/SafeERC20.sol\";\r\nimport \"@openzeppelin/contracts/token/ERC721/IERC721.sol\";\r\nimport \"@openzeppelin/contracts-upgradeable/access/OwnableUpgradeable.sol\";\r\nimport \"@openzeppelin/contracts-upgradeable/utils/ReentrancyGuardUpgradeable.sol\";\r\nimport \"@openzeppelin/contracts-upgradeable/proxy/utils/Initializable.sol\";\r\nimport \"@openzeppelin/contracts-upgradeable/utils/PausableUpgradeable.sol\";\r\n\r\n/// @title IHeroCoreDiamond\r\n/// @notice Interface for the DFK Hero Core Diamond contract\r\ninterface IHeroCoreDiamond is IERC721 {\r\n    function transferHeroAndEquipmentFrom(address _from, address _newOwner, uint256 _heroId) external;\r\n}\r\n\r\n/// @title HONKMarketplace\r\n/// @notice A marketplace contract for trading DFK Heroes using HONK tokens\r\ncontract HONKMarketplace is Initializable, OwnableUpgradeable, ReentrancyGuardUpgradeable, PausableUpgradeable {\r\n    using SafeERC20 for IERC20;\r\n\r\n    IERC20 public honkToken;\r\n    IHeroCoreDiamond public dfkHeroContract;\r\n\r\n    address public feeRecipient;\r\n    uint256 public FEE_PERCENTAGE;\r\n\r\n    // Time-lock related variables\r\n    uint256 public constant TIMELOCK_PERIOD = 2 days;\r\n    uint256 public proposedFeePercentage;\r\n    uint256 public proposedFeePercentageTimestamp;\r\n\r\n    /// @notice Structure to represent a hero in the marketplace\r\n    struct Hero {\r\n        uint256 id;\r\n        address owner;\r\n        uint256 price;\r\n        bool isForSale;\r\n    }\r\n\r\n    /// @notice Structure for debug information about a hero\r\n    struct HeroDebugInfo {\r\n        uint256 id;\r\n        address owner;\r\n        uint256 price;\r\n        bool isForSale;\r\n    }\r\n\r\n    /// @notice Structure for detailed debug information about the marketplace\r\n    struct DetailedDebugInfo {\r\n        uint256 heroCount;\r\n        uint256 listedCount;\r\n        HeroDebugInfo[] heroDetails;\r\n    }\r\n\r\n    mapping(uint256 => Hero) public heroes;\r\n    uint256 public heroCount;\r\n    mapping(uint256 => uint256) public heroIdToIndex;\r\n    mapping(uint256 => bool) public isHeroListed;\r\n    uint256 public listedHeroCount;\r\n\r\n    /// @notice Emitted when a hero is listed for sale\r\n    event HeroListed(uint256 indexed heroId, address indexed seller, uint256 price);\r\n    /// @notice Emitted when a hero is purchased\r\n    event HeroPurchased(uint256 indexed heroId, address indexed buyer, address indexed seller, uint256 price);\r\n    /// @notice Emitted when a hero listing is cancelled\r\n    event HeroUnlisted(uint256 indexed heroId, address indexed seller);\r\n    /// @notice Emitted when a hero's price is updated\r\n    event HeroPriceUpdated(uint256 indexed heroId, address indexed seller, uint256 newPrice);\r\n    /// @notice Emitted when the marketplace is paused\r\n    event MarketplacePaused(address indexed by);\r\n    /// @notice Emitted when the marketplace is unpaused\r\n    event MarketplaceUnpaused(address indexed by);\r\n    /// @notice Emitted when the fee percentage is updated\r\n    event FeePercentageUpdated(uint256 oldPercentage, uint256 newPercentage);\r\n    /// @notice Emitted when the fee recipient is updated\r\n    event FeeRecipientUpdated(address oldRecipient, address newRecipient);\r\n    /// @notice Emitted when a new fee percentage is proposed\r\n    event FeePercentageProposed(uint256 proposedPercentage, uint256 timestamp);\r\n    /// @notice Emitted when a proposed fee percentage is executed\r\n    event FeePercentageExecuted(uint256 oldPercentage, uint256 newPercentage);\r\n    /// @notice Emitted when funds are withdrawn by the owner\r\n    event FundsWithdrawn(address recipient, uint256 amount);\r\n    /// @notice Emitted when an ERC721 token is withdrawn by the owner\r\n    event ERC721Withdrawn(address token, uint256 tokenId, address recipient);\r\n\r\n    /// @custom:oz-upgrades-unsafe-allow constructor\r\n    constructor() {\r\n        _disableInitializers();\r\n    }\r\n\r\n    /// @notice Initializes the marketplace\r\n    /// @param _honkToken The address of the HONK token contract\r\n    /// @param _dfkHeroContract The address of the DFK hero contract\r\n    /// @param _feeRecipient The address that will receive marketplace fees\r\n    function initialize(address _honkToken, address _dfkHeroContract, address _feeRecipient) public initializer {\r\n        __Ownable_init(msg.sender);\r\n        __ReentrancyGuard_init();\r\n        __Pausable_init();\r\n        \r\n        honkToken = IERC20(_honkToken);\r\n        dfkHeroContract = IHeroCoreDiamond(_dfkHeroContract);\r\n        feeRecipient = _feeRecipient;\r\n        FEE_PERCENTAGE = 100; // 1% fee (100 / 10000)\r\n    }\r\n\r\n    /// @notice Sets a new fee recipient address\r\n    /// @param _newFeeRecipient The new address to receive marketplace fees\r\n    function setFeeRecipient(address _newFeeRecipient) external onlyOwner whenNotPaused {\r\n        address oldRecipient = feeRecipient;\r\n        feeRecipient = _newFeeRecipient;\r\n        emit FeeRecipientUpdated(oldRecipient, _newFeeRecipient);\r\n    }\r\n\r\n    /// @notice Pauses the marketplace\r\n    function pause() external onlyOwner {\r\n        _pause();\r\n        emit MarketplacePaused(msg.sender);\r\n    }\r\n\r\n    /// @notice Unpauses the marketplace\r\n    function unpause() external onlyOwner whenPaused {\r\n        _unpause();\r\n        emit MarketplaceUnpaused(msg.sender);\r\n    }\r\n\r\n    /// @notice Proposes a new fee percentage\r\n    /// @param _newFeePercentage The proposed new fee percentage (in basis points, e.g., 100 = 1%)\r\n    function proposeFeePercentage(uint256 _newFeePercentage) external onlyOwner whenNotPaused {\r\n        require(_newFeePercentage <= 1000, \"Fee percentage cannot exceed 10%\");\r\n        proposedFeePercentage = _newFeePercentage;\r\n        proposedFeePercentageTimestamp = block.timestamp;\r\n        emit FeePercentageProposed(_newFeePercentage, block.timestamp);\r\n    }\r\n\r\n    /// @notice Executes the proposed fee percentage change after the time-lock period\r\n    function executeFeePercentageUpdate() external onlyOwner whenNotPaused {\r\n        require(proposedFeePercentageTimestamp != 0, \"No fee update proposed\");\r\n        require(block.timestamp >= proposedFeePercentageTimestamp + TIMELOCK_PERIOD, \"Time-lock period not elapsed\");\r\n        \r\n        uint256 oldFeePercentage = FEE_PERCENTAGE;\r\n        FEE_PERCENTAGE = proposedFeePercentage;\r\n        \r\n        // Reset the proposal\r\n        proposedFeePercentage = 0;\r\n        proposedFeePercentageTimestamp = 0;\r\n        \r\n        emit FeePercentageExecuted(oldFeePercentage, FEE_PERCENTAGE);\r\n    }\r\n\r\n    /// @notice Allows the owner to withdraw accumulated fees\r\n    /// @param _amount The amount of HONK tokens to withdraw\r\n    function withdrawFees(uint256 _amount) external onlyOwner whenNotPaused {\r\n        require(_amount > 0, \"Amount must be greater than zero\");\r\n        require(_amount <= honkToken.balanceOf(address(this)), \"Insufficient balance\");\r\n        \r\n        honkToken.safeTransfer(owner(), _amount);\r\n        emit FundsWithdrawn(owner(), _amount);\r\n    }\r\n\r\n    /// @notice Allows the owner to withdraw any ERC721 tokens accidentally sent to the contract\r\n    /// @param _token The address of the ERC721 token contract\r\n    /// @param _tokenId The ID of the token to withdraw\r\n    /// @param _recipient The address to send the token to\r\n    function withdrawERC721(address _token, uint256 _tokenId, address _recipient) external onlyOwner {\r\n        IERC721(_token).safeTransferFrom(address(this), _recipient, _tokenId);\r\n        emit ERC721Withdrawn(_token, _tokenId, _recipient);\r\n    }\r\n\r\n    /// @notice Checks if a hero is currently listed for sale\r\n    /// @param _heroId The ID of the hero to check\r\n    /// @return bool True if the hero is listed, false otherwise\r\n    function checkIfHeroIsListed(uint256 _heroId) public view returns (bool) {\r\n        return isHeroListed[_heroId];\r\n    }\r\n\r\n    /// @notice Lists a hero for sale in the marketplace\r\n    /// @param _heroId The ID of the hero to be listed\r\n    /// @param _price The price in HONK tokens for which the hero is being listed\r\n    function listHero(uint256 _heroId, uint256 _price) external whenNotPaused nonReentrant {\r\n        require(_price > 0, \"Price must be greater than zero\");\r\n        require(dfkHeroContract.ownerOf(_heroId) == msg.sender, \"You don't own this hero\");\r\n        require(dfkHeroContract.getApproved(_heroId) == address(this) || \r\n                dfkHeroContract.isApprovedForAll(msg.sender, address(this)), \r\n                \"Contract not approved to transfer hero\");\r\n\r\n        uint256 index = heroIdToIndex[_heroId];\r\n        if (index == 0) {\r\n            heroCount++;\r\n            index = heroCount;\r\n            heroIdToIndex[_heroId] = index;\r\n        }\r\n\r\n        heroes[index] = Hero(_heroId, msg.sender, _price, true);\r\n        isHeroListed[_heroId] = true;\r\n        listedHeroCount++;\r\n\r\n        emit HeroListed(_heroId, msg.sender, _price);\r\n    }\r\n\r\n    /// @notice Cancels the listing of a hero\r\n    /// @param _heroId The ID of the hero to unlist\r\n    function cancelListing(uint256 _heroId) external whenNotPaused nonReentrant {\r\n        uint256 index = heroIdToIndex[_heroId];\r\n        require(index != 0, \"Hero does not exist\");\r\n        Hero storage hero = heroes[index];\r\n        require(hero.owner == msg.sender, \"You don't own this hero\");\r\n        require(hero.isForSale, \"Hero is not listed for sale\");\r\n\r\n        hero.isForSale = false;\r\n        hero.price = 0;\r\n        isHeroListed[_heroId] = false;\r\n        listedHeroCount--;\r\n\r\n        emit HeroUnlisted(_heroId, msg.sender);\r\n    }\r\n\r\n    /// @notice Bulk cancels the listings of multiple heroes\r\n    /// @param _heroIds An array of hero IDs to unlist\r\n    function bulkCancelListings(uint256[] calldata _heroIds) external whenNotPaused nonReentrant {\r\n        for (uint256 i = 0; i < _heroIds.length; i++) {\r\n            uint256 heroId = _heroIds[i];\r\n            uint256 index = heroIdToIndex[heroId];\r\n            require(index != 0, \"Hero does not exist\");\r\n            Hero storage hero = heroes[index];\r\n            require(hero.owner == msg.sender, \"You don't own this hero\");\r\n            require(hero.isForSale, \"Hero is not listed for sale\");\r\n\r\n            hero.isForSale = false;\r\n            hero.price = 0;\r\n            isHeroListed[heroId] = false;\r\n            listedHeroCount--;\r\n\r\n            emit HeroUnlisted(heroId, msg.sender);\r\n        }\r\n    }\r\n\r\n    /// @notice Updates the price of a listed hero\r\n    /// @param _heroId The ID of the hero\r\n    /// @param _newPrice The new price in HONK tokens\r\n    function updatePrice(uint256 _heroId, uint256 _newPrice) external whenNotPaused {\r\n        uint256 index = heroIdToIndex[_heroId];\r\n        require(index != 0, \"Hero does not exist\");\r\n        Hero storage hero = heroes[index];\r\n        require(hero.owner == msg.sender, \"You don't own this hero\");\r\n        require(hero.isForSale, \"Hero is not listed for sale\");\r\n        require(_newPrice > 0, \"Price must be greater than zero\");\r\n\r\n        hero.price = _newPrice;\r\n\r\n        emit HeroPriceUpdated(_heroId, msg.sender, _newPrice);\r\n    }\r\n\r\n    /// @notice Allows a user to purchase a listed hero\r\n    /// @param heroId The ID of the hero to be purchased\r\n    function buyHero(uint256 heroId) external whenNotPaused nonReentrant {\r\n        uint256 index = heroIdToIndex[heroId];\r\n        require(index != 0, \"BH1: Hero does not exist\");\r\n        Hero storage hero = heroes[index];\r\n        require(hero.isForSale, \"BH2: Hero is not for sale\");\r\n        require(msg.sender != hero.owner, \"BH3: Cannot buy your own hero\");\r\n\r\n        uint256 price = hero.price;\r\n        address seller = hero.owner;\r\n\r\n        uint256 fee = (price * FEE_PERCENTAGE) / 10000;\r\n        uint256 sellerAmount = price - fee;\r\n\r\n        uint256 buyerBalance = honkToken.balanceOf(msg.sender);\r\n        emit DebugLog(\"Buyer balance\", buyerBalance);\r\n        require(buyerBalance >= price, \"BH4: Insufficient HONK balance\");\r\n\r\n        uint256 allowance = honkToken.allowance(msg.sender, address(this));\r\n        emit DebugLog(\"Buyer allowance\", allowance);\r\n        require(allowance >= price, \"BH5: Insufficient HONK allowance\");\r\n\r\n        // Transfer HONK tokens\r\n        bool transferToSellerSuccess = honkToken.transferFrom(msg.sender, seller, sellerAmount);\r\n        emit DebugLog(\"Transfer to seller success\", transferToSellerSuccess ? 1 : 0);\r\n        require(transferToSellerSuccess, \"BH6: Failed to transfer HONK to seller\");\r\n\r\n        bool transferFeeSuccess = honkToken.transferFrom(msg.sender, feeRecipient, fee);\r\n        emit DebugLog(\"Transfer fee success\", transferFeeSuccess ? 1 : 0);\r\n        require(transferFeeSuccess, \"BH7: Failed to transfer fee\");\r\n\r\n        // Transfer the hero\r\n        address currentOwner = dfkHeroContract.ownerOf(heroId);\r\n        emit DebugLog(\"Current hero owner\", uint256(uint160(currentOwner)));\r\n        require(currentOwner == seller, \"BH8: Seller no longer owns the hero\");\r\n        \r\n        try dfkHeroContract.transferHeroAndEquipmentFrom(seller, msg.sender, heroId) {\r\n            emit DebugLog(\"Hero transfer success\", 1);\r\n        } catch Error(string memory reason) {\r\n            emit DebugLog(\"Hero transfer failed with reason\", 0);\r\n            revert(string(abi.encodePacked(\"BH9: Hero transfer failed: \", reason)));\r\n        } catch {\r\n            emit DebugLog(\"Hero transfer failed without reason\", 0);\r\n            revert(\"BH10: Hero transfer failed\");\r\n        }\r\n\r\n        _updateMarketplaceState(index, heroId, msg.sender);\r\n\r\n        emit HeroPurchased(heroId, msg.sender, seller, price);\r\n    }\r\n\r\n    event DebugLog(string message, uint256 value);\r\n\r\n    function _updateMarketplaceState(uint256 index, uint256 heroId, address newOwner) private {\r\n        Hero storage hero = heroes[index];\r\n        hero.isForSale = false;\r\n        hero.owner = newOwner;\r\n        hero.price = 0;\r\n        isHeroListed[heroId] = false;\r\n        listedHeroCount--;\r\n    }\r\n    /// @notice Retrieves the details of a specific hero\r\n    /// @param _heroId The ID of the hero\r\n    /// @return Hero The hero details\r\n    function getHero(uint256 _heroId) external view returns (Hero memory) {\r\n        uint256 index = heroIdToIndex[_heroId];\r\n        if (index == 0) {\r\n            return Hero(_heroId, address(0), 0, false);\r\n        }\r\n        return heroes[index];\r\n    }\r\n\r\n    /// @notice Gets the index of a hero in the heroes mapping\r\n    /// @param _heroId The ID of the hero\r\n    /// @return uint256 The index of the hero\r\n    function getHeroIndex(uint256 _heroId) external view returns (uint256) {\r\n        return heroIdToIndex[_heroId];\r\n    }\r\n\r\n    /// @notice Retrieves all listed heroes\r\n    /// @return Hero[] An array of all listed heroes\r\n    /// @return uint256 The total number of heroes in the marketplace\r\n    function getListedHeroes() external view returns (Hero[] memory, uint256) {\r\n        Hero[] memory listedHeroes = new Hero[](listedHeroCount);\r\n        uint256 index = 0;\r\n\r\n        for (uint256 i = 1; i <= heroCount && index < listedHeroCount; i++) {\r\n            if (isHeroListed[heroes[i].id]) {\r\n                listedHeroes[index] = heroes[i];\r\n                index++;\r\n            }\r\n        }\r\n\r\n        return (listedHeroes, heroCount);\r\n    }\r\n\r\n    /// @notice Retrieves detailed debug information about all heroes\r\n    /// @return DetailedDebugInfo Struct containing debug information\r\n    function getDetailedDebugInfo() external view returns (DetailedDebugInfo memory) {\r\n        HeroDebugInfo[] memory heroDetails = new HeroDebugInfo[](heroCount);\r\n        uint256 listedCount = 0;\r\n\r\n        for (uint256 i = 1; i <= heroCount; i++) {\r\n            Hero storage hero = heroes[i];\r\n            heroDetails[i-1] = HeroDebugInfo(hero.id, hero.owner, hero.price, hero.isForSale);\r\n            if (hero.isForSale) {\r\n                listedCount++;\r\n            }\r\n        }\r\n\r\n        return DetailedDebugInfo(heroCount, listedCount, heroDetails);\r\n    }\r\n\r\n    /// @notice Retrieves all heroes owned by a specific address\r\n    /// @param _owner The address of the owner\r\n    /// @return Hero[] An array of heroes owned by the specified address\r\n    function getHeroesByOwner(address _owner) external view returns (Hero[] memory) {\r\n        uint256 ownerHeroCount = 0;\r\n        for (uint256 i = 1; i <= heroCount; i++) {\r\n            if (heroes[i].owner == _owner) {\r\n                ownerHeroCount++;\r\n            }\r\n        }\r\n\r\n        Hero[] memory result = new Hero[](ownerHeroCount);\r\n        uint256 index = 0;\r\n        for (uint256 i = 1; i <= heroCount; i++) {\r\n            if (heroes[i].owner == _owner) {\r\n                result[index] = heroes[i];\r\n                index++;\r\n            }\r\n        }\r\n\r\n        return result;\r\n    }\r\n\r\n    /// @notice Retrieves a paginated list of listed heroes\r\n    /// @param _offset The starting index for pagination\r\n    /// @param _limit The maximum number of heroes to retrieve\r\n    /// @return Hero[] An array of listed heroes\r\n    function getListedHeroesPaginated(uint256 _offset, uint256 _limit) external view returns (Hero[] memory) {\r\n        require(_offset < heroCount, \"Offset out of bounds\");\r\n\r\n        uint256 resultCount = 0;\r\n        for (uint256 i = _offset + 1; i <= heroCount && resultCount < _limit; i++) {\r\n            if (heroes[i].isForSale) {\r\n                resultCount++;\r\n            }\r\n        }\r\n\r\n        Hero[] memory result = new Hero[](resultCount);\r\n        uint256 index = 0;\r\n        for (uint256 i = _offset + 1; i <= heroCount && index < resultCount; i++) {\r\n            if (heroes[i].isForSale) {\r\n                result[index] = heroes[i];\r\n                index++;\r\n            }\r\n        }\r\n\r\n        return result;\r\n    }\r\n\r\n    /// @notice Retrieves multiple heroes by their IDs\r\n    /// @param _heroIds An array of hero IDs\r\n    /// @return Hero[] An array of heroes corresponding to the provided IDs\r\n    function getMultipleHeroes(uint256[] calldata _heroIds) external view returns (Hero[] memory) {\r\n        Hero[] memory result = new Hero[](_heroIds.length);\r\n        for (uint256 i = 0; i < _heroIds.length; i++) {\r\n            uint256 index = heroIdToIndex[_heroIds[i]];\r\n            if (index != 0) {\r\n                result[i] = heroes[index];\r\n            } else {\r\n                result[i] = Hero(_heroIds[i], address(0), 0, false);\r\n            }\r\n        }\r\n        return result;\r\n    }\r\n\r\n    /// @notice Retrieves the address of the HONK token contract\r\n    /// @return address The address of the HONK token contract\r\n    function getHONKTokenAddress() public view returns (address) {\r\n        return address(honkToken);\r\n    }\r\n\r\n    /// @notice Retrieves the address of the DFK hero contract\r\n    /// @return address The address of the DFK hero contract\r\n    function getDFKHeroContractAddress() public view returns (address) {\r\n        return address(dfkHeroContract);\r\n    }\r\n\r\n    /// @notice Returns true if the contract is paused, and false otherwise\r\n    /// @return bool The current pause state of the contract\r\n    function paused() public view virtual override returns (bool) {\r\n        return super.paused();\r\n    }\r\n\r\n    function getFeePercentage() public view returns (uint256) {\r\n        return FEE_PERCENTAGE;\r\n    }\r\n\r\n    function checkAllowance(address owner, address spender) public view returns (uint256) {\r\n        return honkToken.allowance(owner, spender);\r\n    }\r\n}\r\n",
  "sourcePath": "C:\\Users\\Yin\\Documents\\vsprojects\\hero-marketplace-ui\\contracts\\HONKMarketplace.sol",
  "compiler": {
    "name": "solc",
    "version": "0.8.20+commit.a1b79de6.Emscripten.clang"
  },
  "schemaVersion": "3.4.16",
  "updatedAt": "2024-09-11T09:20:12.210Z",
  "networkType": "ethereum",
  "devdoc": {
    "errors": {
      "AddressEmptyCode(address)": [
        {
          "details": "There's no code at `target` (it is not a contract)."
        }
      ],
      "AddressInsufficientBalance(address)": [
        {
          "details": "The ETH balance of the account is not enough to perform the operation."
        }
      ],
      "EnforcedPause()": [
        {
          "details": "The operation failed because the contract is paused."
        }
      ],
      "ExpectedPause()": [
        {
          "details": "The operation failed because the contract is not paused."
        }
      ],
      "FailedInnerCall()": [
        {
          "details": "A call to an address target failed. The target may have reverted."
        }
      ],
      "InvalidInitialization()": [
        {
          "details": "The contract is already initialized."
        }
      ],
      "NotInitializing()": [
        {
          "details": "The contract is not initializing."
        }
      ],
      "OwnableInvalidOwner(address)": [
        {
          "details": "The owner is not a valid owner account. (eg. `address(0)`)"
        }
      ],
      "OwnableUnauthorizedAccount(address)": [
        {
          "details": "The caller account is not authorized to perform an operation."
        }
      ],
      "ReentrancyGuardReentrantCall()": [
        {
          "details": "Unauthorized reentrant call."
        }
      ],
      "SafeERC20FailedOperation(address)": [
        {
          "details": "An operation with an ERC20 token failed."
        }
      ]
    },
    "events": {
      "Initialized(uint64)": {
        "details": "Triggered when the contract has been initialized or reinitialized."
      },
      "Paused(address)": {
        "details": "Emitted when the pause is triggered by `account`."
      },
      "Unpaused(address)": {
        "details": "Emitted when the pause is lifted by `account`."
      }
    },
    "kind": "dev",
    "methods": {
      "bulkCancelListings(uint256[])": {
        "params": {
          "_heroIds": "An array of hero IDs to unlist"
        }
      },
      "buyHero(uint256)": {
        "params": {
          "heroId": "The ID of the hero to be purchased"
        }
      },
      "cancelListing(uint256)": {
        "params": {
          "_heroId": "The ID of the hero to unlist"
        }
      },
      "checkIfHeroIsListed(uint256)": {
        "params": {
          "_heroId": "The ID of the hero to check"
        },
        "returns": {
          "_0": "bool True if the hero is listed, false otherwise"
        }
      },
      "constructor": {
        "custom:oz-upgrades-unsafe-allow": "constructor"
      },
      "getDFKHeroContractAddress()": {
        "returns": {
          "_0": "address The address of the DFK hero contract"
        }
      },
      "getDetailedDebugInfo()": {
        "returns": {
          "_0": "DetailedDebugInfo Struct containing debug information"
        }
      },
      "getHONKTokenAddress()": {
        "returns": {
          "_0": "address The address of the HONK token contract"
        }
      },
      "getHero(uint256)": {
        "params": {
          "_heroId": "The ID of the hero"
        },
        "returns": {
          "_0": "Hero The hero details"
        }
      },
      "getHeroIndex(uint256)": {
        "params": {
          "_heroId": "The ID of the hero"
        },
        "returns": {
          "_0": "uint256 The index of the hero"
        }
      },
      "getHeroesByOwner(address)": {
        "params": {
          "_owner": "The address of the owner"
        },
        "returns": {
          "_0": "Hero[] An array of heroes owned by the specified address"
        }
      },
      "getListedHeroes()": {
        "returns": {
          "_0": "Hero[] An array of all listed heroes",
          "_1": "uint256 The total number of heroes in the marketplace"
        }
      },
      "getListedHeroesPaginated(uint256,uint256)": {
        "params": {
          "_limit": "The maximum number of heroes to retrieve",
          "_offset": "The starting index for pagination"
        },
        "returns": {
          "_0": "Hero[] An array of listed heroes"
        }
      },
      "getMultipleHeroes(uint256[])": {
        "params": {
          "_heroIds": "An array of hero IDs"
        },
        "returns": {
          "_0": "Hero[] An array of heroes corresponding to the provided IDs"
        }
      },
      "initialize(address,address,address)": {
        "params": {
          "_dfkHeroContract": "The address of the DFK hero contract",
          "_feeRecipient": "The address that will receive marketplace fees",
          "_honkToken": "The address of the HONK token contract"
        }
      },
      "listHero(uint256,uint256)": {
        "params": {
          "_heroId": "The ID of the hero to be listed",
          "_price": "The price in HONK tokens for which the hero is being listed"
        }
      },
      "owner()": {
        "details": "Returns the address of the current owner."
      },
      "paused()": {
        "returns": {
          "_0": "bool The current pause state of the contract"
        }
      },
      "proposeFeePercentage(uint256)": {
        "params": {
          "_newFeePercentage": "The proposed new fee percentage (in basis points, e.g., 100 = 1%)"
        }
      },
      "renounceOwnership()": {
        "details": "Leaves the contract without owner. It will not be possible to call `onlyOwner` functions. Can only be called by the current owner. NOTE: Renouncing ownership will leave the contract without an owner, thereby disabling any functionality that is only available to the owner."
      },
      "setFeeRecipient(address)": {
        "params": {
          "_newFeeRecipient": "The new address to receive marketplace fees"
        }
      },
      "transferOwnership(address)": {
        "details": "Transfers ownership of the contract to a new account (`newOwner`). Can only be called by the current owner."
      },
      "updatePrice(uint256,uint256)": {
        "params": {
          "_heroId": "The ID of the hero",
          "_newPrice": "The new price in HONK tokens"
        }
      },
      "withdrawERC721(address,uint256,address)": {
        "params": {
          "_recipient": "The address to send the token to",
          "_token": "The address of the ERC721 token contract",
          "_tokenId": "The ID of the token to withdraw"
        }
      },
      "withdrawFees(uint256)": {
        "params": {
          "_amount": "The amount of HONK tokens to withdraw"
        }
      }
    },
    "title": "HONKMarketplace",
    "version": 1
  },
  "userdoc": {
    "events": {
      "ERC721Withdrawn(address,uint256,address)": {
        "notice": "Emitted when an ERC721 token is withdrawn by the owner"
      },
      "FeePercentageExecuted(uint256,uint256)": {
        "notice": "Emitted when a proposed fee percentage is executed"
      },
      "FeePercentageProposed(uint256,uint256)": {
        "notice": "Emitted when a new fee percentage is proposed"
      },
      "FeePercentageUpdated(uint256,uint256)": {
        "notice": "Emitted when the fee percentage is updated"
      },
      "FeeRecipientUpdated(address,address)": {
        "notice": "Emitted when the fee recipient is updated"
      },
      "FundsWithdrawn(address,uint256)": {
        "notice": "Emitted when funds are withdrawn by the owner"
      },
      "HeroListed(uint256,address,uint256)": {
        "notice": "Emitted when a hero is listed for sale"
      },
      "HeroPriceUpdated(uint256,address,uint256)": {
        "notice": "Emitted when a hero's price is updated"
      },
      "HeroPurchased(uint256,address,address,uint256)": {
        "notice": "Emitted when a hero is purchased"
      },
      "HeroUnlisted(uint256,address)": {
        "notice": "Emitted when a hero listing is cancelled"
      },
      "MarketplacePaused(address)": {
        "notice": "Emitted when the marketplace is paused"
      },
      "MarketplaceUnpaused(address)": {
        "notice": "Emitted when the marketplace is unpaused"
      }
    },
    "kind": "user",
    "methods": {
      "bulkCancelListings(uint256[])": {
        "notice": "Bulk cancels the listings of multiple heroes"
      },
      "buyHero(uint256)": {
        "notice": "Allows a user to purchase a listed hero"
      },
      "cancelListing(uint256)": {
        "notice": "Cancels the listing of a hero"
      },
      "checkIfHeroIsListed(uint256)": {
        "notice": "Checks if a hero is currently listed for sale"
      },
      "executeFeePercentageUpdate()": {
        "notice": "Executes the proposed fee percentage change after the time-lock period"
      },
      "getDFKHeroContractAddress()": {
        "notice": "Retrieves the address of the DFK hero contract"
      },
      "getDetailedDebugInfo()": {
        "notice": "Retrieves detailed debug information about all heroes"
      },
      "getHONKTokenAddress()": {
        "notice": "Retrieves the address of the HONK token contract"
      },
      "getHero(uint256)": {
        "notice": "Retrieves the details of a specific hero"
      },
      "getHeroIndex(uint256)": {
        "notice": "Gets the index of a hero in the heroes mapping"
      },
      "getHeroesByOwner(address)": {
        "notice": "Retrieves all heroes owned by a specific address"
      },
      "getListedHeroes()": {
        "notice": "Retrieves all listed heroes"
      },
      "getListedHeroesPaginated(uint256,uint256)": {
        "notice": "Retrieves a paginated list of listed heroes"
      },
      "getMultipleHeroes(uint256[])": {
        "notice": "Retrieves multiple heroes by their IDs"
      },
      "initialize(address,address,address)": {
        "notice": "Initializes the marketplace"
      },
      "listHero(uint256,uint256)": {
        "notice": "Lists a hero for sale in the marketplace"
      },
      "pause()": {
        "notice": "Pauses the marketplace"
      },
      "paused()": {
        "notice": "Returns true if the contract is paused, and false otherwise"
      },
      "proposeFeePercentage(uint256)": {
        "notice": "Proposes a new fee percentage"
      },
      "setFeeRecipient(address)": {
        "notice": "Sets a new fee recipient address"
      },
      "unpause()": {
        "notice": "Unpauses the marketplace"
      },
      "updatePrice(uint256,uint256)": {
        "notice": "Updates the price of a listed hero"
      },
      "withdrawERC721(address,uint256,address)": {
        "notice": "Allows the owner to withdraw any ERC721 tokens accidentally sent to the contract"
      },
      "withdrawFees(uint256)": {
        "notice": "Allows the owner to withdraw accumulated fees"
      }
    },
    "notice": "A marketplace contract for trading DFK Heroes using HONK tokens",
    "version": 1
  }
}