{
  "contractName": "HONKToken",
  "abi": [
    {
      "inputs": [
        {
          "internalType": "uint256",
          "name": "initialSupply",
          "type": "uint256"
        }
      ],
      "stateMutability": "nonpayable",
      "type": "constructor"
    },
    {
      "inputs": [
        {
          "internalType": "address",
          "name": "spender",
          "type": "address"
        },
        {
          "internalType": "uint256",
          "name": "allowance",
          "type": "uint256"
        },
        {
          "internalType": "uint256",
          "name": "needed",
          "type": "uint256"
        }
      ],
      "name": "ERC20InsufficientAllowance",
      "type": "error"
    },
    {
      "inputs": [
        {
          "internalType": "address",
          "name": "sender",
          "type": "address"
        },
        {
          "internalType": "uint256",
          "name": "balance",
          "type": "uint256"
        },
        {
          "internalType": "uint256",
          "name": "needed",
          "type": "uint256"
        }
      ],
      "name": "ERC20InsufficientBalance",
      "type": "error"
    },
    {
      "inputs": [
        {
          "internalType": "address",
          "name": "approver",
          "type": "address"
        }
      ],
      "name": "ERC20InvalidApprover",
      "type": "error"
    },
    {
      "inputs": [
        {
          "internalType": "address",
          "name": "receiver",
          "type": "address"
        }
      ],
      "name": "ERC20InvalidReceiver",
      "type": "error"
    },
    {
      "inputs": [
        {
          "internalType": "address",
          "name": "sender",
          "type": "address"
        }
      ],
      "name": "ERC20InvalidSender",
      "type": "error"
    },
    {
      "inputs": [
        {
          "internalType": "address",
          "name": "spender",
          "type": "address"
        }
      ],
      "name": "ERC20InvalidSpender",
      "type": "error"
    },
    {
      "inputs": [
        {
          "internalType": "address",
          "name": "owner",
          "type": "address"
        }
      ],
      "name": "OwnableInvalidOwner",
      "type": "error"
    },
    {
      "inputs": [
        {
          "internalType": "address",
          "name": "account",
          "type": "address"
        }
      ],
      "name": "OwnableUnauthorizedAccount",
      "type": "error"
    },
    {
      "anonymous": false,
      "inputs": [
        {
          "indexed": true,
          "internalType": "address",
          "name": "owner",
          "type": "address"
        },
        {
          "indexed": true,
          "internalType": "address",
          "name": "spender",
          "type": "address"
        },
        {
          "indexed": false,
          "internalType": "uint256",
          "name": "value",
          "type": "uint256"
        }
      ],
      "name": "Approval",
      "type": "event"
    },
    {
      "anonymous": false,
      "inputs": [
        {
          "indexed": true,
          "internalType": "address",
          "name": "previousOwner",
          "type": "address"
        },
        {
          "indexed": true,
          "internalType": "address",
          "name": "newOwner",
          "type": "address"
        }
      ],
      "name": "OwnershipTransferred",
      "type": "event"
    },
    {
      "anonymous": false,
      "inputs": [
        {
          "indexed": true,
          "internalType": "address",
          "name": "to",
          "type": "address"
        },
        {
          "indexed": false,
          "internalType": "uint256",
          "name": "amount",
          "type": "uint256"
        }
      ],
      "name": "TokensMinted",
      "type": "event"
    },
    {
      "anonymous": false,
      "inputs": [
        {
          "indexed": true,
          "internalType": "address",
          "name": "from",
          "type": "address"
        },
        {
          "indexed": true,
          "internalType": "address",
          "name": "to",
          "type": "address"
        },
        {
          "indexed": false,
          "internalType": "uint256",
          "name": "value",
          "type": "uint256"
        }
      ],
      "name": "Transfer",
      "type": "event"
    },
    {
      "inputs": [],
      "name": "VERSION",
      "outputs": [
        {
          "internalType": "uint256",
          "name": "",
          "type": "uint256"
        }
      ],
      "stateMutability": "view",
      "type": "function"
    },
    {
      "inputs": [
        {
          "internalType": "address",
          "name": "owner",
          "type": "address"
        },
        {
          "internalType": "address",
          "name": "spender",
          "type": "address"
        }
      ],
      "name": "allowance",
      "outputs": [
        {
          "internalType": "uint256",
          "name": "",
          "type": "uint256"
        }
      ],
      "stateMutability": "view",
      "type": "function"
    },
    {
      "inputs": [
        {
          "internalType": "address",
          "name": "spender",
          "type": "address"
        },
        {
          "internalType": "uint256",
          "name": "value",
          "type": "uint256"
        }
      ],
      "name": "approve",
      "outputs": [
        {
          "internalType": "bool",
          "name": "",
          "type": "bool"
        }
      ],
      "stateMutability": "nonpayable",
      "type": "function"
    },
    {
      "inputs": [
        {
          "internalType": "address",
          "name": "account",
          "type": "address"
        }
      ],
      "name": "balanceOf",
      "outputs": [
        {
          "internalType": "uint256",
          "name": "",
          "type": "uint256"
        }
      ],
      "stateMutability": "view",
      "type": "function"
    },
    {
      "inputs": [],
      "name": "decimals",
      "outputs": [
        {
          "internalType": "uint8",
          "name": "",
          "type": "uint8"
        }
      ],
      "stateMutability": "view",
      "type": "function"
    },
    {
      "inputs": [],
      "name": "name",
      "outputs": [
        {
          "internalType": "string",
          "name": "",
          "type": "string"
        }
      ],
      "stateMutability": "view",
      "type": "function"
    },
    {
      "inputs": [],
      "name": "owner",
      "outputs": [
        {
          "internalType": "address",
          "name": "",
          "type": "address"
        }
      ],
      "stateMutability": "view",
      "type": "function"
    },
    {
      "inputs": [],
      "name": "renounceOwnership",
      "outputs": [],
      "stateMutability": "nonpayable",
      "type": "function"
    },
    {
      "inputs": [],
      "name": "symbol",
      "outputs": [
        {
          "internalType": "string",
          "name": "",
          "type": "string"
        }
      ],
      "stateMutability": "view",
      "type": "function"
    },
    {
      "inputs": [],
      "name": "totalSupply",
      "outputs": [
        {
          "internalType": "uint256",
          "name": "",
          "type": "uint256"
        }
      ],
      "stateMutability": "view",
      "type": "function"
    },
    {
      "inputs": [
        {
          "internalType": "address",
          "name": "to",
          "type": "address"
        },
        {
          "internalType": "uint256",
          "name": "value",
          "type": "uint256"
        }
      ],
      "name": "transfer",
      "outputs": [
        {
          "internalType": "bool",
          "name": "",
          "type": "bool"
        }
      ],
      "stateMutability": "nonpayable",
      "type": "function"
    },
    {
      "inputs": [
        {
          "internalType": "address",
          "name": "newOwner",
          "type": "address"
        }
      ],
      "name": "transferOwnership",
      "outputs": [],
      "stateMutability": "nonpayable",
      "type": "function"
    },
    {
      "inputs": [
        {
          "internalType": "uint256",
          "name": "amount",
          "type": "uint256"
        }
      ],
      "name": "mint",
      "outputs": [],
      "stateMutability": "nonpayable",
      "type": "function"
    },
    {
      "inputs": [
        {
          "internalType": "uint256",
          "name": "amount",
          "type": "uint256"
        }
      ],
      "name": "mintForTesting",
      "outputs": [],
      "stateMutability": "nonpayable",
      "type": "function"
    },
    {
      "inputs": [
        {
          "internalType": "address",
          "name": "sender",
          "type": "address"
        },
        {
          "internalType": "address",
          "name": "recipient",
          "type": "address"
        },
        {
          "internalType": "uint256",
          "name": "amount",
          "type": "uint256"
        }
      ],
      "name": "transferFrom",
      "outputs": [
        {
          "internalType": "bool",
          "name": "",
          "type": "bool"
        }
      ],
      "stateMutability": "nonpayable",
      "type": "function"
    },
    {
      "inputs": [
        {
          "internalType": "address",
          "name": "account",
          "type": "address"
        }
      ],
      "name": "getBalanceWithBonus",
      "outputs": [
        {
          "internalType": "uint256",
          "name": "",
          "type": "uint256"
        }
      ],
      "stateMutability": "view",
      "type": "function"
    }
  ],
  "bytecode": "0x608060405234801562000010575f80fd5b5060405162000dc838038062000dc88339810160408190526200003391620002c1565b604080518082018252600480825263484f4e4b60e01b60208084018290528451808601909552918452908301523391600362000070838262000379565b5060046200007f828262000379565b5050506001600160a01b038116620000b157604051631e4fbdf760e01b81525f60048201526024015b60405180910390fd5b620000bc8162000105565b50620000c9338262000156565b60405181815233907f3f2c9d57c068687834f0de942a9babb9e5acab57d516d3480a3c16ee165a42739060200160405180910390a25062000467565b600580546001600160a01b038381166001600160a01b0319831681179093556040519116919082907f8be0079c531659141344cd1fd0a4f28419497f9722a3daafe3b4186f6b6457e0905f90a35050565b6001600160a01b038216620001815760405163ec442f0560e01b81525f6004820152602401620000a8565b6200018e5f838362000192565b5050565b6001600160a01b038316620001c0578060025f828254620001b4919062000441565b90915550620002329050565b6001600160a01b0383165f9081526020819052604090205481811015620002145760405163391434e360e21b81526001600160a01b03851660048201526024810182905260448101839052606401620000a8565b6001600160a01b0384165f9081526020819052604090209082900390555b6001600160a01b03821662000250576002805482900390556200026e565b6001600160a01b0382165f9081526020819052604090208054820190555b816001600160a01b0316836001600160a01b03167fddf252ad1be2c89b69c2b068fc378daa952ba7f163c4a11628f55a4df523b3ef83604051620002b491815260200190565b60405180910390a3505050565b5f60208284031215620002d2575f80fd5b5051919050565b634e487b7160e01b5f52604160045260245ffd5b600181811c908216806200030257607f821691505b6020821081036200032157634e487b7160e01b5f52602260045260245ffd5b50919050565b601f82111562000374575f81815260208120601f850160051c810160208610156200034f5750805b601f850160051c820191505b8181101562000370578281556001016200035b565b5050505b505050565b81516001600160401b03811115620003955762000395620002d9565b620003ad81620003a68454620002ed565b8462000327565b602080601f831160018114620003e3575f8415620003cb5750858301515b5f19600386901b1c1916600185901b17855562000370565b5f85815260208120601f198616915b828110156200041357888601518255948401946001909101908401620003f2565b50858210156200043157878501515f19600388901b60f8161c191681555b5050505050600190811b01905550565b808201808211156200046157634e487b7160e01b5f52601160045260245ffd5b92915050565b61095380620004755f395ff3fe608060405234801561000f575f80fd5b50600436106100fb575f3560e01c806373c5b32311610093578063a9059cbb11610063578063a9059cbb146101ef578063dd62ed3e14610202578063f2fde38b1461023a578063ffa1ad741461024d575f80fd5b806373c5b323146101b95780638da5cb5b146101cc57806395d89b41146101e7578063a0712d6814610174575f80fd5b8063313ce567116100ce578063313ce56714610165578063378d058d1461017457806370a0823114610189578063715018a6146101b1575f80fd5b806306fdde03146100ff578063095ea7b31461011d57806318160ddd1461014057806323b872dd14610152575b5f80fd5b610107610255565b6040516101149190610797565b60405180910390f35b61013061012b3660046107fd565b6102e5565b6040519015158152602001610114565b6002545b604051908152602001610114565b610130610160366004610825565b6102fe565b60405160128152602001610114565b61018761018236600461085e565b610321565b005b610144610197366004610875565b6001600160a01b03165f9081526020819052604090205490565b61018761036b565b6101446101c7366004610875565b61037e565b6005546040516001600160a01b039091168152602001610114565b6101076103a1565b6101306101fd3660046107fd565b6103b0565b610144610210366004610895565b6001600160a01b039182165f90815260016020908152604080832093909416825291909152205490565b610187610248366004610875565b6103bd565b610144600281565b606060038054610264906108c6565b80601f0160208091040260200160405190810160405280929190818152602001828054610290906108c6565b80156102db5780601f106102b2576101008083540402835291602001916102db565b820191905f5260205f20905b8154815290600101906020018083116102be57829003601f168201915b5050505050905090565b5f336102f28185856103ff565b60019150505b92915050565b5f3361030b858285610411565b61031685858561048c565b506001949350505050565b6103296104e9565b6103333382610516565b60405181815233907f3f2c9d57c068687834f0de942a9babb9e5acab57d516d3480a3c16ee165a42739060200160405180910390a250565b6103736104e9565b61037c5f61054e565b565b6001600160a01b0381165f908152602081905260408120546102f89060646108fe565b606060048054610264906108c6565b5f336102f281858561048c565b6103c56104e9565b6001600160a01b0381166103f357604051631e4fbdf760e01b81525f60048201526024015b60405180910390fd5b6103fc8161054e565b50565b61040c838383600161059f565b505050565b6001600160a01b038381165f908152600160209081526040808320938616835292905220545f198114610486578181101561047857604051637dc7a0d960e11b81526001600160a01b038416600482015260248101829052604481018390526064016103ea565b61048684848484035f61059f565b50505050565b6001600160a01b0383166104b557604051634b637e8f60e11b81525f60048201526024016103ea565b6001600160a01b0382166104de5760405163ec442f0560e01b81525f60048201526024016103ea565b61040c838383610671565b6005546001600160a01b0316331461037c5760405163118cdaa760e01b81523360048201526024016103ea565b6001600160a01b03821661053f5760405163ec442f0560e01b81525f60048201526024016103ea565b61054a5f8383610671565b5050565b600580546001600160a01b038381166001600160a01b0319831681179093556040519116919082907f8be0079c531659141344cd1fd0a4f28419497f9722a3daafe3b4186f6b6457e0905f90a35050565b6001600160a01b0384166105c85760405163e602df0560e01b81525f60048201526024016103ea565b6001600160a01b0383166105f157604051634a1406b160e11b81525f60048201526024016103ea565b6001600160a01b038085165f908152600160209081526040808320938716835292905220829055801561048657826001600160a01b0316846001600160a01b03167f8c5be1e5ebec7d5bd14f71427d1e84f3dd0314c0f7b2291e5b200ac8c7c3b9258460405161066391815260200190565b60405180910390a350505050565b6001600160a01b03831661069b578060025f82825461069091906108fe565b9091555061070b9050565b6001600160a01b0383165f90815260208190526040902054818110156106ed5760405163391434e360e21b81526001600160a01b038516600482015260248101829052604481018390526064016103ea565b6001600160a01b0384165f9081526020819052604090209082900390555b6001600160a01b03821661072757600280548290039055610745565b6001600160a01b0382165f9081526020819052604090208054820190555b816001600160a01b0316836001600160a01b03167fddf252ad1be2c89b69c2b068fc378daa952ba7f163c4a11628f55a4df523b3ef8360405161078a91815260200190565b60405180910390a3505050565b5f6020808352835180828501525f5b818110156107c2578581018301518582016040015282016107a6565b505f604082860101526040601f19601f8301168501019250505092915050565b80356001600160a01b03811681146107f8575f80fd5b919050565b5f806040838503121561080e575f80fd5b610817836107e2565b946020939093013593505050565b5f805f60608486031215610837575f80fd5b610840846107e2565b925061084e602085016107e2565b9150604084013590509250925092565b5f6020828403121561086e575f80fd5b5035919050565b5f60208284031215610885575f80fd5b61088e826107e2565b9392505050565b5f80604083850312156108a6575f80fd5b6108af836107e2565b91506108bd602084016107e2565b90509250929050565b600181811c908216806108da57607f821691505b6020821081036108f857634e487b7160e01b5f52602260045260245ffd5b50919050565b808201808211156102f857634e487b7160e01b5f52601160045260245ffdfea2646970667358221220ac28e355f415bbd66b4213d93966a5c302feb8e06095824357ea31a6d746b30164736f6c63430008140033",
  "immutableReferences": {},
  "source": "// SPDX-License-Identifier: MIT\r\npragma solidity ^0.8.0;\r\n\r\nimport \"@openzeppelin/contracts/token/ERC20/ERC20.sol\";\r\nimport \"@openzeppelin/contracts/access/Ownable.sol\";\r\n\r\n/// @title HONKToken\r\n/// @notice This contract implements the HONK token, an ERC20 token with minting capabilities\r\ncontract HONKToken is ERC20, Ownable {\r\n    uint256 public constant VERSION = 2;\r\n\r\n    /// @notice Emitted when tokens are minted\r\n    /// @param to The address receiving the minted tokens\r\n    /// @param amount The number of tokens minted\r\n    event TokensMinted(address indexed to, uint256 amount);\r\n\r\n    /// @notice Constructs the HONKToken contract\r\n    /// @param initialSupply The initial supply of HONK tokens to mint\r\n    constructor(uint256 initialSupply) ERC20(\"HONK\", \"HONK\") Ownable(msg.sender) {\r\n        _mint(msg.sender, initialSupply);\r\n        emit TokensMinted(msg.sender, initialSupply);\r\n    }\r\n\r\n    /// @notice Allows the owner to mint new tokens\r\n    /// @param amount The number of tokens to mint\r\n    function mint(uint256 amount) public onlyOwner {\r\n        _mint(msg.sender, amount);\r\n        emit TokensMinted(msg.sender, amount);\r\n    }\r\n\r\n    /// @notice Mints tokens for testing purposes\r\n    /// @dev Remove or restrict this function before deploying to production\r\n    /// @param amount The number of tokens to mint\r\n    function mintForTesting(uint256 amount) public onlyOwner {\r\n        _mint(msg.sender, amount);\r\n        emit TokensMinted(msg.sender, amount);\r\n    }\r\n\r\n    /// @notice Moves `amount` tokens from `sender` to `recipient` using the allowance mechanism\r\n    /// @dev Overrides the OpenZeppelin implementation to add custom logic if needed\r\n    /// @param sender The address to transfer tokens from\r\n    /// @param recipient The address to transfer tokens to\r\n    /// @param amount The amount of tokens to transfer\r\n    /// @return bool Returns true if the operation was successful\r\n    function transferFrom(address sender, address recipient, uint256 amount) public virtual override returns (bool) {\r\n        address spender = _msgSender();\r\n        _spendAllowance(sender, spender, amount);\r\n        _transfer(sender, recipient, amount);\r\n        return true;\r\n    }\r\n\r\n    /// @notice A new function to demonstrate the upgrade\r\n    /// @param account The address to check the balance for\r\n    /// @return uint256 The balance of the account\r\n    function getBalanceWithBonus(address account) public view returns (uint256) {\r\n        return balanceOf(account) + 100; // Add a bonus of 100 tokens for demonstration\r\n    }\r\n}",
  "sourcePath": "C:\\Users\\Yin\\Documents\\vsprojects\\hero-marketplace-ui\\contracts\\HONKToken.sol",
  "compiler": {
    "name": "solc",
    "version": "0.8.20+commit.a1b79de6.Emscripten.clang"
  },
  "schemaVersion": "3.4.16",
  "updatedAt": "2024-09-11T09:15:46.288Z",
  "networkType": "ethereum",
  "devdoc": {
    "errors": {
      "ERC20InsufficientAllowance(address,uint256,uint256)": [
        {
          "details": "Indicates a failure with the `spender`s `allowance`. Used in transfers.",
          "params": {
            "allowance": "Amount of tokens a `spender` is allowed to operate with.",
            "needed": "Minimum amount required to perform a transfer.",
            "spender": "Address that may be allowed to operate on tokens without being their owner."
          }
        }
      ],
      "ERC20InsufficientBalance(address,uint256,uint256)": [
        {
          "details": "Indicates an error related to the current `balance` of a `sender`. Used in transfers.",
          "params": {
            "balance": "Current balance for the interacting account.",
            "needed": "Minimum amount required to perform a transfer.",
            "sender": "Address whose tokens are being transferred."
          }
        }
      ],
      "ERC20InvalidApprover(address)": [
        {
          "details": "Indicates a failure with the `approver` of a token to be approved. Used in approvals.",
          "params": {
            "approver": "Address initiating an approval operation."
          }
        }
      ],
      "ERC20InvalidReceiver(address)": [
        {
          "details": "Indicates a failure with the token `receiver`. Used in transfers.",
          "params": {
            "receiver": "Address to which tokens are being transferred."
          }
        }
      ],
      "ERC20InvalidSender(address)": [
        {
          "details": "Indicates a failure with the token `sender`. Used in transfers.",
          "params": {
            "sender": "Address whose tokens are being transferred."
          }
        }
      ],
      "ERC20InvalidSpender(address)": [
        {
          "details": "Indicates a failure with the `spender` to be approved. Used in approvals.",
          "params": {
            "spender": "Address that may be allowed to operate on tokens without being their owner."
          }
        }
      ],
      "OwnableInvalidOwner(address)": [
        {
          "details": "The owner is not a valid owner account. (eg. `address(0)`)"
        }
      ],
      "OwnableUnauthorizedAccount(address)": [
        {
          "details": "The caller account is not authorized to perform an operation."
        }
      ]
    },
    "events": {
      "Approval(address,address,uint256)": {
        "details": "Emitted when the allowance of a `spender` for an `owner` is set by a call to {approve}. `value` is the new allowance."
      },
      "TokensMinted(address,uint256)": {
        "params": {
          "amount": "The number of tokens minted",
          "to": "The address receiving the minted tokens"
        }
      },
      "Transfer(address,address,uint256)": {
        "details": "Emitted when `value` tokens are moved from one account (`from`) to another (`to`). Note that `value` may be zero."
      }
    },
    "kind": "dev",
    "methods": {
      "allowance(address,address)": {
        "details": "See {IERC20-allowance}."
      },
      "approve(address,uint256)": {
        "details": "See {IERC20-approve}. NOTE: If `value` is the maximum `uint256`, the allowance is not updated on `transferFrom`. This is semantically equivalent to an infinite approval. Requirements: - `spender` cannot be the zero address."
      },
      "balanceOf(address)": {
        "details": "See {IERC20-balanceOf}."
      },
      "constructor": {
        "params": {
          "initialSupply": "The initial supply of HONK tokens to mint"
        }
      },
      "decimals()": {
        "details": "Returns the number of decimals used to get its user representation. For example, if `decimals` equals `2`, a balance of `505` tokens should be displayed to a user as `5.05` (`505 / 10 ** 2`). Tokens usually opt for a value of 18, imitating the relationship between Ether and Wei. This is the default value returned by this function, unless it's overridden. NOTE: This information is only used for _display_ purposes: it in no way affects any of the arithmetic of the contract, including {IERC20-balanceOf} and {IERC20-transfer}."
      },
      "getBalanceWithBonus(address)": {
        "params": {
          "account": "The address to check the balance for"
        },
        "returns": {
          "_0": "uint256 The balance of the account"
        }
      },
      "mint(uint256)": {
        "params": {
          "amount": "The number of tokens to mint"
        }
      },
      "mintForTesting(uint256)": {
        "details": "Remove or restrict this function before deploying to production",
        "params": {
          "amount": "The number of tokens to mint"
        }
      },
      "name()": {
        "details": "Returns the name of the token."
      },
      "owner()": {
        "details": "Returns the address of the current owner."
      },
      "renounceOwnership()": {
        "details": "Leaves the contract without owner. It will not be possible to call `onlyOwner` functions. Can only be called by the current owner. NOTE: Renouncing ownership will leave the contract without an owner, thereby disabling any functionality that is only available to the owner."
      },
      "symbol()": {
        "details": "Returns the symbol of the token, usually a shorter version of the name."
      },
      "totalSupply()": {
        "details": "See {IERC20-totalSupply}."
      },
      "transfer(address,uint256)": {
        "details": "See {IERC20-transfer}. Requirements: - `to` cannot be the zero address. - the caller must have a balance of at least `value`."
      },
      "transferFrom(address,address,uint256)": {
        "details": "Overrides the OpenZeppelin implementation to add custom logic if needed",
        "params": {
          "amount": "The amount of tokens to transfer",
          "recipient": "The address to transfer tokens to",
          "sender": "The address to transfer tokens from"
        },
        "returns": {
          "_0": "bool Returns true if the operation was successful"
        }
      },
      "transferOwnership(address)": {
        "details": "Transfers ownership of the contract to a new account (`newOwner`). Can only be called by the current owner."
      }
    },
    "title": "HONKToken",
    "version": 1
  },
  "userdoc": {
    "events": {
      "TokensMinted(address,uint256)": {
        "notice": "Emitted when tokens are minted"
      }
    },
    "kind": "user",
    "methods": {
      "constructor": {
        "notice": "Constructs the HONKToken contract"
      },
      "getBalanceWithBonus(address)": {
        "notice": "A new function to demonstrate the upgrade"
      },
      "mint(uint256)": {
        "notice": "Allows the owner to mint new tokens"
      },
      "mintForTesting(uint256)": {
        "notice": "Mints tokens for testing purposes"
      },
      "transferFrom(address,address,uint256)": {
        "notice": "Moves `amount` tokens from `sender` to `recipient` using the allowance mechanism"
      }
    },
    "notice": "This contract implements the HONK token, an ERC20 token with minting capabilities",
    "version": 1
  }
}