{
  "contractName": "HONKToken",
  "abi": [
    {
      "inputs": [
        {
          "internalType": "uint256",
          "name": "initialSupply",
          "type": "uint256"
        }
      ],
      "stateMutability": "nonpayable",
      "type": "constructor"
    },
    {
      "inputs": [
        {
          "internalType": "address",
          "name": "spender",
          "type": "address"
        },
        {
          "internalType": "uint256",
          "name": "allowance",
          "type": "uint256"
        },
        {
          "internalType": "uint256",
          "name": "needed",
          "type": "uint256"
        }
      ],
      "name": "ERC20InsufficientAllowance",
      "type": "error"
    },
    {
      "inputs": [
        {
          "internalType": "address",
          "name": "sender",
          "type": "address"
        },
        {
          "internalType": "uint256",
          "name": "balance",
          "type": "uint256"
        },
        {
          "internalType": "uint256",
          "name": "needed",
          "type": "uint256"
        }
      ],
      "name": "ERC20InsufficientBalance",
      "type": "error"
    },
    {
      "inputs": [
        {
          "internalType": "address",
          "name": "approver",
          "type": "address"
        }
      ],
      "name": "ERC20InvalidApprover",
      "type": "error"
    },
    {
      "inputs": [
        {
          "internalType": "address",
          "name": "receiver",
          "type": "address"
        }
      ],
      "name": "ERC20InvalidReceiver",
      "type": "error"
    },
    {
      "inputs": [
        {
          "internalType": "address",
          "name": "sender",
          "type": "address"
        }
      ],
      "name": "ERC20InvalidSender",
      "type": "error"
    },
    {
      "inputs": [
        {
          "internalType": "address",
          "name": "spender",
          "type": "address"
        }
      ],
      "name": "ERC20InvalidSpender",
      "type": "error"
    },
    {
      "inputs": [
        {
          "internalType": "address",
          "name": "owner",
          "type": "address"
        }
      ],
      "name": "OwnableInvalidOwner",
      "type": "error"
    },
    {
      "inputs": [
        {
          "internalType": "address",
          "name": "account",
          "type": "address"
        }
      ],
      "name": "OwnableUnauthorizedAccount",
      "type": "error"
    },
    {
      "anonymous": false,
      "inputs": [
        {
          "indexed": true,
          "internalType": "address",
          "name": "owner",
          "type": "address"
        },
        {
          "indexed": true,
          "internalType": "address",
          "name": "spender",
          "type": "address"
        },
        {
          "indexed": false,
          "internalType": "uint256",
          "name": "value",
          "type": "uint256"
        }
      ],
      "name": "Approval",
      "type": "event"
    },
    {
      "anonymous": false,
      "inputs": [
        {
          "indexed": true,
          "internalType": "address",
          "name": "previousOwner",
          "type": "address"
        },
        {
          "indexed": true,
          "internalType": "address",
          "name": "newOwner",
          "type": "address"
        }
      ],
      "name": "OwnershipTransferred",
      "type": "event"
    },
    {
      "anonymous": false,
      "inputs": [
        {
          "indexed": true,
          "internalType": "address",
          "name": "to",
          "type": "address"
        },
        {
          "indexed": false,
          "internalType": "uint256",
          "name": "amount",
          "type": "uint256"
        }
      ],
      "name": "TokensMinted",
      "type": "event"
    },
    {
      "anonymous": false,
      "inputs": [
        {
          "indexed": true,
          "internalType": "address",
          "name": "from",
          "type": "address"
        },
        {
          "indexed": true,
          "internalType": "address",
          "name": "to",
          "type": "address"
        },
        {
          "indexed": false,
          "internalType": "uint256",
          "name": "value",
          "type": "uint256"
        }
      ],
      "name": "Transfer",
      "type": "event"
    },
    {
      "inputs": [
        {
          "internalType": "address",
          "name": "owner",
          "type": "address"
        },
        {
          "internalType": "address",
          "name": "spender",
          "type": "address"
        }
      ],
      "name": "allowance",
      "outputs": [
        {
          "internalType": "uint256",
          "name": "",
          "type": "uint256"
        }
      ],
      "stateMutability": "view",
      "type": "function",
      "constant": true
    },
    {
      "inputs": [
        {
          "internalType": "address",
          "name": "spender",
          "type": "address"
        },
        {
          "internalType": "uint256",
          "name": "value",
          "type": "uint256"
        }
      ],
      "name": "approve",
      "outputs": [
        {
          "internalType": "bool",
          "name": "",
          "type": "bool"
        }
      ],
      "stateMutability": "nonpayable",
      "type": "function"
    },
    {
      "inputs": [
        {
          "internalType": "address",
          "name": "account",
          "type": "address"
        }
      ],
      "name": "balanceOf",
      "outputs": [
        {
          "internalType": "uint256",
          "name": "",
          "type": "uint256"
        }
      ],
      "stateMutability": "view",
      "type": "function",
      "constant": true
    },
    {
      "inputs": [],
      "name": "decimals",
      "outputs": [
        {
          "internalType": "uint8",
          "name": "",
          "type": "uint8"
        }
      ],
      "stateMutability": "view",
      "type": "function",
      "constant": true
    },
    {
      "inputs": [],
      "name": "name",
      "outputs": [
        {
          "internalType": "string",
          "name": "",
          "type": "string"
        }
      ],
      "stateMutability": "view",
      "type": "function",
      "constant": true
    },
    {
      "inputs": [],
      "name": "owner",
      "outputs": [
        {
          "internalType": "address",
          "name": "",
          "type": "address"
        }
      ],
      "stateMutability": "view",
      "type": "function",
      "constant": true
    },
    {
      "inputs": [],
      "name": "renounceOwnership",
      "outputs": [],
      "stateMutability": "nonpayable",
      "type": "function"
    },
    {
      "inputs": [],
      "name": "symbol",
      "outputs": [
        {
          "internalType": "string",
          "name": "",
          "type": "string"
        }
      ],
      "stateMutability": "view",
      "type": "function",
      "constant": true
    },
    {
      "inputs": [],
      "name": "totalSupply",
      "outputs": [
        {
          "internalType": "uint256",
          "name": "",
          "type": "uint256"
        }
      ],
      "stateMutability": "view",
      "type": "function",
      "constant": true
    },
    {
      "inputs": [
        {
          "internalType": "address",
          "name": "to",
          "type": "address"
        },
        {
          "internalType": "uint256",
          "name": "value",
          "type": "uint256"
        }
      ],
      "name": "transfer",
      "outputs": [
        {
          "internalType": "bool",
          "name": "",
          "type": "bool"
        }
      ],
      "stateMutability": "nonpayable",
      "type": "function"
    },
    {
      "inputs": [
        {
          "internalType": "address",
          "name": "from",
          "type": "address"
        },
        {
          "internalType": "address",
          "name": "to",
          "type": "address"
        },
        {
          "internalType": "uint256",
          "name": "value",
          "type": "uint256"
        }
      ],
      "name": "transferFrom",
      "outputs": [
        {
          "internalType": "bool",
          "name": "",
          "type": "bool"
        }
      ],
      "stateMutability": "nonpayable",
      "type": "function"
    },
    {
      "inputs": [
        {
          "internalType": "address",
          "name": "newOwner",
          "type": "address"
        }
      ],
      "name": "transferOwnership",
      "outputs": [],
      "stateMutability": "nonpayable",
      "type": "function"
    },
    {
      "inputs": [
        {
          "internalType": "uint256",
          "name": "amount",
          "type": "uint256"
        }
      ],
      "name": "mint",
      "outputs": [],
      "stateMutability": "nonpayable",
      "type": "function"
    },
    {
      "inputs": [
        {
          "internalType": "uint256",
          "name": "amount",
          "type": "uint256"
        }
      ],
      "name": "mintForTesting",
      "outputs": [],
      "stateMutability": "nonpayable",
      "type": "function"
    }
  ],
  "bytecode": "0x608060405234801562000010575f80fd5b5060405162000d7438038062000d748339810160408190526200003391620002c1565b604080518082018252600480825263484f4e4b60e01b60208084018290528451808601909552918452908301523391600362000070838262000379565b5060046200007f828262000379565b5050506001600160a01b038116620000b157604051631e4fbdf760e01b81525f60048201526024015b60405180910390fd5b620000bc8162000105565b50620000c9338262000156565b60405181815233907f3f2c9d57c068687834f0de942a9babb9e5acab57d516d3480a3c16ee165a42739060200160405180910390a25062000467565b600580546001600160a01b038381166001600160a01b0319831681179093556040519116919082907f8be0079c531659141344cd1fd0a4f28419497f9722a3daafe3b4186f6b6457e0905f90a35050565b6001600160a01b038216620001815760405163ec442f0560e01b81525f6004820152602401620000a8565b6200018e5f838362000192565b5050565b6001600160a01b038316620001c0578060025f828254620001b4919062000441565b90915550620002329050565b6001600160a01b0383165f9081526020819052604090205481811015620002145760405163391434e360e21b81526001600160a01b03851660048201526024810182905260448101839052606401620000a8565b6001600160a01b0384165f9081526020819052604090209082900390555b6001600160a01b03821662000250576002805482900390556200026e565b6001600160a01b0382165f9081526020819052604090208054820190555b816001600160a01b0316836001600160a01b03167fddf252ad1be2c89b69c2b068fc378daa952ba7f163c4a11628f55a4df523b3ef83604051620002b491815260200190565b60405180910390a3505050565b5f60208284031215620002d2575f80fd5b5051919050565b634e487b7160e01b5f52604160045260245ffd5b600181811c908216806200030257607f821691505b6020821081036200032157634e487b7160e01b5f52602260045260245ffd5b50919050565b601f82111562000374575f81815260208120601f850160051c810160208610156200034f5750805b601f850160051c820191505b8181101562000370578281556001016200035b565b5050505b505050565b81516001600160401b03811115620003955762000395620002d9565b620003ad81620003a68454620002ed565b8462000327565b602080601f831160018114620003e3575f8415620003cb5750858301515b5f19600386901b1c1916600185901b17855562000370565b5f85815260208120601f198616915b828110156200041357888601518255948401946001909101908401620003f2565b50858210156200043157878501515f19600388901b60f8161c191681555b5050505050600190811b01905550565b808201808211156200046157634e487b7160e01b5f52601160045260245ffd5b92915050565b6108ff80620004755f395ff3fe608060405234801561000f575f80fd5b50600436106100e5575f3560e01c8063715018a611610088578063a0712d6811610063578063a0712d681461015e578063a9059cbb146101c6578063dd62ed3e146101d9578063f2fde38b14610211575f80fd5b8063715018a61461019b5780638da5cb5b146101a357806395d89b41146101be575f80fd5b806323b872dd116100c357806323b872dd1461013c578063313ce5671461014f578063378d058d1461015e57806370a0823114610173575f80fd5b806306fdde03146100e9578063095ea7b31461010757806318160ddd1461012a575b5f80fd5b6100f1610224565b6040516100fe9190610743565b60405180910390f35b61011a6101153660046107a9565b6102b4565b60405190151581526020016100fe565b6002545b6040519081526020016100fe565b61011a61014a3660046107d1565b6102cd565b604051601281526020016100fe565b61017161016c36600461080a565b6102f0565b005b61012e610181366004610821565b6001600160a01b03165f9081526020819052604090205490565b61017161033a565b6005546040516001600160a01b0390911681526020016100fe565b6100f161034d565b61011a6101d43660046107a9565b61035c565b61012e6101e7366004610841565b6001600160a01b039182165f90815260016020908152604080832093909416825291909152205490565b61017161021f366004610821565b610369565b60606003805461023390610872565b80601f016020809104026020016040519081016040528092919081815260200182805461025f90610872565b80156102aa5780601f10610281576101008083540402835291602001916102aa565b820191905f5260205f20905b81548152906001019060200180831161028d57829003601f168201915b5050505050905090565b5f336102c18185856103ab565b60019150505b92915050565b5f336102da8582856103bd565b6102e5858585610438565b506001949350505050565b6102f8610495565b61030233826104c2565b60405181815233907f3f2c9d57c068687834f0de942a9babb9e5acab57d516d3480a3c16ee165a42739060200160405180910390a250565b610342610495565b61034b5f6104fa565b565b60606004805461023390610872565b5f336102c1818585610438565b610371610495565b6001600160a01b03811661039f57604051631e4fbdf760e01b81525f60048201526024015b60405180910390fd5b6103a8816104fa565b50565b6103b8838383600161054b565b505050565b6001600160a01b038381165f908152600160209081526040808320938616835292905220545f198114610432578181101561042457604051637dc7a0d960e11b81526001600160a01b03841660048201526024810182905260448101839052606401610396565b61043284848484035f61054b565b50505050565b6001600160a01b03831661046157604051634b637e8f60e11b81525f6004820152602401610396565b6001600160a01b03821661048a5760405163ec442f0560e01b81525f6004820152602401610396565b6103b883838361061d565b6005546001600160a01b0316331461034b5760405163118cdaa760e01b8152336004820152602401610396565b6001600160a01b0382166104eb5760405163ec442f0560e01b81525f6004820152602401610396565b6104f65f838361061d565b5050565b600580546001600160a01b038381166001600160a01b0319831681179093556040519116919082907f8be0079c531659141344cd1fd0a4f28419497f9722a3daafe3b4186f6b6457e0905f90a35050565b6001600160a01b0384166105745760405163e602df0560e01b81525f6004820152602401610396565b6001600160a01b03831661059d57604051634a1406b160e11b81525f6004820152602401610396565b6001600160a01b038085165f908152600160209081526040808320938716835292905220829055801561043257826001600160a01b0316846001600160a01b03167f8c5be1e5ebec7d5bd14f71427d1e84f3dd0314c0f7b2291e5b200ac8c7c3b9258460405161060f91815260200190565b60405180910390a350505050565b6001600160a01b038316610647578060025f82825461063c91906108aa565b909155506106b79050565b6001600160a01b0383165f90815260208190526040902054818110156106995760405163391434e360e21b81526001600160a01b03851660048201526024810182905260448101839052606401610396565b6001600160a01b0384165f9081526020819052604090209082900390555b6001600160a01b0382166106d3576002805482900390556106f1565b6001600160a01b0382165f9081526020819052604090208054820190555b816001600160a01b0316836001600160a01b03167fddf252ad1be2c89b69c2b068fc378daa952ba7f163c4a11628f55a4df523b3ef8360405161073691815260200190565b60405180910390a3505050565b5f6020808352835180828501525f5b8181101561076e57858101830151858201604001528201610752565b505f604082860101526040601f19601f8301168501019250505092915050565b80356001600160a01b03811681146107a4575f80fd5b919050565b5f80604083850312156107ba575f80fd5b6107c38361078e565b946020939093013593505050565b5f805f606084860312156107e3575f80fd5b6107ec8461078e565b92506107fa6020850161078e565b9150604084013590509250925092565b5f6020828403121561081a575f80fd5b5035919050565b5f60208284031215610831575f80fd5b61083a8261078e565b9392505050565b5f8060408385031215610852575f80fd5b61085b8361078e565b91506108696020840161078e565b90509250929050565b600181811c9082168061088657607f821691505b6020821081036108a457634e487b7160e01b5f52602260045260245ffd5b50919050565b808201808211156102c757634e487b7160e01b5f52601160045260245ffdfea2646970667358221220b6ed954db96c8e32bb7f911ecc77ef0ac98c627e5c4bc5fced11ac138dbce7c464736f6c63430008140033",
  "immutableReferences": {},
  "source": "// SPDX-License-Identifier: MIT\r\npragma solidity ^0.8.0;\r\n\r\nimport \"@openzeppelin/contracts/token/ERC20/ERC20.sol\";\r\nimport \"@openzeppelin/contracts/access/Ownable.sol\";\r\n\r\ncontract HONKToken is ERC20, Ownable {\r\n\r\n    /// @notice Emitted when tokens are minted\r\n    /// @param to The address receiving the minted tokens\r\n    /// @param amount The number of tokens minted\r\n    event TokensMinted(address indexed to, uint256 amount);\r\n\r\n    constructor(uint256 initialSupply) ERC20(\"HONK\", \"HONK\") Ownable(msg.sender) {\r\n        _mint(msg.sender, initialSupply);\r\n        emit TokensMinted(msg.sender, initialSupply); // Emit event for initial supply mint\r\n    }\r\n\r\n    /// @notice Function to allow only the owner to mint tokens\r\n    /// @param amount The number of tokens to mint\r\n    function mint(uint256 amount) public onlyOwner {\r\n        _mint(msg.sender, amount);\r\n        emit TokensMinted(msg.sender, amount); // Emit event for additional minting\r\n    }\r\n\r\n    /// @dev Remove or restrict this function before deploying to production.\r\n    function mintForTesting(uint256 amount) public onlyOwner {\r\n        _mint(msg.sender, amount);\r\n        emit TokensMinted(msg.sender, amount); // Emit event for testing minting\r\n    }\r\n}\r\n",
  "sourcePath": "C:\\Users\\Yin\\Documents\\vsprojects\\hero-marketplace-ui\\contracts\\HONKToken.sol",
  "compiler": {
    "name": "solc",
    "version": "0.8.20+commit.a1b79de6.Emscripten.clang"
  },
  "schemaVersion": "3.4.16",
  "updatedAt": "2024-09-03T08:51:25.896Z",
  "networkType": "ethereum",
  "devdoc": {
    "errors": {
      "ERC20InsufficientAllowance(address,uint256,uint256)": [
        {
          "details": "Indicates a failure with the `spender`s `allowance`. Used in transfers.",
          "params": {
            "allowance": "Amount of tokens a `spender` is allowed to operate with.",
            "needed": "Minimum amount required to perform a transfer.",
            "spender": "Address that may be allowed to operate on tokens without being their owner."
          }
        }
      ],
      "ERC20InsufficientBalance(address,uint256,uint256)": [
        {
          "details": "Indicates an error related to the current `balance` of a `sender`. Used in transfers.",
          "params": {
            "balance": "Current balance for the interacting account.",
            "needed": "Minimum amount required to perform a transfer.",
            "sender": "Address whose tokens are being transferred."
          }
        }
      ],
      "ERC20InvalidApprover(address)": [
        {
          "details": "Indicates a failure with the `approver` of a token to be approved. Used in approvals.",
          "params": {
            "approver": "Address initiating an approval operation."
          }
        }
      ],
      "ERC20InvalidReceiver(address)": [
        {
          "details": "Indicates a failure with the token `receiver`. Used in transfers.",
          "params": {
            "receiver": "Address to which tokens are being transferred."
          }
        }
      ],
      "ERC20InvalidSender(address)": [
        {
          "details": "Indicates a failure with the token `sender`. Used in transfers.",
          "params": {
            "sender": "Address whose tokens are being transferred."
          }
        }
      ],
      "ERC20InvalidSpender(address)": [
        {
          "details": "Indicates a failure with the `spender` to be approved. Used in approvals.",
          "params": {
            "spender": "Address that may be allowed to operate on tokens without being their owner."
          }
        }
      ],
      "OwnableInvalidOwner(address)": [
        {
          "details": "The owner is not a valid owner account. (eg. `address(0)`)"
        }
      ],
      "OwnableUnauthorizedAccount(address)": [
        {
          "details": "The caller account is not authorized to perform an operation."
        }
      ]
    },
    "events": {
      "Approval(address,address,uint256)": {
        "details": "Emitted when the allowance of a `spender` for an `owner` is set by a call to {approve}. `value` is the new allowance."
      },
      "TokensMinted(address,uint256)": {
        "params": {
          "amount": "The number of tokens minted",
          "to": "The address receiving the minted tokens"
        }
      },
      "Transfer(address,address,uint256)": {
        "details": "Emitted when `value` tokens are moved from one account (`from`) to another (`to`). Note that `value` may be zero."
      }
    },
    "kind": "dev",
    "methods": {
      "allowance(address,address)": {
        "details": "See {IERC20-allowance}."
      },
      "approve(address,uint256)": {
        "details": "See {IERC20-approve}. NOTE: If `value` is the maximum `uint256`, the allowance is not updated on `transferFrom`. This is semantically equivalent to an infinite approval. Requirements: - `spender` cannot be the zero address."
      },
      "balanceOf(address)": {
        "details": "See {IERC20-balanceOf}."
      },
      "decimals()": {
        "details": "Returns the number of decimals used to get its user representation. For example, if `decimals` equals `2`, a balance of `505` tokens should be displayed to a user as `5.05` (`505 / 10 ** 2`). Tokens usually opt for a value of 18, imitating the relationship between Ether and Wei. This is the default value returned by this function, unless it's overridden. NOTE: This information is only used for _display_ purposes: it in no way affects any of the arithmetic of the contract, including {IERC20-balanceOf} and {IERC20-transfer}."
      },
      "mint(uint256)": {
        "params": {
          "amount": "The number of tokens to mint"
        }
      },
      "mintForTesting(uint256)": {
        "details": "Remove or restrict this function before deploying to production."
      },
      "name()": {
        "details": "Returns the name of the token."
      },
      "owner()": {
        "details": "Returns the address of the current owner."
      },
      "renounceOwnership()": {
        "details": "Leaves the contract without owner. It will not be possible to call `onlyOwner` functions. Can only be called by the current owner. NOTE: Renouncing ownership will leave the contract without an owner, thereby disabling any functionality that is only available to the owner."
      },
      "symbol()": {
        "details": "Returns the symbol of the token, usually a shorter version of the name."
      },
      "totalSupply()": {
        "details": "See {IERC20-totalSupply}."
      },
      "transfer(address,uint256)": {
        "details": "See {IERC20-transfer}. Requirements: - `to` cannot be the zero address. - the caller must have a balance of at least `value`."
      },
      "transferFrom(address,address,uint256)": {
        "details": "See {IERC20-transferFrom}. Emits an {Approval} event indicating the updated allowance. This is not required by the EIP. See the note at the beginning of {ERC20}. NOTE: Does not update the allowance if the current allowance is the maximum `uint256`. Requirements: - `from` and `to` cannot be the zero address. - `from` must have a balance of at least `value`. - the caller must have allowance for ``from``'s tokens of at least `value`."
      },
      "transferOwnership(address)": {
        "details": "Transfers ownership of the contract to a new account (`newOwner`). Can only be called by the current owner."
      }
    },
    "version": 1
  },
  "userdoc": {
    "events": {
      "TokensMinted(address,uint256)": {
        "notice": "Emitted when tokens are minted"
      }
    },
    "kind": "user",
    "methods": {
      "mint(uint256)": {
        "notice": "Function to allow only the owner to mint tokens"
      }
    },
    "version": 1
  }
}